{
	"data": {
		"bytecode": {
			"linkReferences": {},
			"object": "6080604052600e805461ffff191690553480156200001c57600080fd5b5060405162004b3738038062004b378339810160408190526200003f9162000108565b600080546001600160a01b0319166001600160a01b038316178155620000623390565b600380546001600160a01b0319166001600160a01b038316908117909155604051919250906000907f8be0079c531659141344cd1fd0a4f28419497f9722a3daafe3b4186f6b6457e0908290a350600e805461010061ff0019909116179055620000d762000104602090811b6200362917901c565b600e60026101000a8154816001600160a01b0302191690836001600160a01b03160217905550506200013a565b3390565b6000602082840312156200011b57600080fd5b81516001600160a01b03811681146200013357600080fd5b9392505050565b6149ed806200014a6000396000f3fe608060405234801561001057600080fd5b50600436106102475760003560e01c806362e3efdd1161013b578063b4242463116100b8578063ef0a8f6b1161007c578063ef0a8f6b14610651578063f23a6e6114610664578063f2b9fdb814610677578063f2fde38b146106b0578063fc0c546a146106c357600080fd5b8063b4242463146105e1578063bb702c8e1461061a578063cdd7b1fd14610622578063cf77de9214610635578063ea1b28e01461064857600080fd5b80639ae697bf116100ff5780639ae697bf146104a15780639fb37393146104c1578063a59ac6dd146105b2578063a694fc3a146105c5578063b19c79da146105d857600080fd5b806362e3efdd146104585780637639c5481461046b5780637b0a47ee146104745780638da5cb5b1461047d578063909b30f11461048e57600080fd5b80632a599d94116101c9578063375b3c0a1161018d578063375b3c0a146103f65780633d33019b146103ff57806348e6cbe1146104125780634b217129146104255780634ba43f821461044557600080fd5b80632a599d941461037e5780632ce9aead146103905780632e1a7d4d146103b0578063358b8166146103c35780633606b522146103e357600080fd5b8063150b7a0211610210578063150b7a02146102fb5780631569351a1461032757806318160ddd146103505780631e9a69501461035857806327c6e65d1461036b57600080fd5b80628cc2621461024c578063015bde891461027257806303bcc72d146102a357806305f16bb9146102c05780630da27295146102ca575b600080fd5b61025f61025a3660046141cd565b6106d6565b6040519081526020015b60405180910390f35b600e5461028b906201000090046001600160a01b031681565b6040516001600160a01b039091168152602001610269565b600e546102b09060ff1681565b6040519015158152602001610269565b6102c861070a565b005b61025f6102d8366004614322565b600d60209081526000938452604080852082529284528284209052825290205481565b61030e610309366004614207565b61076f565b6040516001600160e01b03199091168152602001610269565b61025f6103353660046141cd565b6001600160a01b03166000908152600b602052604090205490565b60015461025f565b6102c86103663660046142f6565b61079d565b6102c8610379366004614364565b610cf6565b600e546102b090610100900460ff1681565b61025f61039e3660046141cd565b60046020526000908152604090205481565b6102c86103be366004614598565b611331565b61025f6103d13660046141cd565b60056020526000908152604090205481565b6102c86103f13660046143b7565b61160f565b61025f600f5481565b6102c861040d36600461466b565b611f49565b6102c8610420366004614613565b612107565b61025f6104333660046141cd565b60076020526000908152604090205481565b6102c86104533660046144e3565b6121c5565b61025f6104663660046141cd565b6125c2565b61025f60095481565b61025f60115481565b6003546001600160a01b031661028b565b61028b61049c3660046142f6565b6125dd565b61025f6104af3660046141cd565b60066020526000908152604090205481565b6105486104cf3660046142f6565b600a60209081526000928352604080842090915290825290208054600182015460028301546003840154600485015460058601546006870154600788015460089098015460ff97881698969795969495939492936001600160a01b0380841694600160a01b8504831694600160a81b900490921692168b565b604080519b15158c5260208c019a909a52988a01979097526060890195909552608088019390935260a08701919091526001600160a01b0390811660c087015290151560e08601529015156101008501526101208401919091521661014082015261016001610269565b6102c86105c0366004614439565b612615565b6102c86105d3366004614598565b612cbc565b61025f60085481565b6105f46105ef3660046142f6565b612ef7565b604080519485529215156020850152901515918301919091526060820152608001610269565b6102c86131fa565b6102c8610630366004614635565b613232565b61025f6106433660046141cd565b613333565b61025f60105481565b6102c861065f3660046144a8565b613391565b61030e61067236600461427a565b61350f565b61025f6106853660046142f6565b6001600160a01b03919091166000908152600a60209081526040808320938352929052206005015490565b6102c86106be3660046141cd565b61353e565b60005461028b906001600160a01b031681565b60006106e182613333565b6001600160a01b03831660009081526005602052604090205461070491906148b1565b92915050565b6003546001600160a01b0316331461073d5760405162461bcd60e51b81526004016107349061487c565b60405180910390fd5b600e5460ff16156107605760405162461bcd60e51b815260040161073490614801565b600e805460ff19166001179055565b60006001600160a01b0386163014156107905750630a85bd0160e11b610794565b5060005b95945050505050565b3380156108c6576107ad81613333565b6001600160a01b0382166000908152600560205260409020546107d091906148b1565b6001600160a01b038216600090815260056020908152604080832093909355600481528282204290556007905220541580159061083057506001600160a01b03811660009081526007602090815260408083205460059092529091205410155b156108c6576001600160a01b0381166000908152600760209081526040808320546005909252822080549192909161086990849061490a565b90915550506001600160a01b038116600090815260076020526040812054600980549192909161089a9084906148b1565b90915550506001600160a01b038116600090815260076020908152604080832083905560069091528120555b600e5460ff166109185760405162461bcd60e51b815260206004820152601c60248201527f4e6f742063616c6c61626c6520696e2047656e65736973204661726d000000006044820152606401610734565b3360009081526007602090815260408083205460059092529091205410156109a85760405162461bcd60e51b815260206004820152603760248201527f556e61626c6520746f2068617276657374206f74686572204e465420756e746960448201527f6c20706169642077686f6c65206465627420706f696e740000000000000000006064820152608401610734565b600e5460405163b424246360e01b81526001600160a01b03858116600483015260248201859052600092839283928392620100009004169063b424246390604401608060405180830381600087803b158015610a0357600080fd5b505af1158015610a17573d6000803e3d6000fd5b505050506040513d601f19601f82011682018060405250810190610a3b91906145ca565b33600090815260056020526040902054939750919550935091508411610aa65733600090815260056020526040902054610a7690859061490a565b3360009081526005602052604081209190915560098054869290610a9b9084906148b1565b90915550610ba69050565b8115610b505780610ab6336125c2565b1015610b045760405162461bcd60e51b815260206004820152601f60248201527f4e6f7420656e6f7567682062616c616e636520746f206265204c6f636b6564006044820152606401610734565b610b0d336125c2565b3360009081526006602052604081208054909190610b2c9084906148b1565b90915550503360009081526007602052604081208054869290610a9b9084906148b1565b60405162461bcd60e51b815260206004820152602560248201527f72656465656d233a20506c65617365207761697420666f7220656e6f75676820604482015264141bda5b9d60da1b6064820152608401610734565b8215610c2357600e54604051637921219560e11b81526001600160a01b03808a169263f242432a92610bec92620100009092049091169033908b90600190600401614701565b600060405180830381600087803b158015610c0657600080fd5b505af1158015610c1a573d6000803e3d6000fd5b50505050610c93565b600e54604051635c46a7ef60e11b81526001600160a01b03808a169263b88d4fde92610c6092620100009092049091169033908b90600401614739565b600060405180830381600087803b158015610c7a57600080fd5b505af1158015610c8e573d6000803e3d6000fd5b505050505b610c9f60016000612173565b85876001600160a01b0316336001600160a01b03167f5cdf07ad0fc222442720b108e3ed4c4640f0fadc2ab2253e66f259a0fea8348087604051610ce591815260200190565b60405180910390a450505050505050565b600e548190339060ff1615610d5c5760405162461bcd60e51b815260206004820152602660248201527f6f6e6c794368696c644661726d3a204e6f742063616c6c61626c6520696e204360448201526503637b732b2160d51b6064820152608401610734565b6000805b6001600160a01b0384166000908152600b6020526040902054811015610de5576001600160a01b038481166000908152600b6020526040902080549185169183908110610daf57610daf61497e565b6000918252602090912001546001600160a01b03161415610dd35760019150610de5565b80610ddd8161494d565b915050610d60565b5080610e465760405162461bcd60e51b815260206004820152602a60248201527f4f6e6c79204368696c64204661726d2069732061626c652063616c6c207468696044820152693990333ab731ba34b7b760b11b6064820152608401610734565b600e5460ff1615610e995760405162461bcd60e51b815260206004820152601b60248201527f4e6f742063616c6c61626c6520696e20436c6f6e6564204661726d00000000006044820152606401610734565b6001600160a01b0387166000908152600a6020908152604080832089845290915290206006810154600160a81b900460ff16158015610ee3575060088101546001600160a01b0316155b15610f2757610ef2888861362d565b60068101805460ff60a81b1916600160a81b1790556008810180546001600160a01b0319163317905560006005820155611259565b85156110f5576008810154604051627eeac760e11b81526001600160a01b039182166004820152602481018990526000918a169062fdd58e9060440160206040518083038186803b158015610f7b57600080fd5b505afa158015610f8f573d6000803e3d6000fd5b505050506040513d601f19601f82011682018060405250810190610fb391906145b1565b6008830154604051637921219560e11b81529192506001600160a01b03808c169263f242432a92610fee92169030908d908790600401614701565b600060405180830381600087803b15801561100857600080fd5b505af115801561101c573d6000803e3d6000fd5b505050600883015460405163a22cb46560e01b81526001600160a01b03808d16935063a22cb465926110569291169060009060040161476c565b600060405180830381600087803b15801561107057600080fd5b505af1158015611084573d6000803e3d6000fd5b5050505060088201546040516348e6cbe160e01b815260048101839052600060248201526001600160a01b03909116906348e6cbe190604401600060405180830381600087803b1580156110d757600080fd5b505af11580156110eb573d6000803e3d6000fd5b505050505061122f565b6008810154604051635c46a7ef60e11b81526001600160a01b038a81169263b88d4fde9261112d929091169030908c90600401614739565b600060405180830381600087803b15801561114757600080fd5b505af115801561115b573d6000803e3d6000fd5b505050600882015460405163a22cb46560e01b81526001600160a01b03808c16935063a22cb465926111959291169060009060040161476c565b600060405180830381600087803b1580156111af57600080fd5b505af11580156111c3573d6000803e3d6000fd5b5050505060088101546040516348e6cbe160e01b815260016004820152600060248201526001600160a01b03909116906348e6cbe190604401600060405180830381600087803b15801561121657600080fd5b505af115801561122a573d6000803e3d6000fd5b505050505b6008810180546001600160a01b0319163317905560068101805460ff60a81b1916600160a81b1790555b85156112c55760405163a22cb46560e01b81526001600160a01b0389169063a22cb4659061128e90339060019060040161476c565b600060405180830381600087803b1580156112a857600080fd5b505af11580156112bc573d6000803e3d6000fd5b50505050611327565b60405163a22cb46560e01b81526001600160a01b0389169063a22cb465906112f490339060019060040161476c565b600060405180830381600087803b15801561130e57600080fd5b505af1158015611322573d6000803e3d6000fd5b505050505b5050505050505050565b33801561145a5761134181613333565b6001600160a01b03821660009081526005602052604090205461136491906148b1565b6001600160a01b03821660009081526005602090815260408083209390935560048152828220429055600790522054158015906113c457506001600160a01b03811660009081526007602090815260408083205460059092529091205410155b1561145a576001600160a01b038116600090815260076020908152604080832054600590925282208054919290916113fd90849061490a565b90915550506001600160a01b038116600090815260076020526040812054600980549192909161142e9084906148b1565b90915550506001600160a01b038116600090815260076020908152604080832083905560069091528120555b6000821161149e5760405162461bcd60e51b8152602060048201526011602482015270043616e6e6f74207769746864726177203607c1b6044820152606401610734565b33600090815260076020908152604080832054600590925290912054111561157f5733600081815260066020526040902054906114da906125c2565b6114e4919061490a565b82111561153d5760405162461bcd60e51b815260206004820152602160248201527f6f6e6c792061626c6520746f20756e7374616b6520667265652062616c616e636044820152606560f81b6064820152608401610734565b6115468261378d565b60405182815233907f7084f5476618d8e60b11ef0d7d3f06914655adb8793e28ff7f018d4c76d505d59060200160405180910390a25050565b3360008181526006602052604090205490611599906125c2565b6115a3919061490a565b82116115b2576115468261378d565b60405162461bcd60e51b815260206004820152602860248201527f506c65617365207761697420756e74696c20656e6f75676820706f696e7420746044820152676f20756e6c6f636b60c01b6064820152608401610734565b5050565b600e5460ff166116615760405162461bcd60e51b815260206004820152601c60248201527f4e6f742063616c6c61626c6520696e2047656e65736973204661726d000000006044820152606401610734565b8215611686578383116116865760405162461bcd60e51b8152600401610734906147ba565b606486106116d65760405162461bcd60e51b815260206004820152601e60248201527f526f79616c6974696573206973204c4152474552207468616e203130302500006044820152606401610734565b600081116117265760405162461bcd60e51b815260206004820152601b60248201527f53686f70204d6f646520616d6f756e7420697320544f4f204c4f5700000000006044820152606401610734565b8661178757600281106117875760405162461bcd60e51b8152602060048201526024808201527f7768656e204552433732312c20616d6f756e74206d757374206c65737320746860448201526330b7101960e11b6064820152608401610734565b600082116117ca5760405162461bcd60e51b815260206004820152601060248201526f507269636520697320544f4f204c4f5760801b6044820152606401610734565b6001600160a01b038981166000818152600a602090815260408083208d845290915290819020600381018890556004808201889055600282018b905560068201805483548e151560ff1990911681178555600785018a9055600161ff0160a01b03199091168c881617600160a81b17909155600e5493516327c6e65d60e01b815291820194909452602481018d90526044810193909352336064840152926201000090910416906327c6e65d90608401600060405180830381600087803b15801561189457600080fd5b505af11580156118a8573d6000803e3d6000fd5b505050508715611d1857600e54604051627eeac760e11b81526001600160a01b036201000090920482166004820152602481018b90526000918c169062fdd58e9060440160206040518083038186803b15801561190457600080fd5b505afa158015611918573d6000803e3d6000fd5b505050506040513d601f19601f8201168201806040525081019061193c91906145b1565b604051627eeac760e11b8152336004820152602481018c90529091506000906001600160a01b038d169062fdd58e9060440160206040518083038186803b15801561198657600080fd5b505afa15801561199a573d6000803e3d6000fd5b505050506040513d601f19601f820116820180604052508101906119be91906145b1565b90508115611c3e5783821015611b2e57806119d9838661490a565b1115611a435760405162461bcd60e51b815260206004820152603360248201527f436c6f6e65644661726d2361646453686f704d6f64653a20757365722042616c604482015272030b731b29034b9903737ba1032b737bab3b41606d1b6064820152608401610734565b6001600160a01b038c1663f242432a33308e611a5f878a61490a565b6040518563ffffffff1660e01b8152600401611a7e9493929190614701565b600060405180830381600087803b158015611a9857600080fd5b505af1158015611aac573d6000803e3d6000fd5b505050508b6001600160a01b031663f242432a600e60029054906101000a90046001600160a01b0316308e866040518563ffffffff1660e01b8152600401611af79493929190614701565b600060405180830381600087803b158015611b1157600080fd5b505af1158015611b25573d6000803e3d6000fd5b50505050611ca3565b83821115611bf757600e546001600160a01b03808e169163f242432a916201000090910416338e611b5f898861490a565b6040518563ffffffff1660e01b8152600401611b7e9493929190614701565b600060405180830381600087803b158015611b9857600080fd5b505af1158015611bac573d6000803e3d6000fd5b505050508b6001600160a01b031663f242432a600e60029054906101000a90046001600160a01b0316308e886040518563ffffffff1660e01b8152600401611af79493929190614701565b8b6001600160a01b031663f242432a600e60029054906101000a90046001600160a01b0316308e886040518563ffffffff1660e01b8152600401611af79493929190614701565b8b6001600160a01b031663f242432a33308e886040518563ffffffff1660e01b8152600401611c709493929190614701565b600060405180830381600087803b158015611c8a57600080fd5b505af1158015611c9e573d6000803e3d6000fd5b505050505b600e5460405163a22cb46560e01b81526001600160a01b03808f169263a22cb46592611cdf92620100009092049091169060019060040161476c565b600060405180830381600087803b158015611cf957600080fd5b505af1158015611d0d573d6000803e3d6000fd5b505050505050611ef2565b600e546040516331a9108f60e11b8152600481018b90526001600160a01b03620100009092048216918c1690636352211e9060240160206040518083038186803b158015611d6557600080fd5b505afa158015611d79573d6000803e3d6000fd5b505050506040513d601f19601f82011682018060405250810190611d9d91906141ea565b6001600160a01b03161415611e2057600e54604051635c46a7ef60e11b81526001600160a01b03808d169263b88d4fde92611de992620100009092049091169030908e90600401614739565b600060405180830381600087803b158015611e0357600080fd5b505af1158015611e17573d6000803e3d6000fd5b50505050611e83565b604051635c46a7ef60e11b81526001600160a01b038b169063b88d4fde90611e5090339030908e90600401614739565b600060405180830381600087803b158015611e6a57600080fd5b505af1158015611e7e573d6000803e3d6000fd5b505050505b600e5460405163a22cb46560e01b81526001600160a01b03808d169263a22cb46592611ebf92620100009092049091169060019060040161476c565b600060405180830381600087803b158015611ed957600080fd5b505af1158015611eed573d6000803e3d6000fd5b505050505b611f00816005015483612173565b6005810182905560405189906001600160a01b038c16907fe5f84524c5ee18835d0e2b6eca5cbce7f5c942b22801e7b61cedecc06602355090600090a350505050505050505050565b600e5460ff1615611f6c5760405162461bcd60e51b815260040161073490614801565b6000611f77306137e7565b60405163cdd7b1fd60e01b81526004810188905260248101879052604481018690526001600160a01b0385811660648301529192509082169063cdd7b1fd90608401600060405180830381600087803b158015611fd357600080fd5b505af1158015611fe7573d6000803e3d6000fd5b50505050806001600160a01b03166305f16bb96040518163ffffffff1660e01b8152600401600060405180830381600087803b15801561202657600080fd5b505af115801561203a573d6000803e3d6000fd5b505060405163f2fde38b60e01b81526001600160a01b0385811660048301528416925063f2fde38b9150602401600060405180830381600087803b15801561208157600080fd5b505af1158015612095573d6000803e3d6000fd5b505050506001600160a01b038281166000818152600b60209081526040808320805460018101825590845291832090910180546001600160a01b0319169486169485179055517f6bff9ddd187ef283e9c7726f406ab27bcc3719a41b6bee3585c7447183cffcec9190a3505050505050565b600e546201000090046001600160a01b031633146121735760405162461bcd60e51b8152602060048201526024808201527f6f6e6c792067656e657369732063616e207570646174652066726f6d206f75746044820152637369646560e01b6064820152608401610734565b818111156121a157612185828261490a565b6008600082825461219691906148b1565b9091555061160b9050565b6121ab818361490a565b600860008282546121bc919061490a565b90915550505050565b600e5460ff16156121e85760405162461bcd60e51b815260040161073490614801565b836122355760405162461bcd60e51b815260206004820152601e60248201527f4c697374206f66204661726d206d757374206c61726765207468616e203000006044820152606401610734565b612245606088016040890161446e565b612296578660e001356001146122965760405162461bcd60e51b815260206004820152601660248201527545524337323120737570706c79206973206e6f74203160501b6044820152606401610734565b6000600a816122a860208b018b6141cd565b6001600160a01b039081168252602080830193909352604091820160009081208c8501358252909352918190206006810180546001600160a01b031916938b16939093179092559091506123029060608a01908a0161446e565b815460ff1916901515178155600681015460ff600160a81b909104168015612336575060088101546001600160a01b031615155b156125115761234b6060890160408a0161446e565b1561246d57600061235f60208a018a6141cd565b6008830154604051627eeac760e11b81526001600160a01b03918216600482015260208c0135602482015291169062fdd58e9060440160206040518083038186803b1580156123ad57600080fd5b505afa1580156123c1573d6000803e3d6000fd5b505050506040513d601f19601f820116820180604052508101906123e591906145b1565b90506123f460208a018a6141cd565b6008830154604051637921219560e11b81526001600160a01b039283169263f242432a9261243192911690309060208f0135908790600401614701565b600060405180830381600087803b15801561244b57600080fd5b505af115801561245f573d6000803e3d6000fd5b5050505060058201556124ef565b61247a60208901896141cd565b6008820154604051635c46a7ef60e11b81526001600160a01b039283169263b88d4fde926124b592911690309060208e013590600401614739565b600060405180830381600087803b1580156124cf57600080fd5b505af11580156124e3573d6000803e3d6000fd5b50506001600584015550505b60068101805460ff60a81b191690556008810180546001600160a01b03191690555b61254461252160208a018a6141cd565b89602001358a606001358b608001358c60a001358d60c001358e60e00135613839565b61256861255460208a018a6141cd565b89602001358a60e001358989898989613a0e565b60e0880135600582015560208801803590612583908a6141cd565b6001600160a01b03167fe5f84524c5ee18835d0e2b6eca5cbce7f5c942b22801e7b61cedecc06602355060405160405180910390a35050505050505050565b6001600160a01b031660009081526002602052604090205490565b600b60205281600052604060002081815481106125f957600080fd5b6000918252602090912001546001600160a01b03169150829050565b600e5460ff166126675760405162461bcd60e51b815260206004820152601a60248201527f4275793a204f6e6c792063616c6c2066726f6d20636c6f6e65640000000000006044820152606401610734565b600081116126ae5760405162461bcd60e51b81526020600482015260146024820152730416d6f756e74206d757374206e6f7420626520360641b6044820152606401610734565b6001600160a01b0383166000908152600a6020908152604080832085845290915290206007810154158015906126ef57506006810154600160a81b900460ff165b80156126ff575081816005015410155b61274b5760405162461bcd60e51b815260206004820152601c60248201527f4e6f7420617661696c61626c65204e465420666f7220627579696e67000000006044820152606401610734565b80600301544210156127925760405162461bcd60e51b815260206004820152601060248201526f10d85c99081b9bdd081cdd185c9d195960821b6044820152606401610734565b6004810154156127e15780600401544211156127e15760405162461bcd60e51b815260206004820152600e60248201526d021b0b9321034b99022b73232b2160951b6044820152606401610734565b805460ff1661284557816001146128455760405162461bcd60e51b815260206004820152602260248201527f4e4654206973204552433732312c20736f20616d6f756e74206d757374206265604482015261203160f01b6064820152608401610734565b600080546040516370a0823160e01b81523360048201526001600160a01b03909116906370a082319060240160206040518083038186803b15801561288957600080fd5b505afa15801561289d573d6000803e3d6000fd5b505050506040513d601f19601f820116820180604052508101906128c191906145b1565b9050808260070154846128d491906148eb565b11156129225760405162461bcd60e51b815260206004820152601c60248201527f4275793a2057616c6c6574206e6f7420656e6f75676820746f6b656e000000006044820152606401610734565b60068201546001600160a01b031615801590612942575060008260020154115b15612ad3576000546001600160a01b03166323b872dd3361296b6003546001600160a01b031690565b60648660020154606461297e919061490a565b600788015461298d908a6148eb565b61299791906148eb565b6129a191906148c9565b6040518463ffffffff1660e01b81526004016129bf939291906146dd565b602060405180830381600087803b1580156129d957600080fd5b505af11580156129ed573d6000803e3d6000fd5b505050506040513d601f19601f82011682018060405250810190612a11919061448b565b506000546006830154600284015460078501546001600160a01b03938416936323b872dd93339391169160649190612a49908a6148eb565b612a5391906148eb565b612a5d91906148c9565b6040518463ffffffff1660e01b8152600401612a7b939291906146dd565b602060405180830381600087803b158015612a9557600080fd5b505af1158015612aa9573d6000803e3d6000fd5b505050506040513d601f19601f82011682018060405250810190612acd919061448b565b50612b78565b6000546001600160a01b03166323b872dd33612af76003546001600160a01b031690565b6007860154612b0690886148eb565b6040518463ffffffff1660e01b8152600401612b24939291906146dd565b602060405180830381600087803b158015612b3e57600080fd5b505af1158015612b52573d6000803e3d6000fd5b505050506040513d601f19601f82011682018060405250810190612b76919061448b565b505b815460ff1615612c1e57604051637921219560e11b81526001600160a01b0386169063f242432a90612bb4903090339089908990600401614701565b600060405180830381600087803b158015612bce57600080fd5b505af1158015612be2573d6000803e3d6000fd5b5050505082826005016000828254612bfa919061490a565b925050819055508260086000828254612c13919061490a565b90915550612cb59050565b604051635c46a7ef60e11b81526001600160a01b0386169063b88d4fde90612c4e90309033908990600401614739565b600060405180830381600087803b158015612c6857600080fd5b505af1158015612c7c573d6000803e3d6000fd5b505050506001826005016000828254612c95919061490a565b92505081905550600160086000828254612caf919061490a565b90915550505b5050505050565b338015612de557612ccc81613333565b6001600160a01b038216600090815260056020526040902054612cef91906148b1565b6001600160a01b0382166000908152600560209081526040808320939093556004815282822042905560079052205415801590612d4f57506001600160a01b03811660009081526007602090815260408083205460059092529091205410155b15612de5576001600160a01b03811660009081526007602090815260408083205460059092528220805491929091612d8890849061490a565b90915550506001600160a01b0381166000908152600760205260408120546009805491929091612db99084906148b1565b90915550506001600160a01b038116600090815260076020908152604080832083905560069091528120555b600f54612df1336125c2565b612dfb90846148b1565b10158015612e1b57506000612e0f336125c2565b612e1990846148b1565b115b612e595760405162461bcd60e51b815260206004820152600f60248201526e151bdbc819995dc819195c1bdcda5d608a1b6044820152606401610734565b601054612e65336125c2565b612e6f90846148b1565b1115612eb55760405162461bcd60e51b815260206004820152601560248201527411195c1bdcda5d081b1a5b5a5d081c995858da1959605a1b6044820152606401610734565b612ebe82613d39565b60405182815233907f9e71bc8eea02a63969f509818f2dafb9254532904319f9dbda79b67bd34a5f3d9060200160405180910390a25050565b60008080803381805b6001600160a01b0389166000908152600c602090815260408083208b8452909152902054811015612f9a576001600160a01b0389166000908152600c602090815260408083208b84529091529020805482908110612f6057612f6061497e565b6000918252602090912001546001600160a01b0384811691161415612f885760019150612f9a565b80612f928161494d565b915050612f00565b5080612fe85760405162461bcd60e51b815260206004820152601860248201527f43616c6c2066726f6d206e6f742056414c4944204661726d00000000000000006044820152606401610734565b6001600160a01b0388166000908152600a602090815260408083208a84529091529020600181015461304d5760405162461bcd60e51b815260206004820152600e60248201526d10d85c99081b9bdd08199bdd5b9960921b6044820152606401610734565b6006810154600160a81b900460ff16156130a05760405162461bcd60e51b81526020600482015260146024820152734361726420697320696e2053686f70204d6f646560601b6044820152606401610734565b80600301544210156130e75760405162461bcd60e51b815260206004820152601060248201526f10d85c99081b9bdd081cdd185c9d195960821b6044820152606401610734565b6004810154156131365780600401544211156131365760405162461bcd60e51b815260206004820152600e60248201526d021b0b9321034b99022b73232b2160951b6044820152606401610734565b6001816005015410156131825760405162461bcd60e51b815260206004820152601460248201527303a3434b99027232a1034b990393ab71037baba160651b6044820152606401610734565b6001816005016000828254613197919061490a565b9091555050600181015481546006909201546001600160a01b039a8b166000908152600d602090815260408083209c83529b81528b822096909c16815294909a529790922054969860ff92831698600160a01b9004909216969550909350505050565b6003546001600160a01b031633146132245760405162461bcd60e51b81526004016107349061487c565b6003546001600160a01b0316ff5b600e54610100900460ff1615801561324d5750600e5460ff16155b6132b65760405162461bcd60e51b815260206004820152603460248201527f44616f4c61756e63684661726d206d757374206e6f7420626520636f6e7374726044820152733ab1ba32b2103cb2ba1037b91031b637b732b21760611b6064820152608401610734565b6000821180156132c65750828210155b6132e25760405162461bcd60e51b815260040161073490614838565b6011849055600f8390556010829055600080546001600160a01b0319166001600160a01b038316179055600e805462010000600160b01b03191633620100000217905561332d613d91565b50505050565b60008042905062015180601154613349856125c2565b6001600160a01b03861660009081526004602052604090205461336c908561490a565b61337691906148eb565b61338091906148eb565b61338a91906148c9565b9392505050565b6003546001600160a01b031633146133bb5760405162461bcd60e51b81526004016107349061487c565b6000546001600160a01b0385811691161461348e57600154156134205760405162461bcd60e51b815260206004820152601b60248201527f416c7265616479207374616b656420696e206f6c6420746f6b656e00000000006044820152606401610734565b600854156134705760405162461bcd60e51b815260206004820152601e60248201527f416c7265616479206164646564204e465420696e206f6c6420746f6b656e00006044820152606401610734565b600080546001600160a01b031981166001600160a01b039091161790555b60008111801561349e5750818110155b6134ba5760405162461bcd60e51b815260040161073490614838565b600083116135005760405162461bcd60e51b8152602060048201526013602482015272526577617264207261746520746f6f206c6f7760681b6044820152606401610734565b600f9190915560105560115550565b60006001600160a01b038716301415613530575063f23a6e6160e01b613534565b5060005b9695505050505050565b6003546001600160a01b031633146135685760405162461bcd60e51b81526004016107349061487c565b6001600160a01b0381166135cd5760405162461bcd60e51b815260206004820152602660248201527f4f776e61626c653a206e6577206f776e657220697320746865207a65726f206160448201526564647265737360d01b6064820152608401610734565b6003546040516001600160a01b038084169216907f8be0079c531659141344cd1fd0a4f28419497f9722a3daafe3b4186f6b6457e090600090a3600380546001600160a01b0319166001600160a01b0392909216919091179055565b3390565b6001600160a01b0382166000908152600c602090815260408083208484529091529020541561160b5760005b6001600160a01b0383166000908152600c60209081526040808320858452909152902054811015613760576001600160a01b0383166000908152600c6020908152604080832085845290915281208054839081106136b9576136b961497e565b60009182526020808320909101546001600160a01b038781168452600a835260408085208886529093528284206005015492516348e6cbe160e01b81529116935083926348e6cbe19261371a92909190600401918252602082015260400190565b600060405180830381600087803b15801561373457600080fd5b505af1158015613748573d6000803e3d6000fd5b505050505080806137589061494d565b915050613659565b506001600160a01b0382166000908152600c60209081526040808320848452909152812061160b916140a9565b8060015461379b919061490a565b600155336000908152600260205260409020546137b990829061490a565b3360008181526002602052604081209290925590546137e4916001600160a01b039091169083613dd6565b50565b6000808260601b9050604051733d602d80600a3d3981f3363d3d373d3d3d363d7360601b81528160148201526e5af43d82803e903d91602b57fd5bf360881b60288201526037816000f0949350505050565b600e5460ff161561385c5760405162461bcd60e51b815260040161073490614801565b8115613881578282116138815760405162461bcd60e51b8152600401610734906147ba565b606484106138d15760405162461bcd60e51b815260206004820152601e60248201527f526f79616c6974696573206973204c4152474552207468616e203130302500006044820152606401610734565b6001600160a01b0387166000908152600a6020908152604080832089845290915290206001810186905560028101859055600381018490556004810183905560068101805460ff60a81b1916905560058101548210156139a657805460ff161561397657876001600160a01b031663f242432a30338a868660050154613957919061490a565b6040518563ffffffff1660e01b815260040161128e9493929190614701565b604051635c46a7ef60e11b81526001600160a01b0389169063b88d4fde9061128e90309033908c90600401614739565b806005015482111561132757805460ff16156139de57876001600160a01b031663f242432a33308a856005015487613957919061490a565b604051635c46a7ef60e11b81526001600160a01b0389169063b88d4fde906112f490339030908c90600401614739565b600e5460ff1615613a315760405162461bcd60e51b815260040161073490614801565b8215613aa257808414613aa25760405162461bcd60e51b815260206004820152603360248201527f5374616b654661726d204c656e677468206d75737420657175616c20746f206d6044820152720d2dc98dec6d682dadeeadce84098cadccee8d606b1b6064820152608401610734565b6001600160a01b0388166000908152600a602090815260408083208a8452909152902060068101805460ff60a01b1916600160a01b86151502179055613ae8898961362d565b6001600160a01b0389166000908152600c602090815260408083208b84529091529020613b169087876140c7565b5060005b85811015613d2d576000878783818110613b3657613b3661497e565b9050602002016020810190613b4b91906141cd565b835490915060ff1615613bbe5760405163a22cb46560e01b81526001600160a01b038c169063a22cb46590613b8790849060019060040161476c565b600060405180830381600087803b158015613ba157600080fd5b505af1158015613bb5573d6000803e3d6000fd5b50505050613c20565b60405163a22cb46560e01b81526001600160a01b038c169063a22cb46590613bed90849060019060040161476c565b600060405180830381600087803b158015613c0757600080fd5b505af1158015613c1b573d6000803e3d6000fd5b505050505b6040516348e6cbe160e01b815260006004820152602481018a90526001600160a01b038216906348e6cbe190604401600060405180830381600087803b158015613c6957600080fd5b505af1158015613c7d573d6000803e3d6000fd5b505050508515613d1a57848483818110613c9957613c9961497e565b90506020020135600d60008d6001600160a01b03166001600160a01b0316815260200190815260200160002060008c815260200190815260200160002060008a8a86818110613cea57613cea61497e565b9050602002016020810190613cff91906141cd565b6001600160a01b031681526020810191909152604001600020555b5080613d258161494d565b915050613b1a565b50505050505050505050565b80600154613d4791906148b1565b60015533600090815260026020526040902054613d659082906148b1565b3360008181526002602052604081209290925590546137e4916001600160a01b03909116903084613e3e565b600380546001600160a01b0319163390811790915560405181906000907f8be0079c531659141344cd1fd0a4f28419497f9722a3daafe3b4186f6b6457e0908290a350565b6040516001600160a01b038316602482015260448101829052613e3990849063a9059cbb60e01b906064015b60408051601f198184030181529190526020810180516001600160e01b03166001600160e01b031990931692909217909152613e5f565b505050565b61332d846323b872dd60e01b858585604051602401613e02939291906146dd565b6000613eb4826040518060400160405280602081526020017f5361666545524332303a206c6f772d6c6576656c2063616c6c206661696c6564815250856001600160a01b0316613f319092919063ffffffff16565b805190915015613e395780806020019051810190613ed2919061448b565b613e395760405162461bcd60e51b815260206004820152602a60248201527f5361666545524332303a204552433230206f7065726174696f6e20646964206e6044820152691bdd081cdd58d8d9595960b21b6064820152608401610734565b6060613f408484600085613f48565b949350505050565b606082471015613fa95760405162461bcd60e51b815260206004820152602660248201527f416464726573733a20696e73756666696369656e742062616c616e636520666f6044820152651c8818d85b1b60d21b6064820152608401610734565b843b613ff75760405162461bcd60e51b815260206004820152601d60248201527f416464726573733a2063616c6c20746f206e6f6e2d636f6e74726163740000006044820152606401610734565b600080866001600160a01b0316858760405161401391906146c1565b60006040518083038185875af1925050503d8060008114614050576040519150601f19603f3d011682016040523d82523d6000602084013e614055565b606091505b5091509150614065828286614070565b979650505050505050565b6060831561407f57508161338a565b82511561408f5782518084602001fd5b8160405162461bcd60e51b81526004016107349190614787565b50805460008255906000526020600020908101906137e4919061412a565b82805482825590600052602060002090810192821561411a579160200282015b8281111561411a5781546001600160a01b0319166001600160a01b038435161782556020909201916001909101906140e7565b5061412692915061412a565b5090565b5b80821115614126576000815560010161412b565b60008083601f84011261415157600080fd5b50813567ffffffffffffffff81111561416957600080fd5b6020830191508360208260051b850101111561418457600080fd5b9250929050565b60008083601f84011261419d57600080fd5b50813567ffffffffffffffff8111156141b557600080fd5b60208301915083602082850101111561418457600080fd5b6000602082840312156141df57600080fd5b813561338a81614994565b6000602082840312156141fc57600080fd5b815161338a81614994565b60008060008060006080868803121561421f57600080fd5b853561422a81614994565b9450602086013561423a81614994565b935060408601359250606086013567ffffffffffffffff81111561425d57600080fd5b6142698882890161418b565b969995985093965092949392505050565b60008060008060008060a0878903121561429357600080fd5b863561429e81614994565b955060208701356142ae81614994565b94506040870135935060608701359250608087013567ffffffffffffffff8111156142d857600080fd5b6142e489828a0161418b565b979a9699509497509295939492505050565b6000806040838503121561430957600080fd5b823561431481614994565b946020939093013593505050565b60008060006060848603121561433757600080fd5b833561434281614994565b925060208401359150604084013561435981614994565b809150509250925092565b6000806000806080858703121561437a57600080fd5b843561438581614994565b935060208501359250604085013561439c816149a9565b915060608501356143ac81614994565b939692955090935050565b60008060008060008060008060006101208a8c0312156143d657600080fd5b89356143e181614994565b985060208a0135975060408a01356143f8816149a9565b965060608a0135955060808a013561440f81614994565b989b979a50959894979660a0860135965060c08601359560e0810135955061010001359350915050565b60008060006060848603121561444e57600080fd5b833561445981614994565b95602085013595506040909401359392505050565b60006020828403121561448057600080fd5b813561338a816149a9565b60006020828403121561449d57600080fd5b815161338a816149a9565b600080600080608085870312156144be57600080fd5b84356144c981614994565b966020860135965060408601359560600135945092505050565b600080600080600080600087890361018081121561450057600080fd5b6101008082121561451057600080fd5b899850880135905061452181614994565b955061012088013567ffffffffffffffff8082111561453f57600080fd5b61454b8b838c0161413f565b90975095506101408a01359150614561826149a9565b909350610160890135908082111561457857600080fd5b506145858a828b0161413f565b989b979a50959850939692959293505050565b6000602082840312156145aa57600080fd5b5035919050565b6000602082840312156145c357600080fd5b5051919050565b600080600080608085870312156145e057600080fd5b8451935060208501516145f2816149a9565b6040860151909350614603816149a9565b6060959095015193969295505050565b6000806040838503121561462657600080fd5b50508035926020909101359150565b6000806000806080858703121561464b57600080fd5b84359350602085013592506040850135915060608501356143ac81614994565b600080600080600060a0868803121561468357600080fd5b85359450602086013593506040860135925060608601356146a381614994565b915060808601356146b381614994565b809150509295509295909350565b600082516146d3818460208701614921565b9190910192915050565b6001600160a01b039384168152919092166020820152604081019190915260600190565b6001600160a01b0394851681529290931660208301526040820152606081019190915260a06080820181905260009082015260c00190565b6001600160a01b039384168152919092166020820152604081019190915260806060820181905260009082015260a00190565b6001600160a01b039290921682521515602082015260400190565b60208152600082518060208401526147a6816040850160208701614921565b601f01601f19169190910160400192915050565b60208082526027908201527f456e642054696d65206d757374206265206c6172676572207468616e2053746160408201526672742054696d6560c81b606082015260800190565b60208082526017908201527f4e6f742063616c6c61626c652066726f6d20636c6f6e65000000000000000000604082015260600190565b60208082526024908201527f50726f626c656d2077697468206d696e20616e64206d6178207374616b6520736040820152630657475760e41b606082015260800190565b6020808252818101527f4f776e61626c653a2063616c6c6572206973206e6f7420746865206f776e6572604082015260600190565b600082198211156148c4576148c4614968565b500190565b6000826148e657634e487b7160e01b600052601260045260246000fd5b500490565b600081600019048311821515161561490557614905614968565b500290565b60008282101561491c5761491c614968565b500390565b60005b8381101561493c578181015183820152602001614924565b8381111561332d5750506000910152565b600060001982141561496157614961614968565b5060010190565b634e487b7160e01b600052601160045260246000fd5b634e487b7160e01b600052603260045260246000fd5b6001600160a01b03811681146137e457600080fd5b80151581146137e457600080fdfea264697066735822122093bc9f887d8e66b01722f6e341e9919b95b2d61caff999a4fa5a3960cb636ad464736f6c63430008070033",
			"opcodes": "PUSH1 0x80 PUSH1 0x40 MSTORE PUSH1 0xE DUP1 SLOAD PUSH2 0xFFFF NOT AND SWAP1 SSTORE CALLVALUE DUP1 ISZERO PUSH3 0x1C JUMPI PUSH1 0x0 DUP1 REVERT JUMPDEST POP PUSH1 0x40 MLOAD PUSH3 0x4B37 CODESIZE SUB DUP1 PUSH3 0x4B37 DUP4 CODECOPY DUP2 ADD PUSH1 0x40 DUP2 SWAP1 MSTORE PUSH3 0x3F SWAP2 PUSH3 0x108 JUMP JUMPDEST PUSH1 0x0 DUP1 SLOAD PUSH1 0x1 PUSH1 0x1 PUSH1 0xA0 SHL SUB NOT AND PUSH1 0x1 PUSH1 0x1 PUSH1 0xA0 SHL SUB DUP4 AND OR DUP2 SSTORE PUSH3 0x62 CALLER SWAP1 JUMP JUMPDEST PUSH1 0x3 DUP1 SLOAD PUSH1 0x1 PUSH1 0x1 PUSH1 0xA0 SHL SUB NOT AND PUSH1 0x1 PUSH1 0x1 PUSH1 0xA0 SHL SUB DUP4 AND SWAP1 DUP2 OR SWAP1 SWAP2 SSTORE PUSH1 0x40 MLOAD SWAP2 SWAP3 POP SWAP1 PUSH1 0x0 SWAP1 PUSH32 0x8BE0079C531659141344CD1FD0A4F28419497F9722A3DAAFE3B4186F6B6457E0 SWAP1 DUP3 SWAP1 LOG3 POP PUSH1 0xE DUP1 SLOAD PUSH2 0x100 PUSH2 0xFF00 NOT SWAP1 SWAP2 AND OR SWAP1 SSTORE PUSH3 0xD7 PUSH3 0x104 PUSH1 0x20 SWAP1 DUP2 SHL PUSH3 0x3629 OR SWAP1 SHR JUMP JUMPDEST PUSH1 0xE PUSH1 0x2 PUSH2 0x100 EXP DUP2 SLOAD DUP2 PUSH1 0x1 PUSH1 0x1 PUSH1 0xA0 SHL SUB MUL NOT AND SWAP1 DUP4 PUSH1 0x1 PUSH1 0x1 PUSH1 0xA0 SHL SUB AND MUL OR SWAP1 SSTORE POP POP PUSH3 0x13A JUMP JUMPDEST CALLER SWAP1 JUMP JUMPDEST PUSH1 0x0 PUSH1 0x20 DUP3 DUP5 SUB SLT ISZERO PUSH3 0x11B JUMPI PUSH1 0x0 DUP1 REVERT JUMPDEST DUP2 MLOAD PUSH1 0x1 PUSH1 0x1 PUSH1 0xA0 SHL SUB DUP2 AND DUP2 EQ PUSH3 0x133 JUMPI PUSH1 0x0 DUP1 REVERT JUMPDEST SWAP4 SWAP3 POP POP POP JUMP JUMPDEST PUSH2 0x49ED DUP1 PUSH3 0x14A PUSH1 0x0 CODECOPY PUSH1 0x0 RETURN INVALID PUSH1 0x80 PUSH1 0x40 MSTORE CALLVALUE DUP1 ISZERO PUSH2 0x10 JUMPI PUSH1 0x0 DUP1 REVERT JUMPDEST POP PUSH1 0x4 CALLDATASIZE LT PUSH2 0x247 JUMPI PUSH1 0x0 CALLDATALOAD PUSH1 0xE0 SHR DUP1 PUSH4 0x62E3EFDD GT PUSH2 0x13B JUMPI DUP1 PUSH4 0xB4242463 GT PUSH2 0xB8 JUMPI DUP1 PUSH4 0xEF0A8F6B GT PUSH2 0x7C JUMPI DUP1 PUSH4 0xEF0A8F6B EQ PUSH2 0x651 JUMPI DUP1 PUSH4 0xF23A6E61 EQ PUSH2 0x664 JUMPI DUP1 PUSH4 0xF2B9FDB8 EQ PUSH2 0x677 JUMPI DUP1 PUSH4 0xF2FDE38B EQ PUSH2 0x6B0 JUMPI DUP1 PUSH4 0xFC0C546A EQ PUSH2 0x6C3 JUMPI PUSH1 0x0 DUP1 REVERT JUMPDEST DUP1 PUSH4 0xB4242463 EQ PUSH2 0x5E1 JUMPI DUP1 PUSH4 0xBB702C8E EQ PUSH2 0x61A JUMPI DUP1 PUSH4 0xCDD7B1FD EQ PUSH2 0x622 JUMPI DUP1 PUSH4 0xCF77DE92 EQ PUSH2 0x635 JUMPI DUP1 PUSH4 0xEA1B28E0 EQ PUSH2 0x648 JUMPI PUSH1 0x0 DUP1 REVERT JUMPDEST DUP1 PUSH4 0x9AE697BF GT PUSH2 0xFF JUMPI DUP1 PUSH4 0x9AE697BF EQ PUSH2 0x4A1 JUMPI DUP1 PUSH4 0x9FB37393 EQ PUSH2 0x4C1 JUMPI DUP1 PUSH4 0xA59AC6DD EQ PUSH2 0x5B2 JUMPI DUP1 PUSH4 0xA694FC3A EQ PUSH2 0x5C5 JUMPI DUP1 PUSH4 0xB19C79DA EQ PUSH2 0x5D8 JUMPI PUSH1 0x0 DUP1 REVERT JUMPDEST DUP1 PUSH4 0x62E3EFDD EQ PUSH2 0x458 JUMPI DUP1 PUSH4 0x7639C548 EQ PUSH2 0x46B JUMPI DUP1 PUSH4 0x7B0A47EE EQ PUSH2 0x474 JUMPI DUP1 PUSH4 0x8DA5CB5B EQ PUSH2 0x47D JUMPI DUP1 PUSH4 0x909B30F1 EQ PUSH2 0x48E JUMPI PUSH1 0x0 DUP1 REVERT JUMPDEST DUP1 PUSH4 0x2A599D94 GT PUSH2 0x1C9 JUMPI DUP1 PUSH4 0x375B3C0A GT PUSH2 0x18D JUMPI DUP1 PUSH4 0x375B3C0A EQ PUSH2 0x3F6 JUMPI DUP1 PUSH4 0x3D33019B EQ PUSH2 0x3FF JUMPI DUP1 PUSH4 0x48E6CBE1 EQ PUSH2 0x412 JUMPI DUP1 PUSH4 0x4B217129 EQ PUSH2 0x425 JUMPI DUP1 PUSH4 0x4BA43F82 EQ PUSH2 0x445 JUMPI PUSH1 0x0 DUP1 REVERT JUMPDEST DUP1 PUSH4 0x2A599D94 EQ PUSH2 0x37E JUMPI DUP1 PUSH4 0x2CE9AEAD EQ PUSH2 0x390 JUMPI DUP1 PUSH4 0x2E1A7D4D EQ PUSH2 0x3B0 JUMPI DUP1 PUSH4 0x358B8166 EQ PUSH2 0x3C3 JUMPI DUP1 PUSH4 0x3606B522 EQ PUSH2 0x3E3 JUMPI PUSH1 0x0 DUP1 REVERT JUMPDEST DUP1 PUSH4 0x150B7A02 GT PUSH2 0x210 JUMPI DUP1 PUSH4 0x150B7A02 EQ PUSH2 0x2FB JUMPI DUP1 PUSH4 0x1569351A EQ PUSH2 0x327 JUMPI DUP1 PUSH4 0x18160DDD EQ PUSH2 0x350 JUMPI DUP1 PUSH4 0x1E9A6950 EQ PUSH2 0x358 JUMPI DUP1 PUSH4 0x27C6E65D EQ PUSH2 0x36B JUMPI PUSH1 0x0 DUP1 REVERT JUMPDEST DUP1 PUSH3 0x8CC262 EQ PUSH2 0x24C JUMPI DUP1 PUSH4 0x15BDE89 EQ PUSH2 0x272 JUMPI DUP1 PUSH4 0x3BCC72D EQ PUSH2 0x2A3 JUMPI DUP1 PUSH4 0x5F16BB9 EQ PUSH2 0x2C0 JUMPI DUP1 PUSH4 0xDA27295 EQ PUSH2 0x2CA JUMPI JUMPDEST PUSH1 0x0 DUP1 REVERT JUMPDEST PUSH2 0x25F PUSH2 0x25A CALLDATASIZE PUSH1 0x4 PUSH2 0x41CD JUMP JUMPDEST PUSH2 0x6D6 JUMP JUMPDEST PUSH1 0x40 MLOAD SWAP1 DUP2 MSTORE PUSH1 0x20 ADD JUMPDEST PUSH1 0x40 MLOAD DUP1 SWAP2 SUB SWAP1 RETURN JUMPDEST PUSH1 0xE SLOAD PUSH2 0x28B SWAP1 PUSH3 0x10000 SWAP1 DIV PUSH1 0x1 PUSH1 0x1 PUSH1 0xA0 SHL SUB AND DUP2 JUMP JUMPDEST PUSH1 0x40 MLOAD PUSH1 0x1 PUSH1 0x1 PUSH1 0xA0 SHL SUB SWAP1 SWAP2 AND DUP2 MSTORE PUSH1 0x20 ADD PUSH2 0x269 JUMP JUMPDEST PUSH1 0xE SLOAD PUSH2 0x2B0 SWAP1 PUSH1 0xFF AND DUP2 JUMP JUMPDEST PUSH1 0x40 MLOAD SWAP1 ISZERO ISZERO DUP2 MSTORE PUSH1 0x20 ADD PUSH2 0x269 JUMP JUMPDEST PUSH2 0x2C8 PUSH2 0x70A JUMP JUMPDEST STOP JUMPDEST PUSH2 0x25F PUSH2 0x2D8 CALLDATASIZE PUSH1 0x4 PUSH2 0x4322 JUMP JUMPDEST PUSH1 0xD PUSH1 0x20 SWAP1 DUP2 MSTORE PUSH1 0x0 SWAP4 DUP5 MSTORE PUSH1 0x40 DUP1 DUP6 KECCAK256 DUP3 MSTORE SWAP3 DUP5 MSTORE DUP3 DUP5 KECCAK256 SWAP1 MSTORE DUP3 MSTORE SWAP1 KECCAK256 SLOAD DUP2 JUMP JUMPDEST PUSH2 0x30E PUSH2 0x309 CALLDATASIZE PUSH1 0x4 PUSH2 0x4207 JUMP JUMPDEST PUSH2 0x76F JUMP JUMPDEST PUSH1 0x40 MLOAD PUSH1 0x1 PUSH1 0x1 PUSH1 0xE0 SHL SUB NOT SWAP1 SWAP2 AND DUP2 MSTORE PUSH1 0x20 ADD PUSH2 0x269 JUMP JUMPDEST PUSH2 0x25F PUSH2 0x335 CALLDATASIZE PUSH1 0x4 PUSH2 0x41CD JUMP JUMPDEST PUSH1 0x1 PUSH1 0x1 PUSH1 0xA0 SHL SUB AND PUSH1 0x0 SWAP1 DUP2 MSTORE PUSH1 0xB PUSH1 0x20 MSTORE PUSH1 0x40 SWAP1 KECCAK256 SLOAD SWAP1 JUMP JUMPDEST PUSH1 0x1 SLOAD PUSH2 0x25F JUMP JUMPDEST PUSH2 0x2C8 PUSH2 0x366 CALLDATASIZE PUSH1 0x4 PUSH2 0x42F6 JUMP JUMPDEST PUSH2 0x79D JUMP JUMPDEST PUSH2 0x2C8 PUSH2 0x379 CALLDATASIZE PUSH1 0x4 PUSH2 0x4364 JUMP JUMPDEST PUSH2 0xCF6 JUMP JUMPDEST PUSH1 0xE SLOAD PUSH2 0x2B0 SWAP1 PUSH2 0x100 SWAP1 DIV PUSH1 0xFF AND DUP2 JUMP JUMPDEST PUSH2 0x25F PUSH2 0x39E CALLDATASIZE PUSH1 0x4 PUSH2 0x41CD JUMP JUMPDEST PUSH1 0x4 PUSH1 0x20 MSTORE PUSH1 0x0 SWAP1 DUP2 MSTORE PUSH1 0x40 SWAP1 KECCAK256 SLOAD DUP2 JUMP JUMPDEST PUSH2 0x2C8 PUSH2 0x3BE CALLDATASIZE PUSH1 0x4 PUSH2 0x4598 JUMP JUMPDEST PUSH2 0x1331 JUMP JUMPDEST PUSH2 0x25F PUSH2 0x3D1 CALLDATASIZE PUSH1 0x4 PUSH2 0x41CD JUMP JUMPDEST PUSH1 0x5 PUSH1 0x20 MSTORE PUSH1 0x0 SWAP1 DUP2 MSTORE PUSH1 0x40 SWAP1 KECCAK256 SLOAD DUP2 JUMP JUMPDEST PUSH2 0x2C8 PUSH2 0x3F1 CALLDATASIZE PUSH1 0x4 PUSH2 0x43B7 JUMP JUMPDEST PUSH2 0x160F JUMP JUMPDEST PUSH2 0x25F PUSH1 0xF SLOAD DUP2 JUMP JUMPDEST PUSH2 0x2C8 PUSH2 0x40D CALLDATASIZE PUSH1 0x4 PUSH2 0x466B JUMP JUMPDEST PUSH2 0x1F49 JUMP JUMPDEST PUSH2 0x2C8 PUSH2 0x420 CALLDATASIZE PUSH1 0x4 PUSH2 0x4613 JUMP JUMPDEST PUSH2 0x2107 JUMP JUMPDEST PUSH2 0x25F PUSH2 0x433 CALLDATASIZE PUSH1 0x4 PUSH2 0x41CD JUMP JUMPDEST PUSH1 0x7 PUSH1 0x20 MSTORE PUSH1 0x0 SWAP1 DUP2 MSTORE PUSH1 0x40 SWAP1 KECCAK256 SLOAD DUP2 JUMP JUMPDEST PUSH2 0x2C8 PUSH2 0x453 CALLDATASIZE PUSH1 0x4 PUSH2 0x44E3 JUMP JUMPDEST PUSH2 0x21C5 JUMP JUMPDEST PUSH2 0x25F PUSH2 0x466 CALLDATASIZE PUSH1 0x4 PUSH2 0x41CD JUMP JUMPDEST PUSH2 0x25C2 JUMP JUMPDEST PUSH2 0x25F PUSH1 0x9 SLOAD DUP2 JUMP JUMPDEST PUSH2 0x25F PUSH1 0x11 SLOAD DUP2 JUMP JUMPDEST PUSH1 0x3 SLOAD PUSH1 0x1 PUSH1 0x1 PUSH1 0xA0 SHL SUB AND PUSH2 0x28B JUMP JUMPDEST PUSH2 0x28B PUSH2 0x49C CALLDATASIZE PUSH1 0x4 PUSH2 0x42F6 JUMP JUMPDEST PUSH2 0x25DD JUMP JUMPDEST PUSH2 0x25F PUSH2 0x4AF CALLDATASIZE PUSH1 0x4 PUSH2 0x41CD JUMP JUMPDEST PUSH1 0x6 PUSH1 0x20 MSTORE PUSH1 0x0 SWAP1 DUP2 MSTORE PUSH1 0x40 SWAP1 KECCAK256 SLOAD DUP2 JUMP JUMPDEST PUSH2 0x548 PUSH2 0x4CF CALLDATASIZE PUSH1 0x4 PUSH2 0x42F6 JUMP JUMPDEST PUSH1 0xA PUSH1 0x20 SWAP1 DUP2 MSTORE PUSH1 0x0 SWAP3 DUP4 MSTORE PUSH1 0x40 DUP1 DUP5 KECCAK256 SWAP1 SWAP2 MSTORE SWAP1 DUP3 MSTORE SWAP1 KECCAK256 DUP1 SLOAD PUSH1 0x1 DUP3 ADD SLOAD PUSH1 0x2 DUP4 ADD SLOAD PUSH1 0x3 DUP5 ADD SLOAD PUSH1 0x4 DUP6 ADD SLOAD PUSH1 0x5 DUP7 ADD SLOAD PUSH1 0x6 DUP8 ADD SLOAD PUSH1 0x7 DUP9 ADD SLOAD PUSH1 0x8 SWAP1 SWAP9 ADD SLOAD PUSH1 0xFF SWAP8 DUP9 AND SWAP9 SWAP7 SWAP8 SWAP6 SWAP7 SWAP5 SWAP6 SWAP4 SWAP5 SWAP3 SWAP4 PUSH1 0x1 PUSH1 0x1 PUSH1 0xA0 SHL SUB DUP1 DUP5 AND SWAP5 PUSH1 0x1 PUSH1 0xA0 SHL DUP6 DIV DUP4 AND SWAP5 PUSH1 0x1 PUSH1 0xA8 SHL SWAP1 DIV SWAP1 SWAP3 AND SWAP3 AND DUP12 JUMP JUMPDEST PUSH1 0x40 DUP1 MLOAD SWAP12 ISZERO ISZERO DUP13 MSTORE PUSH1 0x20 DUP13 ADD SWAP11 SWAP1 SWAP11 MSTORE SWAP9 DUP11 ADD SWAP8 SWAP1 SWAP8 MSTORE PUSH1 0x60 DUP10 ADD SWAP6 SWAP1 SWAP6 MSTORE PUSH1 0x80 DUP9 ADD SWAP4 SWAP1 SWAP4 MSTORE PUSH1 0xA0 DUP8 ADD SWAP2 SWAP1 SWAP2 MSTORE PUSH1 0x1 PUSH1 0x1 PUSH1 0xA0 SHL SUB SWAP1 DUP2 AND PUSH1 0xC0 DUP8 ADD MSTORE SWAP1 ISZERO ISZERO PUSH1 0xE0 DUP7 ADD MSTORE SWAP1 ISZERO ISZERO PUSH2 0x100 DUP6 ADD MSTORE PUSH2 0x120 DUP5 ADD SWAP2 SWAP1 SWAP2 MSTORE AND PUSH2 0x140 DUP3 ADD MSTORE PUSH2 0x160 ADD PUSH2 0x269 JUMP JUMPDEST PUSH2 0x2C8 PUSH2 0x5C0 CALLDATASIZE PUSH1 0x4 PUSH2 0x4439 JUMP JUMPDEST PUSH2 0x2615 JUMP JUMPDEST PUSH2 0x2C8 PUSH2 0x5D3 CALLDATASIZE PUSH1 0x4 PUSH2 0x4598 JUMP JUMPDEST PUSH2 0x2CBC JUMP JUMPDEST PUSH2 0x25F PUSH1 0x8 SLOAD DUP2 JUMP JUMPDEST PUSH2 0x5F4 PUSH2 0x5EF CALLDATASIZE PUSH1 0x4 PUSH2 0x42F6 JUMP JUMPDEST PUSH2 0x2EF7 JUMP JUMPDEST PUSH1 0x40 DUP1 MLOAD SWAP5 DUP6 MSTORE SWAP3 ISZERO ISZERO PUSH1 0x20 DUP6 ADD MSTORE SWAP1 ISZERO ISZERO SWAP2 DUP4 ADD SWAP2 SWAP1 SWAP2 MSTORE PUSH1 0x60 DUP3 ADD MSTORE PUSH1 0x80 ADD PUSH2 0x269 JUMP JUMPDEST PUSH2 0x2C8 PUSH2 0x31FA JUMP JUMPDEST PUSH2 0x2C8 PUSH2 0x630 CALLDATASIZE PUSH1 0x4 PUSH2 0x4635 JUMP JUMPDEST PUSH2 0x3232 JUMP JUMPDEST PUSH2 0x25F PUSH2 0x643 CALLDATASIZE PUSH1 0x4 PUSH2 0x41CD JUMP JUMPDEST PUSH2 0x3333 JUMP JUMPDEST PUSH2 0x25F PUSH1 0x10 SLOAD DUP2 JUMP JUMPDEST PUSH2 0x2C8 PUSH2 0x65F CALLDATASIZE PUSH1 0x4 PUSH2 0x44A8 JUMP JUMPDEST PUSH2 0x3391 JUMP JUMPDEST PUSH2 0x30E PUSH2 0x672 CALLDATASIZE PUSH1 0x4 PUSH2 0x427A JUMP JUMPDEST PUSH2 0x350F JUMP JUMPDEST PUSH2 0x25F PUSH2 0x685 CALLDATASIZE PUSH1 0x4 PUSH2 0x42F6 JUMP JUMPDEST PUSH1 0x1 PUSH1 0x1 PUSH1 0xA0 SHL SUB SWAP2 SWAP1 SWAP2 AND PUSH1 0x0 SWAP1 DUP2 MSTORE PUSH1 0xA PUSH1 0x20 SWAP1 DUP2 MSTORE PUSH1 0x40 DUP1 DUP4 KECCAK256 SWAP4 DUP4 MSTORE SWAP3 SWAP1 MSTORE KECCAK256 PUSH1 0x5 ADD SLOAD SWAP1 JUMP JUMPDEST PUSH2 0x2C8 PUSH2 0x6BE CALLDATASIZE PUSH1 0x4 PUSH2 0x41CD JUMP JUMPDEST PUSH2 0x353E JUMP JUMPDEST PUSH1 0x0 SLOAD PUSH2 0x28B SWAP1 PUSH1 0x1 PUSH1 0x1 PUSH1 0xA0 SHL SUB AND DUP2 JUMP JUMPDEST PUSH1 0x0 PUSH2 0x6E1 DUP3 PUSH2 0x3333 JUMP JUMPDEST PUSH1 0x1 PUSH1 0x1 PUSH1 0xA0 SHL SUB DUP4 AND PUSH1 0x0 SWAP1 DUP2 MSTORE PUSH1 0x5 PUSH1 0x20 MSTORE PUSH1 0x40 SWAP1 KECCAK256 SLOAD PUSH2 0x704 SWAP2 SWAP1 PUSH2 0x48B1 JUMP JUMPDEST SWAP3 SWAP2 POP POP JUMP JUMPDEST PUSH1 0x3 SLOAD PUSH1 0x1 PUSH1 0x1 PUSH1 0xA0 SHL SUB AND CALLER EQ PUSH2 0x73D JUMPI PUSH1 0x40 MLOAD PUSH3 0x461BCD PUSH1 0xE5 SHL DUP2 MSTORE PUSH1 0x4 ADD PUSH2 0x734 SWAP1 PUSH2 0x487C JUMP JUMPDEST PUSH1 0x40 MLOAD DUP1 SWAP2 SUB SWAP1 REVERT JUMPDEST PUSH1 0xE SLOAD PUSH1 0xFF AND ISZERO PUSH2 0x760 JUMPI PUSH1 0x40 MLOAD PUSH3 0x461BCD PUSH1 0xE5 SHL DUP2 MSTORE PUSH1 0x4 ADD PUSH2 0x734 SWAP1 PUSH2 0x4801 JUMP JUMPDEST PUSH1 0xE DUP1 SLOAD PUSH1 0xFF NOT AND PUSH1 0x1 OR SWAP1 SSTORE JUMP JUMPDEST PUSH1 0x0 PUSH1 0x1 PUSH1 0x1 PUSH1 0xA0 SHL SUB DUP7 AND ADDRESS EQ ISZERO PUSH2 0x790 JUMPI POP PUSH4 0xA85BD01 PUSH1 0xE1 SHL PUSH2 0x794 JUMP JUMPDEST POP PUSH1 0x0 JUMPDEST SWAP6 SWAP5 POP POP POP POP POP JUMP JUMPDEST CALLER DUP1 ISZERO PUSH2 0x8C6 JUMPI PUSH2 0x7AD DUP2 PUSH2 0x3333 JUMP JUMPDEST PUSH1 0x1 PUSH1 0x1 PUSH1 0xA0 SHL SUB DUP3 AND PUSH1 0x0 SWAP1 DUP2 MSTORE PUSH1 0x5 PUSH1 0x20 MSTORE PUSH1 0x40 SWAP1 KECCAK256 SLOAD PUSH2 0x7D0 SWAP2 SWAP1 PUSH2 0x48B1 JUMP JUMPDEST PUSH1 0x1 PUSH1 0x1 PUSH1 0xA0 SHL SUB DUP3 AND PUSH1 0x0 SWAP1 DUP2 MSTORE PUSH1 0x5 PUSH1 0x20 SWAP1 DUP2 MSTORE PUSH1 0x40 DUP1 DUP4 KECCAK256 SWAP4 SWAP1 SWAP4 SSTORE PUSH1 0x4 DUP2 MSTORE DUP3 DUP3 KECCAK256 TIMESTAMP SWAP1 SSTORE PUSH1 0x7 SWAP1 MSTORE KECCAK256 SLOAD ISZERO DUP1 ISZERO SWAP1 PUSH2 0x830 JUMPI POP PUSH1 0x1 PUSH1 0x1 PUSH1 0xA0 SHL SUB DUP2 AND PUSH1 0x0 SWAP1 DUP2 MSTORE PUSH1 0x7 PUSH1 0x20 SWAP1 DUP2 MSTORE PUSH1 0x40 DUP1 DUP4 KECCAK256 SLOAD PUSH1 0x5 SWAP1 SWAP3 MSTORE SWAP1 SWAP2 KECCAK256 SLOAD LT ISZERO JUMPDEST ISZERO PUSH2 0x8C6 JUMPI PUSH1 0x1 PUSH1 0x1 PUSH1 0xA0 SHL SUB DUP2 AND PUSH1 0x0 SWAP1 DUP2 MSTORE PUSH1 0x7 PUSH1 0x20 SWAP1 DUP2 MSTORE PUSH1 0x40 DUP1 DUP4 KECCAK256 SLOAD PUSH1 0x5 SWAP1 SWAP3 MSTORE DUP3 KECCAK256 DUP1 SLOAD SWAP2 SWAP3 SWAP1 SWAP2 PUSH2 0x869 SWAP1 DUP5 SWAP1 PUSH2 0x490A JUMP JUMPDEST SWAP1 SWAP2 SSTORE POP POP PUSH1 0x1 PUSH1 0x1 PUSH1 0xA0 SHL SUB DUP2 AND PUSH1 0x0 SWAP1 DUP2 MSTORE PUSH1 0x7 PUSH1 0x20 MSTORE PUSH1 0x40 DUP2 KECCAK256 SLOAD PUSH1 0x9 DUP1 SLOAD SWAP2 SWAP3 SWAP1 SWAP2 PUSH2 0x89A SWAP1 DUP5 SWAP1 PUSH2 0x48B1 JUMP JUMPDEST SWAP1 SWAP2 SSTORE POP POP PUSH1 0x1 PUSH1 0x1 PUSH1 0xA0 SHL SUB DUP2 AND PUSH1 0x0 SWAP1 DUP2 MSTORE PUSH1 0x7 PUSH1 0x20 SWAP1 DUP2 MSTORE PUSH1 0x40 DUP1 DUP4 KECCAK256 DUP4 SWAP1 SSTORE PUSH1 0x6 SWAP1 SWAP2 MSTORE DUP2 KECCAK256 SSTORE JUMPDEST PUSH1 0xE SLOAD PUSH1 0xFF AND PUSH2 0x918 JUMPI PUSH1 0x40 MLOAD PUSH3 0x461BCD PUSH1 0xE5 SHL DUP2 MSTORE PUSH1 0x20 PUSH1 0x4 DUP3 ADD MSTORE PUSH1 0x1C PUSH1 0x24 DUP3 ADD MSTORE PUSH32 0x4E6F742063616C6C61626C6520696E2047656E65736973204661726D00000000 PUSH1 0x44 DUP3 ADD MSTORE PUSH1 0x64 ADD PUSH2 0x734 JUMP JUMPDEST CALLER PUSH1 0x0 SWAP1 DUP2 MSTORE PUSH1 0x7 PUSH1 0x20 SWAP1 DUP2 MSTORE PUSH1 0x40 DUP1 DUP4 KECCAK256 SLOAD PUSH1 0x5 SWAP1 SWAP3 MSTORE SWAP1 SWAP2 KECCAK256 SLOAD LT ISZERO PUSH2 0x9A8 JUMPI PUSH1 0x40 MLOAD PUSH3 0x461BCD PUSH1 0xE5 SHL DUP2 MSTORE PUSH1 0x20 PUSH1 0x4 DUP3 ADD MSTORE PUSH1 0x37 PUSH1 0x24 DUP3 ADD MSTORE PUSH32 0x556E61626C6520746F2068617276657374206F74686572204E465420756E7469 PUSH1 0x44 DUP3 ADD MSTORE PUSH32 0x6C20706169642077686F6C65206465627420706F696E74000000000000000000 PUSH1 0x64 DUP3 ADD MSTORE PUSH1 0x84 ADD PUSH2 0x734 JUMP JUMPDEST PUSH1 0xE SLOAD PUSH1 0x40 MLOAD PUSH4 0xB4242463 PUSH1 0xE0 SHL DUP2 MSTORE PUSH1 0x1 PUSH1 0x1 PUSH1 0xA0 SHL SUB DUP6 DUP2 AND PUSH1 0x4 DUP4 ADD MSTORE PUSH1 0x24 DUP3 ADD DUP6 SWAP1 MSTORE PUSH1 0x0 SWAP3 DUP4 SWAP3 DUP4 SWAP3 DUP4 SWAP3 PUSH3 0x10000 SWAP1 DIV AND SWAP1 PUSH4 0xB4242463 SWAP1 PUSH1 0x44 ADD PUSH1 0x80 PUSH1 0x40 MLOAD DUP1 DUP4 SUB DUP2 PUSH1 0x0 DUP8 DUP1 EXTCODESIZE ISZERO DUP1 ISZERO PUSH2 0xA03 JUMPI PUSH1 0x0 DUP1 REVERT JUMPDEST POP GAS CALL ISZERO DUP1 ISZERO PUSH2 0xA17 JUMPI RETURNDATASIZE PUSH1 0x0 DUP1 RETURNDATACOPY RETURNDATASIZE PUSH1 0x0 REVERT JUMPDEST POP POP POP POP PUSH1 0x40 MLOAD RETURNDATASIZE PUSH1 0x1F NOT PUSH1 0x1F DUP3 ADD AND DUP3 ADD DUP1 PUSH1 0x40 MSTORE POP DUP2 ADD SWAP1 PUSH2 0xA3B SWAP2 SWAP1 PUSH2 0x45CA JUMP JUMPDEST CALLER PUSH1 0x0 SWAP1 DUP2 MSTORE PUSH1 0x5 PUSH1 0x20 MSTORE PUSH1 0x40 SWAP1 KECCAK256 SLOAD SWAP4 SWAP8 POP SWAP2 SWAP6 POP SWAP4 POP SWAP2 POP DUP5 GT PUSH2 0xAA6 JUMPI CALLER PUSH1 0x0 SWAP1 DUP2 MSTORE PUSH1 0x5 PUSH1 0x20 MSTORE PUSH1 0x40 SWAP1 KECCAK256 SLOAD PUSH2 0xA76 SWAP1 DUP6 SWAP1 PUSH2 0x490A JUMP JUMPDEST CALLER PUSH1 0x0 SWAP1 DUP2 MSTORE PUSH1 0x5 PUSH1 0x20 MSTORE PUSH1 0x40 DUP2 KECCAK256 SWAP2 SWAP1 SWAP2 SSTORE PUSH1 0x9 DUP1 SLOAD DUP7 SWAP3 SWAP1 PUSH2 0xA9B SWAP1 DUP5 SWAP1 PUSH2 0x48B1 JUMP JUMPDEST SWAP1 SWAP2 SSTORE POP PUSH2 0xBA6 SWAP1 POP JUMP JUMPDEST DUP2 ISZERO PUSH2 0xB50 JUMPI DUP1 PUSH2 0xAB6 CALLER PUSH2 0x25C2 JUMP JUMPDEST LT ISZERO PUSH2 0xB04 JUMPI PUSH1 0x40 MLOAD PUSH3 0x461BCD PUSH1 0xE5 SHL DUP2 MSTORE PUSH1 0x20 PUSH1 0x4 DUP3 ADD MSTORE PUSH1 0x1F PUSH1 0x24 DUP3 ADD MSTORE PUSH32 0x4E6F7420656E6F7567682062616C616E636520746F206265204C6F636B656400 PUSH1 0x44 DUP3 ADD MSTORE PUSH1 0x64 ADD PUSH2 0x734 JUMP JUMPDEST PUSH2 0xB0D CALLER PUSH2 0x25C2 JUMP JUMPDEST CALLER PUSH1 0x0 SWAP1 DUP2 MSTORE PUSH1 0x6 PUSH1 0x20 MSTORE PUSH1 0x40 DUP2 KECCAK256 DUP1 SLOAD SWAP1 SWAP2 SWAP1 PUSH2 0xB2C SWAP1 DUP5 SWAP1 PUSH2 0x48B1 JUMP JUMPDEST SWAP1 SWAP2 SSTORE POP POP CALLER PUSH1 0x0 SWAP1 DUP2 MSTORE PUSH1 0x7 PUSH1 0x20 MSTORE PUSH1 0x40 DUP2 KECCAK256 DUP1 SLOAD DUP7 SWAP3 SWAP1 PUSH2 0xA9B SWAP1 DUP5 SWAP1 PUSH2 0x48B1 JUMP JUMPDEST PUSH1 0x40 MLOAD PUSH3 0x461BCD PUSH1 0xE5 SHL DUP2 MSTORE PUSH1 0x20 PUSH1 0x4 DUP3 ADD MSTORE PUSH1 0x25 PUSH1 0x24 DUP3 ADD MSTORE PUSH32 0x72656465656D233A20506C65617365207761697420666F7220656E6F75676820 PUSH1 0x44 DUP3 ADD MSTORE PUSH5 0x141BDA5B9D PUSH1 0xDA SHL PUSH1 0x64 DUP3 ADD MSTORE PUSH1 0x84 ADD PUSH2 0x734 JUMP JUMPDEST DUP3 ISZERO PUSH2 0xC23 JUMPI PUSH1 0xE SLOAD PUSH1 0x40 MLOAD PUSH4 0x79212195 PUSH1 0xE1 SHL DUP2 MSTORE PUSH1 0x1 PUSH1 0x1 PUSH1 0xA0 SHL SUB DUP1 DUP11 AND SWAP3 PUSH4 0xF242432A SWAP3 PUSH2 0xBEC SWAP3 PUSH3 0x10000 SWAP1 SWAP3 DIV SWAP1 SWAP2 AND SWAP1 CALLER SWAP1 DUP12 SWAP1 PUSH1 0x1 SWAP1 PUSH1 0x4 ADD PUSH2 0x4701 JUMP JUMPDEST PUSH1 0x0 PUSH1 0x40 MLOAD DUP1 DUP4 SUB DUP2 PUSH1 0x0 DUP8 DUP1 EXTCODESIZE ISZERO DUP1 ISZERO PUSH2 0xC06 JUMPI PUSH1 0x0 DUP1 REVERT JUMPDEST POP GAS CALL ISZERO DUP1 ISZERO PUSH2 0xC1A JUMPI RETURNDATASIZE PUSH1 0x0 DUP1 RETURNDATACOPY RETURNDATASIZE PUSH1 0x0 REVERT JUMPDEST POP POP POP POP PUSH2 0xC93 JUMP JUMPDEST PUSH1 0xE SLOAD PUSH1 0x40 MLOAD PUSH4 0x5C46A7EF PUSH1 0xE1 SHL DUP2 MSTORE PUSH1 0x1 PUSH1 0x1 PUSH1 0xA0 SHL SUB DUP1 DUP11 AND SWAP3 PUSH4 0xB88D4FDE SWAP3 PUSH2 0xC60 SWAP3 PUSH3 0x10000 SWAP1 SWAP3 DIV SWAP1 SWAP2 AND SWAP1 CALLER SWAP1 DUP12 SWAP1 PUSH1 0x4 ADD PUSH2 0x4739 JUMP JUMPDEST PUSH1 0x0 PUSH1 0x40 MLOAD DUP1 DUP4 SUB DUP2 PUSH1 0x0 DUP8 DUP1 EXTCODESIZE ISZERO DUP1 ISZERO PUSH2 0xC7A JUMPI PUSH1 0x0 DUP1 REVERT JUMPDEST POP GAS CALL ISZERO DUP1 ISZERO PUSH2 0xC8E JUMPI RETURNDATASIZE PUSH1 0x0 DUP1 RETURNDATACOPY RETURNDATASIZE PUSH1 0x0 REVERT JUMPDEST POP POP POP POP JUMPDEST PUSH2 0xC9F PUSH1 0x1 PUSH1 0x0 PUSH2 0x2173 JUMP JUMPDEST DUP6 DUP8 PUSH1 0x1 PUSH1 0x1 PUSH1 0xA0 SHL SUB AND CALLER PUSH1 0x1 PUSH1 0x1 PUSH1 0xA0 SHL SUB AND PUSH32 0x5CDF07AD0FC222442720B108E3ED4C4640F0FADC2AB2253E66F259A0FEA83480 DUP8 PUSH1 0x40 MLOAD PUSH2 0xCE5 SWAP2 DUP2 MSTORE PUSH1 0x20 ADD SWAP1 JUMP JUMPDEST PUSH1 0x40 MLOAD DUP1 SWAP2 SUB SWAP1 LOG4 POP POP POP POP POP POP POP JUMP JUMPDEST PUSH1 0xE SLOAD DUP2 SWAP1 CALLER SWAP1 PUSH1 0xFF AND ISZERO PUSH2 0xD5C JUMPI PUSH1 0x40 MLOAD PUSH3 0x461BCD PUSH1 0xE5 SHL DUP2 MSTORE PUSH1 0x20 PUSH1 0x4 DUP3 ADD MSTORE PUSH1 0x26 PUSH1 0x24 DUP3 ADD MSTORE PUSH32 0x6F6E6C794368696C644661726D3A204E6F742063616C6C61626C6520696E2043 PUSH1 0x44 DUP3 ADD MSTORE PUSH6 0x3637B732B21 PUSH1 0xD5 SHL PUSH1 0x64 DUP3 ADD MSTORE PUSH1 0x84 ADD PUSH2 0x734 JUMP JUMPDEST PUSH1 0x0 DUP1 JUMPDEST PUSH1 0x1 PUSH1 0x1 PUSH1 0xA0 SHL SUB DUP5 AND PUSH1 0x0 SWAP1 DUP2 MSTORE PUSH1 0xB PUSH1 0x20 MSTORE PUSH1 0x40 SWAP1 KECCAK256 SLOAD DUP2 LT ISZERO PUSH2 0xDE5 JUMPI PUSH1 0x1 PUSH1 0x1 PUSH1 0xA0 SHL SUB DUP5 DUP2 AND PUSH1 0x0 SWAP1 DUP2 MSTORE PUSH1 0xB PUSH1 0x20 MSTORE PUSH1 0x40 SWAP1 KECCAK256 DUP1 SLOAD SWAP2 DUP6 AND SWAP2 DUP4 SWAP1 DUP2 LT PUSH2 0xDAF JUMPI PUSH2 0xDAF PUSH2 0x497E JUMP JUMPDEST PUSH1 0x0 SWAP2 DUP3 MSTORE PUSH1 0x20 SWAP1 SWAP2 KECCAK256 ADD SLOAD PUSH1 0x1 PUSH1 0x1 PUSH1 0xA0 SHL SUB AND EQ ISZERO PUSH2 0xDD3 JUMPI PUSH1 0x1 SWAP2 POP PUSH2 0xDE5 JUMP JUMPDEST DUP1 PUSH2 0xDDD DUP2 PUSH2 0x494D JUMP JUMPDEST SWAP2 POP POP PUSH2 0xD60 JUMP JUMPDEST POP DUP1 PUSH2 0xE46 JUMPI PUSH1 0x40 MLOAD PUSH3 0x461BCD PUSH1 0xE5 SHL DUP2 MSTORE PUSH1 0x20 PUSH1 0x4 DUP3 ADD MSTORE PUSH1 0x2A PUSH1 0x24 DUP3 ADD MSTORE PUSH32 0x4F6E6C79204368696C64204661726D2069732061626C652063616C6C20746869 PUSH1 0x44 DUP3 ADD MSTORE PUSH10 0x3990333AB731BA34B7B7 PUSH1 0xB1 SHL PUSH1 0x64 DUP3 ADD MSTORE PUSH1 0x84 ADD PUSH2 0x734 JUMP JUMPDEST PUSH1 0xE SLOAD PUSH1 0xFF AND ISZERO PUSH2 0xE99 JUMPI PUSH1 0x40 MLOAD PUSH3 0x461BCD PUSH1 0xE5 SHL DUP2 MSTORE PUSH1 0x20 PUSH1 0x4 DUP3 ADD MSTORE PUSH1 0x1B PUSH1 0x24 DUP3 ADD MSTORE PUSH32 0x4E6F742063616C6C61626C6520696E20436C6F6E6564204661726D0000000000 PUSH1 0x44 DUP3 ADD MSTORE PUSH1 0x64 ADD PUSH2 0x734 JUMP JUMPDEST PUSH1 0x1 PUSH1 0x1 PUSH1 0xA0 SHL SUB DUP8 AND PUSH1 0x0 SWAP1 DUP2 MSTORE PUSH1 0xA PUSH1 0x20 SWAP1 DUP2 MSTORE PUSH1 0x40 DUP1 DUP4 KECCAK256 DUP10 DUP5 MSTORE SWAP1 SWAP2 MSTORE SWAP1 KECCAK256 PUSH1 0x6 DUP2 ADD SLOAD PUSH1 0x1 PUSH1 0xA8 SHL SWAP1 DIV PUSH1 0xFF AND ISZERO DUP1 ISZERO PUSH2 0xEE3 JUMPI POP PUSH1 0x8 DUP2 ADD SLOAD PUSH1 0x1 PUSH1 0x1 PUSH1 0xA0 SHL SUB AND ISZERO JUMPDEST ISZERO PUSH2 0xF27 JUMPI PUSH2 0xEF2 DUP9 DUP9 PUSH2 0x362D JUMP JUMPDEST PUSH1 0x6 DUP2 ADD DUP1 SLOAD PUSH1 0xFF PUSH1 0xA8 SHL NOT AND PUSH1 0x1 PUSH1 0xA8 SHL OR SWAP1 SSTORE PUSH1 0x8 DUP2 ADD DUP1 SLOAD PUSH1 0x1 PUSH1 0x1 PUSH1 0xA0 SHL SUB NOT AND CALLER OR SWAP1 SSTORE PUSH1 0x0 PUSH1 0x5 DUP3 ADD SSTORE PUSH2 0x1259 JUMP JUMPDEST DUP6 ISZERO PUSH2 0x10F5 JUMPI PUSH1 0x8 DUP2 ADD SLOAD PUSH1 0x40 MLOAD PUSH3 0x7EEAC7 PUSH1 0xE1 SHL DUP2 MSTORE PUSH1 0x1 PUSH1 0x1 PUSH1 0xA0 SHL SUB SWAP2 DUP3 AND PUSH1 0x4 DUP3 ADD MSTORE PUSH1 0x24 DUP2 ADD DUP10 SWAP1 MSTORE PUSH1 0x0 SWAP2 DUP11 AND SWAP1 PUSH3 0xFDD58E SWAP1 PUSH1 0x44 ADD PUSH1 0x20 PUSH1 0x40 MLOAD DUP1 DUP4 SUB DUP2 DUP7 DUP1 EXTCODESIZE ISZERO DUP1 ISZERO PUSH2 0xF7B JUMPI PUSH1 0x0 DUP1 REVERT JUMPDEST POP GAS STATICCALL ISZERO DUP1 ISZERO PUSH2 0xF8F JUMPI RETURNDATASIZE PUSH1 0x0 DUP1 RETURNDATACOPY RETURNDATASIZE PUSH1 0x0 REVERT JUMPDEST POP POP POP POP PUSH1 0x40 MLOAD RETURNDATASIZE PUSH1 0x1F NOT PUSH1 0x1F DUP3 ADD AND DUP3 ADD DUP1 PUSH1 0x40 MSTORE POP DUP2 ADD SWAP1 PUSH2 0xFB3 SWAP2 SWAP1 PUSH2 0x45B1 JUMP JUMPDEST PUSH1 0x8 DUP4 ADD SLOAD PUSH1 0x40 MLOAD PUSH4 0x79212195 PUSH1 0xE1 SHL DUP2 MSTORE SWAP2 SWAP3 POP PUSH1 0x1 PUSH1 0x1 PUSH1 0xA0 SHL SUB DUP1 DUP13 AND SWAP3 PUSH4 0xF242432A SWAP3 PUSH2 0xFEE SWAP3 AND SWAP1 ADDRESS SWAP1 DUP14 SWAP1 DUP8 SWAP1 PUSH1 0x4 ADD PUSH2 0x4701 JUMP JUMPDEST PUSH1 0x0 PUSH1 0x40 MLOAD DUP1 DUP4 SUB DUP2 PUSH1 0x0 DUP8 DUP1 EXTCODESIZE ISZERO DUP1 ISZERO PUSH2 0x1008 JUMPI PUSH1 0x0 DUP1 REVERT JUMPDEST POP GAS CALL ISZERO DUP1 ISZERO PUSH2 0x101C JUMPI RETURNDATASIZE PUSH1 0x0 DUP1 RETURNDATACOPY RETURNDATASIZE PUSH1 0x0 REVERT JUMPDEST POP POP POP PUSH1 0x8 DUP4 ADD SLOAD PUSH1 0x40 MLOAD PUSH4 0xA22CB465 PUSH1 0xE0 SHL DUP2 MSTORE PUSH1 0x1 PUSH1 0x1 PUSH1 0xA0 SHL SUB DUP1 DUP14 AND SWAP4 POP PUSH4 0xA22CB465 SWAP3 PUSH2 0x1056 SWAP3 SWAP2 AND SWAP1 PUSH1 0x0 SWAP1 PUSH1 0x4 ADD PUSH2 0x476C JUMP JUMPDEST PUSH1 0x0 PUSH1 0x40 MLOAD DUP1 DUP4 SUB DUP2 PUSH1 0x0 DUP8 DUP1 EXTCODESIZE ISZERO DUP1 ISZERO PUSH2 0x1070 JUMPI PUSH1 0x0 DUP1 REVERT JUMPDEST POP GAS CALL ISZERO DUP1 ISZERO PUSH2 0x1084 JUMPI RETURNDATASIZE PUSH1 0x0 DUP1 RETURNDATACOPY RETURNDATASIZE PUSH1 0x0 REVERT JUMPDEST POP POP POP POP PUSH1 0x8 DUP3 ADD SLOAD PUSH1 0x40 MLOAD PUSH4 0x48E6CBE1 PUSH1 0xE0 SHL DUP2 MSTORE PUSH1 0x4 DUP2 ADD DUP4 SWAP1 MSTORE PUSH1 0x0 PUSH1 0x24 DUP3 ADD MSTORE PUSH1 0x1 PUSH1 0x1 PUSH1 0xA0 SHL SUB SWAP1 SWAP2 AND SWAP1 PUSH4 0x48E6CBE1 SWAP1 PUSH1 0x44 ADD PUSH1 0x0 PUSH1 0x40 MLOAD DUP1 DUP4 SUB DUP2 PUSH1 0x0 DUP8 DUP1 EXTCODESIZE ISZERO DUP1 ISZERO PUSH2 0x10D7 JUMPI PUSH1 0x0 DUP1 REVERT JUMPDEST POP GAS CALL ISZERO DUP1 ISZERO PUSH2 0x10EB JUMPI RETURNDATASIZE PUSH1 0x0 DUP1 RETURNDATACOPY RETURNDATASIZE PUSH1 0x0 REVERT JUMPDEST POP POP POP POP POP PUSH2 0x122F JUMP JUMPDEST PUSH1 0x8 DUP2 ADD SLOAD PUSH1 0x40 MLOAD PUSH4 0x5C46A7EF PUSH1 0xE1 SHL DUP2 MSTORE PUSH1 0x1 PUSH1 0x1 PUSH1 0xA0 SHL SUB DUP11 DUP2 AND SWAP3 PUSH4 0xB88D4FDE SWAP3 PUSH2 0x112D SWAP3 SWAP1 SWAP2 AND SWAP1 ADDRESS SWAP1 DUP13 SWAP1 PUSH1 0x4 ADD PUSH2 0x4739 JUMP JUMPDEST PUSH1 0x0 PUSH1 0x40 MLOAD DUP1 DUP4 SUB DUP2 PUSH1 0x0 DUP8 DUP1 EXTCODESIZE ISZERO DUP1 ISZERO PUSH2 0x1147 JUMPI PUSH1 0x0 DUP1 REVERT JUMPDEST POP GAS CALL ISZERO DUP1 ISZERO PUSH2 0x115B JUMPI RETURNDATASIZE PUSH1 0x0 DUP1 RETURNDATACOPY RETURNDATASIZE PUSH1 0x0 REVERT JUMPDEST POP POP POP PUSH1 0x8 DUP3 ADD SLOAD PUSH1 0x40 MLOAD PUSH4 0xA22CB465 PUSH1 0xE0 SHL DUP2 MSTORE PUSH1 0x1 PUSH1 0x1 PUSH1 0xA0 SHL SUB DUP1 DUP13 AND SWAP4 POP PUSH4 0xA22CB465 SWAP3 PUSH2 0x1195 SWAP3 SWAP2 AND SWAP1 PUSH1 0x0 SWAP1 PUSH1 0x4 ADD PUSH2 0x476C JUMP JUMPDEST PUSH1 0x0 PUSH1 0x40 MLOAD DUP1 DUP4 SUB DUP2 PUSH1 0x0 DUP8 DUP1 EXTCODESIZE ISZERO DUP1 ISZERO PUSH2 0x11AF JUMPI PUSH1 0x0 DUP1 REVERT JUMPDEST POP GAS CALL ISZERO DUP1 ISZERO PUSH2 0x11C3 JUMPI RETURNDATASIZE PUSH1 0x0 DUP1 RETURNDATACOPY RETURNDATASIZE PUSH1 0x0 REVERT JUMPDEST POP POP POP POP PUSH1 0x8 DUP2 ADD SLOAD PUSH1 0x40 MLOAD PUSH4 0x48E6CBE1 PUSH1 0xE0 SHL DUP2 MSTORE PUSH1 0x1 PUSH1 0x4 DUP3 ADD MSTORE PUSH1 0x0 PUSH1 0x24 DUP3 ADD MSTORE PUSH1 0x1 PUSH1 0x1 PUSH1 0xA0 SHL SUB SWAP1 SWAP2 AND SWAP1 PUSH4 0x48E6CBE1 SWAP1 PUSH1 0x44 ADD PUSH1 0x0 PUSH1 0x40 MLOAD DUP1 DUP4 SUB DUP2 PUSH1 0x0 DUP8 DUP1 EXTCODESIZE ISZERO DUP1 ISZERO PUSH2 0x1216 JUMPI PUSH1 0x0 DUP1 REVERT JUMPDEST POP GAS CALL ISZERO DUP1 ISZERO PUSH2 0x122A JUMPI RETURNDATASIZE PUSH1 0x0 DUP1 RETURNDATACOPY RETURNDATASIZE PUSH1 0x0 REVERT JUMPDEST POP POP POP POP JUMPDEST PUSH1 0x8 DUP2 ADD DUP1 SLOAD PUSH1 0x1 PUSH1 0x1 PUSH1 0xA0 SHL SUB NOT AND CALLER OR SWAP1 SSTORE PUSH1 0x6 DUP2 ADD DUP1 SLOAD PUSH1 0xFF PUSH1 0xA8 SHL NOT AND PUSH1 0x1 PUSH1 0xA8 SHL OR SWAP1 SSTORE JUMPDEST DUP6 ISZERO PUSH2 0x12C5 JUMPI PUSH1 0x40 MLOAD PUSH4 0xA22CB465 PUSH1 0xE0 SHL DUP2 MSTORE PUSH1 0x1 PUSH1 0x1 PUSH1 0xA0 SHL SUB DUP10 AND SWAP1 PUSH4 0xA22CB465 SWAP1 PUSH2 0x128E SWAP1 CALLER SWAP1 PUSH1 0x1 SWAP1 PUSH1 0x4 ADD PUSH2 0x476C JUMP JUMPDEST PUSH1 0x0 PUSH1 0x40 MLOAD DUP1 DUP4 SUB DUP2 PUSH1 0x0 DUP8 DUP1 EXTCODESIZE ISZERO DUP1 ISZERO PUSH2 0x12A8 JUMPI PUSH1 0x0 DUP1 REVERT JUMPDEST POP GAS CALL ISZERO DUP1 ISZERO PUSH2 0x12BC JUMPI RETURNDATASIZE PUSH1 0x0 DUP1 RETURNDATACOPY RETURNDATASIZE PUSH1 0x0 REVERT JUMPDEST POP POP POP POP PUSH2 0x1327 JUMP JUMPDEST PUSH1 0x40 MLOAD PUSH4 0xA22CB465 PUSH1 0xE0 SHL DUP2 MSTORE PUSH1 0x1 PUSH1 0x1 PUSH1 0xA0 SHL SUB DUP10 AND SWAP1 PUSH4 0xA22CB465 SWAP1 PUSH2 0x12F4 SWAP1 CALLER SWAP1 PUSH1 0x1 SWAP1 PUSH1 0x4 ADD PUSH2 0x476C JUMP JUMPDEST PUSH1 0x0 PUSH1 0x40 MLOAD DUP1 DUP4 SUB DUP2 PUSH1 0x0 DUP8 DUP1 EXTCODESIZE ISZERO DUP1 ISZERO PUSH2 0x130E JUMPI PUSH1 0x0 DUP1 REVERT JUMPDEST POP GAS CALL ISZERO DUP1 ISZERO PUSH2 0x1322 JUMPI RETURNDATASIZE PUSH1 0x0 DUP1 RETURNDATACOPY RETURNDATASIZE PUSH1 0x0 REVERT JUMPDEST POP POP POP POP JUMPDEST POP POP POP POP POP POP POP POP JUMP JUMPDEST CALLER DUP1 ISZERO PUSH2 0x145A JUMPI PUSH2 0x1341 DUP2 PUSH2 0x3333 JUMP JUMPDEST PUSH1 0x1 PUSH1 0x1 PUSH1 0xA0 SHL SUB DUP3 AND PUSH1 0x0 SWAP1 DUP2 MSTORE PUSH1 0x5 PUSH1 0x20 MSTORE PUSH1 0x40 SWAP1 KECCAK256 SLOAD PUSH2 0x1364 SWAP2 SWAP1 PUSH2 0x48B1 JUMP JUMPDEST PUSH1 0x1 PUSH1 0x1 PUSH1 0xA0 SHL SUB DUP3 AND PUSH1 0x0 SWAP1 DUP2 MSTORE PUSH1 0x5 PUSH1 0x20 SWAP1 DUP2 MSTORE PUSH1 0x40 DUP1 DUP4 KECCAK256 SWAP4 SWAP1 SWAP4 SSTORE PUSH1 0x4 DUP2 MSTORE DUP3 DUP3 KECCAK256 TIMESTAMP SWAP1 SSTORE PUSH1 0x7 SWAP1 MSTORE KECCAK256 SLOAD ISZERO DUP1 ISZERO SWAP1 PUSH2 0x13C4 JUMPI POP PUSH1 0x1 PUSH1 0x1 PUSH1 0xA0 SHL SUB DUP2 AND PUSH1 0x0 SWAP1 DUP2 MSTORE PUSH1 0x7 PUSH1 0x20 SWAP1 DUP2 MSTORE PUSH1 0x40 DUP1 DUP4 KECCAK256 SLOAD PUSH1 0x5 SWAP1 SWAP3 MSTORE SWAP1 SWAP2 KECCAK256 SLOAD LT ISZERO JUMPDEST ISZERO PUSH2 0x145A JUMPI PUSH1 0x1 PUSH1 0x1 PUSH1 0xA0 SHL SUB DUP2 AND PUSH1 0x0 SWAP1 DUP2 MSTORE PUSH1 0x7 PUSH1 0x20 SWAP1 DUP2 MSTORE PUSH1 0x40 DUP1 DUP4 KECCAK256 SLOAD PUSH1 0x5 SWAP1 SWAP3 MSTORE DUP3 KECCAK256 DUP1 SLOAD SWAP2 SWAP3 SWAP1 SWAP2 PUSH2 0x13FD SWAP1 DUP5 SWAP1 PUSH2 0x490A JUMP JUMPDEST SWAP1 SWAP2 SSTORE POP POP PUSH1 0x1 PUSH1 0x1 PUSH1 0xA0 SHL SUB DUP2 AND PUSH1 0x0 SWAP1 DUP2 MSTORE PUSH1 0x7 PUSH1 0x20 MSTORE PUSH1 0x40 DUP2 KECCAK256 SLOAD PUSH1 0x9 DUP1 SLOAD SWAP2 SWAP3 SWAP1 SWAP2 PUSH2 0x142E SWAP1 DUP5 SWAP1 PUSH2 0x48B1 JUMP JUMPDEST SWAP1 SWAP2 SSTORE POP POP PUSH1 0x1 PUSH1 0x1 PUSH1 0xA0 SHL SUB DUP2 AND PUSH1 0x0 SWAP1 DUP2 MSTORE PUSH1 0x7 PUSH1 0x20 SWAP1 DUP2 MSTORE PUSH1 0x40 DUP1 DUP4 KECCAK256 DUP4 SWAP1 SSTORE PUSH1 0x6 SWAP1 SWAP2 MSTORE DUP2 KECCAK256 SSTORE JUMPDEST PUSH1 0x0 DUP3 GT PUSH2 0x149E JUMPI PUSH1 0x40 MLOAD PUSH3 0x461BCD PUSH1 0xE5 SHL DUP2 MSTORE PUSH1 0x20 PUSH1 0x4 DUP3 ADD MSTORE PUSH1 0x11 PUSH1 0x24 DUP3 ADD MSTORE PUSH17 0x43616E6E6F74207769746864726177203 PUSH1 0x7C SHL PUSH1 0x44 DUP3 ADD MSTORE PUSH1 0x64 ADD PUSH2 0x734 JUMP JUMPDEST CALLER PUSH1 0x0 SWAP1 DUP2 MSTORE PUSH1 0x7 PUSH1 0x20 SWAP1 DUP2 MSTORE PUSH1 0x40 DUP1 DUP4 KECCAK256 SLOAD PUSH1 0x5 SWAP1 SWAP3 MSTORE SWAP1 SWAP2 KECCAK256 SLOAD GT ISZERO PUSH2 0x157F JUMPI CALLER PUSH1 0x0 DUP2 DUP2 MSTORE PUSH1 0x6 PUSH1 0x20 MSTORE PUSH1 0x40 SWAP1 KECCAK256 SLOAD SWAP1 PUSH2 0x14DA SWAP1 PUSH2 0x25C2 JUMP JUMPDEST PUSH2 0x14E4 SWAP2 SWAP1 PUSH2 0x490A JUMP JUMPDEST DUP3 GT ISZERO PUSH2 0x153D JUMPI PUSH1 0x40 MLOAD PUSH3 0x461BCD PUSH1 0xE5 SHL DUP2 MSTORE PUSH1 0x20 PUSH1 0x4 DUP3 ADD MSTORE PUSH1 0x21 PUSH1 0x24 DUP3 ADD MSTORE PUSH32 0x6F6E6C792061626C6520746F20756E7374616B6520667265652062616C616E63 PUSH1 0x44 DUP3 ADD MSTORE PUSH1 0x65 PUSH1 0xF8 SHL PUSH1 0x64 DUP3 ADD MSTORE PUSH1 0x84 ADD PUSH2 0x734 JUMP JUMPDEST PUSH2 0x1546 DUP3 PUSH2 0x378D JUMP JUMPDEST PUSH1 0x40 MLOAD DUP3 DUP2 MSTORE CALLER SWAP1 PUSH32 0x7084F5476618D8E60B11EF0D7D3F06914655ADB8793E28FF7F018D4C76D505D5 SWAP1 PUSH1 0x20 ADD PUSH1 0x40 MLOAD DUP1 SWAP2 SUB SWAP1 LOG2 POP POP JUMP JUMPDEST CALLER PUSH1 0x0 DUP2 DUP2 MSTORE PUSH1 0x6 PUSH1 0x20 MSTORE PUSH1 0x40 SWAP1 KECCAK256 SLOAD SWAP1 PUSH2 0x1599 SWAP1 PUSH2 0x25C2 JUMP JUMPDEST PUSH2 0x15A3 SWAP2 SWAP1 PUSH2 0x490A JUMP JUMPDEST DUP3 GT PUSH2 0x15B2 JUMPI PUSH2 0x1546 DUP3 PUSH2 0x378D JUMP JUMPDEST PUSH1 0x40 MLOAD PUSH3 0x461BCD PUSH1 0xE5 SHL DUP2 MSTORE PUSH1 0x20 PUSH1 0x4 DUP3 ADD MSTORE PUSH1 0x28 PUSH1 0x24 DUP3 ADD MSTORE PUSH32 0x506C65617365207761697420756E74696C20656E6F75676820706F696E742074 PUSH1 0x44 DUP3 ADD MSTORE PUSH8 0x6F20756E6C6F636B PUSH1 0xC0 SHL PUSH1 0x64 DUP3 ADD MSTORE PUSH1 0x84 ADD PUSH2 0x734 JUMP JUMPDEST POP POP JUMP JUMPDEST PUSH1 0xE SLOAD PUSH1 0xFF AND PUSH2 0x1661 JUMPI PUSH1 0x40 MLOAD PUSH3 0x461BCD PUSH1 0xE5 SHL DUP2 MSTORE PUSH1 0x20 PUSH1 0x4 DUP3 ADD MSTORE PUSH1 0x1C PUSH1 0x24 DUP3 ADD MSTORE PUSH32 0x4E6F742063616C6C61626C6520696E2047656E65736973204661726D00000000 PUSH1 0x44 DUP3 ADD MSTORE PUSH1 0x64 ADD PUSH2 0x734 JUMP JUMPDEST DUP3 ISZERO PUSH2 0x1686 JUMPI DUP4 DUP4 GT PUSH2 0x1686 JUMPI PUSH1 0x40 MLOAD PUSH3 0x461BCD PUSH1 0xE5 SHL DUP2 MSTORE PUSH1 0x4 ADD PUSH2 0x734 SWAP1 PUSH2 0x47BA JUMP JUMPDEST PUSH1 0x64 DUP7 LT PUSH2 0x16D6 JUMPI PUSH1 0x40 MLOAD PUSH3 0x461BCD PUSH1 0xE5 SHL DUP2 MSTORE PUSH1 0x20 PUSH1 0x4 DUP3 ADD MSTORE PUSH1 0x1E PUSH1 0x24 DUP3 ADD MSTORE PUSH32 0x526F79616C6974696573206973204C4152474552207468616E20313030250000 PUSH1 0x44 DUP3 ADD MSTORE PUSH1 0x64 ADD PUSH2 0x734 JUMP JUMPDEST PUSH1 0x0 DUP2 GT PUSH2 0x1726 JUMPI PUSH1 0x40 MLOAD PUSH3 0x461BCD PUSH1 0xE5 SHL DUP2 MSTORE PUSH1 0x20 PUSH1 0x4 DUP3 ADD MSTORE PUSH1 0x1B PUSH1 0x24 DUP3 ADD MSTORE PUSH32 0x53686F70204D6F646520616D6F756E7420697320544F4F204C4F570000000000 PUSH1 0x44 DUP3 ADD MSTORE PUSH1 0x64 ADD PUSH2 0x734 JUMP JUMPDEST DUP7 PUSH2 0x1787 JUMPI PUSH1 0x2 DUP2 LT PUSH2 0x1787 JUMPI PUSH1 0x40 MLOAD PUSH3 0x461BCD PUSH1 0xE5 SHL DUP2 MSTORE PUSH1 0x20 PUSH1 0x4 DUP3 ADD MSTORE PUSH1 0x24 DUP1 DUP3 ADD MSTORE PUSH32 0x7768656E204552433732312C20616D6F756E74206D757374206C657373207468 PUSH1 0x44 DUP3 ADD MSTORE PUSH4 0x30B71019 PUSH1 0xE1 SHL PUSH1 0x64 DUP3 ADD MSTORE PUSH1 0x84 ADD PUSH2 0x734 JUMP JUMPDEST PUSH1 0x0 DUP3 GT PUSH2 0x17CA JUMPI PUSH1 0x40 MLOAD PUSH3 0x461BCD PUSH1 0xE5 SHL DUP2 MSTORE PUSH1 0x20 PUSH1 0x4 DUP3 ADD MSTORE PUSH1 0x10 PUSH1 0x24 DUP3 ADD MSTORE PUSH16 0x507269636520697320544F4F204C4F57 PUSH1 0x80 SHL PUSH1 0x44 DUP3 ADD MSTORE PUSH1 0x64 ADD PUSH2 0x734 JUMP JUMPDEST PUSH1 0x1 PUSH1 0x1 PUSH1 0xA0 SHL SUB DUP10 DUP2 AND PUSH1 0x0 DUP2 DUP2 MSTORE PUSH1 0xA PUSH1 0x20 SWAP1 DUP2 MSTORE PUSH1 0x40 DUP1 DUP4 KECCAK256 DUP14 DUP5 MSTORE SWAP1 SWAP2 MSTORE SWAP1 DUP2 SWAP1 KECCAK256 PUSH1 0x3 DUP2 ADD DUP9 SWAP1 SSTORE PUSH1 0x4 DUP1 DUP3 ADD DUP9 SWAP1 SSTORE PUSH1 0x2 DUP3 ADD DUP12 SWAP1 SSTORE PUSH1 0x6 DUP3 ADD DUP1 SLOAD DUP4 SLOAD DUP15 ISZERO ISZERO PUSH1 0xFF NOT SWAP1 SWAP2 AND DUP2 OR DUP6 SSTORE PUSH1 0x7 DUP6 ADD DUP11 SWAP1 SSTORE PUSH1 0x1 PUSH2 0xFF01 PUSH1 0xA0 SHL SUB NOT SWAP1 SWAP2 AND DUP13 DUP9 AND OR PUSH1 0x1 PUSH1 0xA8 SHL OR SWAP1 SWAP2 SSTORE PUSH1 0xE SLOAD SWAP4 MLOAD PUSH4 0x27C6E65D PUSH1 0xE0 SHL DUP2 MSTORE SWAP2 DUP3 ADD SWAP5 SWAP1 SWAP5 MSTORE PUSH1 0x24 DUP2 ADD DUP14 SWAP1 MSTORE PUSH1 0x44 DUP2 ADD SWAP4 SWAP1 SWAP4 MSTORE CALLER PUSH1 0x64 DUP5 ADD MSTORE SWAP3 PUSH3 0x10000 SWAP1 SWAP2 DIV AND SWAP1 PUSH4 0x27C6E65D SWAP1 PUSH1 0x84 ADD PUSH1 0x0 PUSH1 0x40 MLOAD DUP1 DUP4 SUB DUP2 PUSH1 0x0 DUP8 DUP1 EXTCODESIZE ISZERO DUP1 ISZERO PUSH2 0x1894 JUMPI PUSH1 0x0 DUP1 REVERT JUMPDEST POP GAS CALL ISZERO DUP1 ISZERO PUSH2 0x18A8 JUMPI RETURNDATASIZE PUSH1 0x0 DUP1 RETURNDATACOPY RETURNDATASIZE PUSH1 0x0 REVERT JUMPDEST POP POP POP POP DUP8 ISZERO PUSH2 0x1D18 JUMPI PUSH1 0xE SLOAD PUSH1 0x40 MLOAD PUSH3 0x7EEAC7 PUSH1 0xE1 SHL DUP2 MSTORE PUSH1 0x1 PUSH1 0x1 PUSH1 0xA0 SHL SUB PUSH3 0x10000 SWAP1 SWAP3 DIV DUP3 AND PUSH1 0x4 DUP3 ADD MSTORE PUSH1 0x24 DUP2 ADD DUP12 SWAP1 MSTORE PUSH1 0x0 SWAP2 DUP13 AND SWAP1 PUSH3 0xFDD58E SWAP1 PUSH1 0x44 ADD PUSH1 0x20 PUSH1 0x40 MLOAD DUP1 DUP4 SUB DUP2 DUP7 DUP1 EXTCODESIZE ISZERO DUP1 ISZERO PUSH2 0x1904 JUMPI PUSH1 0x0 DUP1 REVERT JUMPDEST POP GAS STATICCALL ISZERO DUP1 ISZERO PUSH2 0x1918 JUMPI RETURNDATASIZE PUSH1 0x0 DUP1 RETURNDATACOPY RETURNDATASIZE PUSH1 0x0 REVERT JUMPDEST POP POP POP POP PUSH1 0x40 MLOAD RETURNDATASIZE PUSH1 0x1F NOT PUSH1 0x1F DUP3 ADD AND DUP3 ADD DUP1 PUSH1 0x40 MSTORE POP DUP2 ADD SWAP1 PUSH2 0x193C SWAP2 SWAP1 PUSH2 0x45B1 JUMP JUMPDEST PUSH1 0x40 MLOAD PUSH3 0x7EEAC7 PUSH1 0xE1 SHL DUP2 MSTORE CALLER PUSH1 0x4 DUP3 ADD MSTORE PUSH1 0x24 DUP2 ADD DUP13 SWAP1 MSTORE SWAP1 SWAP2 POP PUSH1 0x0 SWAP1 PUSH1 0x1 PUSH1 0x1 PUSH1 0xA0 SHL SUB DUP14 AND SWAP1 PUSH3 0xFDD58E SWAP1 PUSH1 0x44 ADD PUSH1 0x20 PUSH1 0x40 MLOAD DUP1 DUP4 SUB DUP2 DUP7 DUP1 EXTCODESIZE ISZERO DUP1 ISZERO PUSH2 0x1986 JUMPI PUSH1 0x0 DUP1 REVERT JUMPDEST POP GAS STATICCALL ISZERO DUP1 ISZERO PUSH2 0x199A JUMPI RETURNDATASIZE PUSH1 0x0 DUP1 RETURNDATACOPY RETURNDATASIZE PUSH1 0x0 REVERT JUMPDEST POP POP POP POP PUSH1 0x40 MLOAD RETURNDATASIZE PUSH1 0x1F NOT PUSH1 0x1F DUP3 ADD AND DUP3 ADD DUP1 PUSH1 0x40 MSTORE POP DUP2 ADD SWAP1 PUSH2 0x19BE SWAP2 SWAP1 PUSH2 0x45B1 JUMP JUMPDEST SWAP1 POP DUP2 ISZERO PUSH2 0x1C3E JUMPI DUP4 DUP3 LT ISZERO PUSH2 0x1B2E JUMPI DUP1 PUSH2 0x19D9 DUP4 DUP7 PUSH2 0x490A JUMP JUMPDEST GT ISZERO PUSH2 0x1A43 JUMPI PUSH1 0x40 MLOAD PUSH3 0x461BCD PUSH1 0xE5 SHL DUP2 MSTORE PUSH1 0x20 PUSH1 0x4 DUP3 ADD MSTORE PUSH1 0x33 PUSH1 0x24 DUP3 ADD MSTORE PUSH32 0x436C6F6E65644661726D2361646453686F704D6F64653A20757365722042616C PUSH1 0x44 DUP3 ADD MSTORE PUSH19 0x30B731B29034B9903737BA1032B737BAB3B41 PUSH1 0x6D SHL PUSH1 0x64 DUP3 ADD MSTORE PUSH1 0x84 ADD PUSH2 0x734 JUMP JUMPDEST PUSH1 0x1 PUSH1 0x1 PUSH1 0xA0 SHL SUB DUP13 AND PUSH4 0xF242432A CALLER ADDRESS DUP15 PUSH2 0x1A5F DUP8 DUP11 PUSH2 0x490A JUMP JUMPDEST PUSH1 0x40 MLOAD DUP6 PUSH4 0xFFFFFFFF AND PUSH1 0xE0 SHL DUP2 MSTORE PUSH1 0x4 ADD PUSH2 0x1A7E SWAP5 SWAP4 SWAP3 SWAP2 SWAP1 PUSH2 0x4701 JUMP JUMPDEST PUSH1 0x0 PUSH1 0x40 MLOAD DUP1 DUP4 SUB DUP2 PUSH1 0x0 DUP8 DUP1 EXTCODESIZE ISZERO DUP1 ISZERO PUSH2 0x1A98 JUMPI PUSH1 0x0 DUP1 REVERT JUMPDEST POP GAS CALL ISZERO DUP1 ISZERO PUSH2 0x1AAC JUMPI RETURNDATASIZE PUSH1 0x0 DUP1 RETURNDATACOPY RETURNDATASIZE PUSH1 0x0 REVERT JUMPDEST POP POP POP POP DUP12 PUSH1 0x1 PUSH1 0x1 PUSH1 0xA0 SHL SUB AND PUSH4 0xF242432A PUSH1 0xE PUSH1 0x2 SWAP1 SLOAD SWAP1 PUSH2 0x100 EXP SWAP1 DIV PUSH1 0x1 PUSH1 0x1 PUSH1 0xA0 SHL SUB AND ADDRESS DUP15 DUP7 PUSH1 0x40 MLOAD DUP6 PUSH4 0xFFFFFFFF AND PUSH1 0xE0 SHL DUP2 MSTORE PUSH1 0x4 ADD PUSH2 0x1AF7 SWAP5 SWAP4 SWAP3 SWAP2 SWAP1 PUSH2 0x4701 JUMP JUMPDEST PUSH1 0x0 PUSH1 0x40 MLOAD DUP1 DUP4 SUB DUP2 PUSH1 0x0 DUP8 DUP1 EXTCODESIZE ISZERO DUP1 ISZERO PUSH2 0x1B11 JUMPI PUSH1 0x0 DUP1 REVERT JUMPDEST POP GAS CALL ISZERO DUP1 ISZERO PUSH2 0x1B25 JUMPI RETURNDATASIZE PUSH1 0x0 DUP1 RETURNDATACOPY RETURNDATASIZE PUSH1 0x0 REVERT JUMPDEST POP POP POP POP PUSH2 0x1CA3 JUMP JUMPDEST DUP4 DUP3 GT ISZERO PUSH2 0x1BF7 JUMPI PUSH1 0xE SLOAD PUSH1 0x1 PUSH1 0x1 PUSH1 0xA0 SHL SUB DUP1 DUP15 AND SWAP2 PUSH4 0xF242432A SWAP2 PUSH3 0x10000 SWAP1 SWAP2 DIV AND CALLER DUP15 PUSH2 0x1B5F DUP10 DUP9 PUSH2 0x490A JUMP JUMPDEST PUSH1 0x40 MLOAD DUP6 PUSH4 0xFFFFFFFF AND PUSH1 0xE0 SHL DUP2 MSTORE PUSH1 0x4 ADD PUSH2 0x1B7E SWAP5 SWAP4 SWAP3 SWAP2 SWAP1 PUSH2 0x4701 JUMP JUMPDEST PUSH1 0x0 PUSH1 0x40 MLOAD DUP1 DUP4 SUB DUP2 PUSH1 0x0 DUP8 DUP1 EXTCODESIZE ISZERO DUP1 ISZERO PUSH2 0x1B98 JUMPI PUSH1 0x0 DUP1 REVERT JUMPDEST POP GAS CALL ISZERO DUP1 ISZERO PUSH2 0x1BAC JUMPI RETURNDATASIZE PUSH1 0x0 DUP1 RETURNDATACOPY RETURNDATASIZE PUSH1 0x0 REVERT JUMPDEST POP POP POP POP DUP12 PUSH1 0x1 PUSH1 0x1 PUSH1 0xA0 SHL SUB AND PUSH4 0xF242432A PUSH1 0xE PUSH1 0x2 SWAP1 SLOAD SWAP1 PUSH2 0x100 EXP SWAP1 DIV PUSH1 0x1 PUSH1 0x1 PUSH1 0xA0 SHL SUB AND ADDRESS DUP15 DUP9 PUSH1 0x40 MLOAD DUP6 PUSH4 0xFFFFFFFF AND PUSH1 0xE0 SHL DUP2 MSTORE PUSH1 0x4 ADD PUSH2 0x1AF7 SWAP5 SWAP4 SWAP3 SWAP2 SWAP1 PUSH2 0x4701 JUMP JUMPDEST DUP12 PUSH1 0x1 PUSH1 0x1 PUSH1 0xA0 SHL SUB AND PUSH4 0xF242432A PUSH1 0xE PUSH1 0x2 SWAP1 SLOAD SWAP1 PUSH2 0x100 EXP SWAP1 DIV PUSH1 0x1 PUSH1 0x1 PUSH1 0xA0 SHL SUB AND ADDRESS DUP15 DUP9 PUSH1 0x40 MLOAD DUP6 PUSH4 0xFFFFFFFF AND PUSH1 0xE0 SHL DUP2 MSTORE PUSH1 0x4 ADD PUSH2 0x1AF7 SWAP5 SWAP4 SWAP3 SWAP2 SWAP1 PUSH2 0x4701 JUMP JUMPDEST DUP12 PUSH1 0x1 PUSH1 0x1 PUSH1 0xA0 SHL SUB AND PUSH4 0xF242432A CALLER ADDRESS DUP15 DUP9 PUSH1 0x40 MLOAD DUP6 PUSH4 0xFFFFFFFF AND PUSH1 0xE0 SHL DUP2 MSTORE PUSH1 0x4 ADD PUSH2 0x1C70 SWAP5 SWAP4 SWAP3 SWAP2 SWAP1 PUSH2 0x4701 JUMP JUMPDEST PUSH1 0x0 PUSH1 0x40 MLOAD DUP1 DUP4 SUB DUP2 PUSH1 0x0 DUP8 DUP1 EXTCODESIZE ISZERO DUP1 ISZERO PUSH2 0x1C8A JUMPI PUSH1 0x0 DUP1 REVERT JUMPDEST POP GAS CALL ISZERO DUP1 ISZERO PUSH2 0x1C9E JUMPI RETURNDATASIZE PUSH1 0x0 DUP1 RETURNDATACOPY RETURNDATASIZE PUSH1 0x0 REVERT JUMPDEST POP POP POP POP JUMPDEST PUSH1 0xE SLOAD PUSH1 0x40 MLOAD PUSH4 0xA22CB465 PUSH1 0xE0 SHL DUP2 MSTORE PUSH1 0x1 PUSH1 0x1 PUSH1 0xA0 SHL SUB DUP1 DUP16 AND SWAP3 PUSH4 0xA22CB465 SWAP3 PUSH2 0x1CDF SWAP3 PUSH3 0x10000 SWAP1 SWAP3 DIV SWAP1 SWAP2 AND SWAP1 PUSH1 0x1 SWAP1 PUSH1 0x4 ADD PUSH2 0x476C JUMP JUMPDEST PUSH1 0x0 PUSH1 0x40 MLOAD DUP1 DUP4 SUB DUP2 PUSH1 0x0 DUP8 DUP1 EXTCODESIZE ISZERO DUP1 ISZERO PUSH2 0x1CF9 JUMPI PUSH1 0x0 DUP1 REVERT JUMPDEST POP GAS CALL ISZERO DUP1 ISZERO PUSH2 0x1D0D JUMPI RETURNDATASIZE PUSH1 0x0 DUP1 RETURNDATACOPY RETURNDATASIZE PUSH1 0x0 REVERT JUMPDEST POP POP POP POP POP POP PUSH2 0x1EF2 JUMP JUMPDEST PUSH1 0xE SLOAD PUSH1 0x40 MLOAD PUSH4 0x31A9108F PUSH1 0xE1 SHL DUP2 MSTORE PUSH1 0x4 DUP2 ADD DUP12 SWAP1 MSTORE PUSH1 0x1 PUSH1 0x1 PUSH1 0xA0 SHL SUB PUSH3 0x10000 SWAP1 SWAP3 DIV DUP3 AND SWAP2 DUP13 AND SWAP1 PUSH4 0x6352211E SWAP1 PUSH1 0x24 ADD PUSH1 0x20 PUSH1 0x40 MLOAD DUP1 DUP4 SUB DUP2 DUP7 DUP1 EXTCODESIZE ISZERO DUP1 ISZERO PUSH2 0x1D65 JUMPI PUSH1 0x0 DUP1 REVERT JUMPDEST POP GAS STATICCALL ISZERO DUP1 ISZERO PUSH2 0x1D79 JUMPI RETURNDATASIZE PUSH1 0x0 DUP1 RETURNDATACOPY RETURNDATASIZE PUSH1 0x0 REVERT JUMPDEST POP POP POP POP PUSH1 0x40 MLOAD RETURNDATASIZE PUSH1 0x1F NOT PUSH1 0x1F DUP3 ADD AND DUP3 ADD DUP1 PUSH1 0x40 MSTORE POP DUP2 ADD SWAP1 PUSH2 0x1D9D SWAP2 SWAP1 PUSH2 0x41EA JUMP JUMPDEST PUSH1 0x1 PUSH1 0x1 PUSH1 0xA0 SHL SUB AND EQ ISZERO PUSH2 0x1E20 JUMPI PUSH1 0xE SLOAD PUSH1 0x40 MLOAD PUSH4 0x5C46A7EF PUSH1 0xE1 SHL DUP2 MSTORE PUSH1 0x1 PUSH1 0x1 PUSH1 0xA0 SHL SUB DUP1 DUP14 AND SWAP3 PUSH4 0xB88D4FDE SWAP3 PUSH2 0x1DE9 SWAP3 PUSH3 0x10000 SWAP1 SWAP3 DIV SWAP1 SWAP2 AND SWAP1 ADDRESS SWAP1 DUP15 SWAP1 PUSH1 0x4 ADD PUSH2 0x4739 JUMP JUMPDEST PUSH1 0x0 PUSH1 0x40 MLOAD DUP1 DUP4 SUB DUP2 PUSH1 0x0 DUP8 DUP1 EXTCODESIZE ISZERO DUP1 ISZERO PUSH2 0x1E03 JUMPI PUSH1 0x0 DUP1 REVERT JUMPDEST POP GAS CALL ISZERO DUP1 ISZERO PUSH2 0x1E17 JUMPI RETURNDATASIZE PUSH1 0x0 DUP1 RETURNDATACOPY RETURNDATASIZE PUSH1 0x0 REVERT JUMPDEST POP POP POP POP PUSH2 0x1E83 JUMP JUMPDEST PUSH1 0x40 MLOAD PUSH4 0x5C46A7EF PUSH1 0xE1 SHL DUP2 MSTORE PUSH1 0x1 PUSH1 0x1 PUSH1 0xA0 SHL SUB DUP12 AND SWAP1 PUSH4 0xB88D4FDE SWAP1 PUSH2 0x1E50 SWAP1 CALLER SWAP1 ADDRESS SWAP1 DUP15 SWAP1 PUSH1 0x4 ADD PUSH2 0x4739 JUMP JUMPDEST PUSH1 0x0 PUSH1 0x40 MLOAD DUP1 DUP4 SUB DUP2 PUSH1 0x0 DUP8 DUP1 EXTCODESIZE ISZERO DUP1 ISZERO PUSH2 0x1E6A JUMPI PUSH1 0x0 DUP1 REVERT JUMPDEST POP GAS CALL ISZERO DUP1 ISZERO PUSH2 0x1E7E JUMPI RETURNDATASIZE PUSH1 0x0 DUP1 RETURNDATACOPY RETURNDATASIZE PUSH1 0x0 REVERT JUMPDEST POP POP POP POP JUMPDEST PUSH1 0xE SLOAD PUSH1 0x40 MLOAD PUSH4 0xA22CB465 PUSH1 0xE0 SHL DUP2 MSTORE PUSH1 0x1 PUSH1 0x1 PUSH1 0xA0 SHL SUB DUP1 DUP14 AND SWAP3 PUSH4 0xA22CB465 SWAP3 PUSH2 0x1EBF SWAP3 PUSH3 0x10000 SWAP1 SWAP3 DIV SWAP1 SWAP2 AND SWAP1 PUSH1 0x1 SWAP1 PUSH1 0x4 ADD PUSH2 0x476C JUMP JUMPDEST PUSH1 0x0 PUSH1 0x40 MLOAD DUP1 DUP4 SUB DUP2 PUSH1 0x0 DUP8 DUP1 EXTCODESIZE ISZERO DUP1 ISZERO PUSH2 0x1ED9 JUMPI PUSH1 0x0 DUP1 REVERT JUMPDEST POP GAS CALL ISZERO DUP1 ISZERO PUSH2 0x1EED JUMPI RETURNDATASIZE PUSH1 0x0 DUP1 RETURNDATACOPY RETURNDATASIZE PUSH1 0x0 REVERT JUMPDEST POP POP POP POP JUMPDEST PUSH2 0x1F00 DUP2 PUSH1 0x5 ADD SLOAD DUP4 PUSH2 0x2173 JUMP JUMPDEST PUSH1 0x5 DUP2 ADD DUP3 SWAP1 SSTORE PUSH1 0x40 MLOAD DUP10 SWAP1 PUSH1 0x1 PUSH1 0x1 PUSH1 0xA0 SHL SUB DUP13 AND SWAP1 PUSH32 0xE5F84524C5EE18835D0E2B6ECA5CBCE7F5C942B22801E7B61CEDECC066023550 SWAP1 PUSH1 0x0 SWAP1 LOG3 POP POP POP POP POP POP POP POP POP POP JUMP JUMPDEST PUSH1 0xE SLOAD PUSH1 0xFF AND ISZERO PUSH2 0x1F6C JUMPI PUSH1 0x40 MLOAD PUSH3 0x461BCD PUSH1 0xE5 SHL DUP2 MSTORE PUSH1 0x4 ADD PUSH2 0x734 SWAP1 PUSH2 0x4801 JUMP JUMPDEST PUSH1 0x0 PUSH2 0x1F77 ADDRESS PUSH2 0x37E7 JUMP JUMPDEST PUSH1 0x40 MLOAD PUSH4 0xCDD7B1FD PUSH1 0xE0 SHL DUP2 MSTORE PUSH1 0x4 DUP2 ADD DUP9 SWAP1 MSTORE PUSH1 0x24 DUP2 ADD DUP8 SWAP1 MSTORE PUSH1 0x44 DUP2 ADD DUP7 SWAP1 MSTORE PUSH1 0x1 PUSH1 0x1 PUSH1 0xA0 SHL SUB DUP6 DUP2 AND PUSH1 0x64 DUP4 ADD MSTORE SWAP2 SWAP3 POP SWAP1 DUP3 AND SWAP1 PUSH4 0xCDD7B1FD SWAP1 PUSH1 0x84 ADD PUSH1 0x0 PUSH1 0x40 MLOAD DUP1 DUP4 SUB DUP2 PUSH1 0x0 DUP8 DUP1 EXTCODESIZE ISZERO DUP1 ISZERO PUSH2 0x1FD3 JUMPI PUSH1 0x0 DUP1 REVERT JUMPDEST POP GAS CALL ISZERO DUP1 ISZERO PUSH2 0x1FE7 JUMPI RETURNDATASIZE PUSH1 0x0 DUP1 RETURNDATACOPY RETURNDATASIZE PUSH1 0x0 REVERT JUMPDEST POP POP POP POP DUP1 PUSH1 0x1 PUSH1 0x1 PUSH1 0xA0 SHL SUB AND PUSH4 0x5F16BB9 PUSH1 0x40 MLOAD DUP2 PUSH4 0xFFFFFFFF AND PUSH1 0xE0 SHL DUP2 MSTORE PUSH1 0x4 ADD PUSH1 0x0 PUSH1 0x40 MLOAD DUP1 DUP4 SUB DUP2 PUSH1 0x0 DUP8 DUP1 EXTCODESIZE ISZERO DUP1 ISZERO PUSH2 0x2026 JUMPI PUSH1 0x0 DUP1 REVERT JUMPDEST POP GAS CALL ISZERO DUP1 ISZERO PUSH2 0x203A JUMPI RETURNDATASIZE PUSH1 0x0 DUP1 RETURNDATACOPY RETURNDATASIZE PUSH1 0x0 REVERT JUMPDEST POP POP PUSH1 0x40 MLOAD PUSH4 0xF2FDE38B PUSH1 0xE0 SHL DUP2 MSTORE PUSH1 0x1 PUSH1 0x1 PUSH1 0xA0 SHL SUB DUP6 DUP2 AND PUSH1 0x4 DUP4 ADD MSTORE DUP5 AND SWAP3 POP PUSH4 0xF2FDE38B SWAP2 POP PUSH1 0x24 ADD PUSH1 0x0 PUSH1 0x40 MLOAD DUP1 DUP4 SUB DUP2 PUSH1 0x0 DUP8 DUP1 EXTCODESIZE ISZERO DUP1 ISZERO PUSH2 0x2081 JUMPI PUSH1 0x0 DUP1 REVERT JUMPDEST POP GAS CALL ISZERO DUP1 ISZERO PUSH2 0x2095 JUMPI RETURNDATASIZE PUSH1 0x0 DUP1 RETURNDATACOPY RETURNDATASIZE PUSH1 0x0 REVERT JUMPDEST POP POP POP POP PUSH1 0x1 PUSH1 0x1 PUSH1 0xA0 SHL SUB DUP3 DUP2 AND PUSH1 0x0 DUP2 DUP2 MSTORE PUSH1 0xB PUSH1 0x20 SWAP1 DUP2 MSTORE PUSH1 0x40 DUP1 DUP4 KECCAK256 DUP1 SLOAD PUSH1 0x1 DUP2 ADD DUP3 SSTORE SWAP1 DUP5 MSTORE SWAP2 DUP4 KECCAK256 SWAP1 SWAP2 ADD DUP1 SLOAD PUSH1 0x1 PUSH1 0x1 PUSH1 0xA0 SHL SUB NOT AND SWAP5 DUP7 AND SWAP5 DUP6 OR SWAP1 SSTORE MLOAD PUSH32 0x6BFF9DDD187EF283E9C7726F406AB27BCC3719A41B6BEE3585C7447183CFFCEC SWAP2 SWAP1 LOG3 POP POP POP POP POP POP JUMP JUMPDEST PUSH1 0xE SLOAD PUSH3 0x10000 SWAP1 DIV PUSH1 0x1 PUSH1 0x1 PUSH1 0xA0 SHL SUB AND CALLER EQ PUSH2 0x2173 JUMPI PUSH1 0x40 MLOAD PUSH3 0x461BCD PUSH1 0xE5 SHL DUP2 MSTORE PUSH1 0x20 PUSH1 0x4 DUP3 ADD MSTORE PUSH1 0x24 DUP1 DUP3 ADD MSTORE PUSH32 0x6F6E6C792067656E657369732063616E207570646174652066726F6D206F7574 PUSH1 0x44 DUP3 ADD MSTORE PUSH4 0x73696465 PUSH1 0xE0 SHL PUSH1 0x64 DUP3 ADD MSTORE PUSH1 0x84 ADD PUSH2 0x734 JUMP JUMPDEST DUP2 DUP2 GT ISZERO PUSH2 0x21A1 JUMPI PUSH2 0x2185 DUP3 DUP3 PUSH2 0x490A JUMP JUMPDEST PUSH1 0x8 PUSH1 0x0 DUP3 DUP3 SLOAD PUSH2 0x2196 SWAP2 SWAP1 PUSH2 0x48B1 JUMP JUMPDEST SWAP1 SWAP2 SSTORE POP PUSH2 0x160B SWAP1 POP JUMP JUMPDEST PUSH2 0x21AB DUP2 DUP4 PUSH2 0x490A JUMP JUMPDEST PUSH1 0x8 PUSH1 0x0 DUP3 DUP3 SLOAD PUSH2 0x21BC SWAP2 SWAP1 PUSH2 0x490A JUMP JUMPDEST SWAP1 SWAP2 SSTORE POP POP POP POP JUMP JUMPDEST PUSH1 0xE SLOAD PUSH1 0xFF AND ISZERO PUSH2 0x21E8 JUMPI PUSH1 0x40 MLOAD PUSH3 0x461BCD PUSH1 0xE5 SHL DUP2 MSTORE PUSH1 0x4 ADD PUSH2 0x734 SWAP1 PUSH2 0x4801 JUMP JUMPDEST DUP4 PUSH2 0x2235 JUMPI PUSH1 0x40 MLOAD PUSH3 0x461BCD PUSH1 0xE5 SHL DUP2 MSTORE PUSH1 0x20 PUSH1 0x4 DUP3 ADD MSTORE PUSH1 0x1E PUSH1 0x24 DUP3 ADD MSTORE PUSH32 0x4C697374206F66204661726D206D757374206C61726765207468616E20300000 PUSH1 0x44 DUP3 ADD MSTORE PUSH1 0x64 ADD PUSH2 0x734 JUMP JUMPDEST PUSH2 0x2245 PUSH1 0x60 DUP9 ADD PUSH1 0x40 DUP10 ADD PUSH2 0x446E JUMP JUMPDEST PUSH2 0x2296 JUMPI DUP7 PUSH1 0xE0 ADD CALLDATALOAD PUSH1 0x1 EQ PUSH2 0x2296 JUMPI PUSH1 0x40 MLOAD PUSH3 0x461BCD PUSH1 0xE5 SHL DUP2 MSTORE PUSH1 0x20 PUSH1 0x4 DUP3 ADD MSTORE PUSH1 0x16 PUSH1 0x24 DUP3 ADD MSTORE PUSH22 0x45524337323120737570706C79206973206E6F742031 PUSH1 0x50 SHL PUSH1 0x44 DUP3 ADD MSTORE PUSH1 0x64 ADD PUSH2 0x734 JUMP JUMPDEST PUSH1 0x0 PUSH1 0xA DUP2 PUSH2 0x22A8 PUSH1 0x20 DUP12 ADD DUP12 PUSH2 0x41CD JUMP JUMPDEST PUSH1 0x1 PUSH1 0x1 PUSH1 0xA0 SHL SUB SWAP1 DUP2 AND DUP3 MSTORE PUSH1 0x20 DUP1 DUP4 ADD SWAP4 SWAP1 SWAP4 MSTORE PUSH1 0x40 SWAP2 DUP3 ADD PUSH1 0x0 SWAP1 DUP2 KECCAK256 DUP13 DUP6 ADD CALLDATALOAD DUP3 MSTORE SWAP1 SWAP4 MSTORE SWAP2 DUP2 SWAP1 KECCAK256 PUSH1 0x6 DUP2 ADD DUP1 SLOAD PUSH1 0x1 PUSH1 0x1 PUSH1 0xA0 SHL SUB NOT AND SWAP4 DUP12 AND SWAP4 SWAP1 SWAP4 OR SWAP1 SWAP3 SSTORE SWAP1 SWAP2 POP PUSH2 0x2302 SWAP1 PUSH1 0x60 DUP11 ADD SWAP1 DUP11 ADD PUSH2 0x446E JUMP JUMPDEST DUP2 SLOAD PUSH1 0xFF NOT AND SWAP1 ISZERO ISZERO OR DUP2 SSTORE PUSH1 0x6 DUP2 ADD SLOAD PUSH1 0xFF PUSH1 0x1 PUSH1 0xA8 SHL SWAP1 SWAP2 DIV AND DUP1 ISZERO PUSH2 0x2336 JUMPI POP PUSH1 0x8 DUP2 ADD SLOAD PUSH1 0x1 PUSH1 0x1 PUSH1 0xA0 SHL SUB AND ISZERO ISZERO JUMPDEST ISZERO PUSH2 0x2511 JUMPI PUSH2 0x234B PUSH1 0x60 DUP10 ADD PUSH1 0x40 DUP11 ADD PUSH2 0x446E JUMP JUMPDEST ISZERO PUSH2 0x246D JUMPI PUSH1 0x0 PUSH2 0x235F PUSH1 0x20 DUP11 ADD DUP11 PUSH2 0x41CD JUMP JUMPDEST PUSH1 0x8 DUP4 ADD SLOAD PUSH1 0x40 MLOAD PUSH3 0x7EEAC7 PUSH1 0xE1 SHL DUP2 MSTORE PUSH1 0x1 PUSH1 0x1 PUSH1 0xA0 SHL SUB SWAP2 DUP3 AND PUSH1 0x4 DUP3 ADD MSTORE PUSH1 0x20 DUP13 ADD CALLDATALOAD PUSH1 0x24 DUP3 ADD MSTORE SWAP2 AND SWAP1 PUSH3 0xFDD58E SWAP1 PUSH1 0x44 ADD PUSH1 0x20 PUSH1 0x40 MLOAD DUP1 DUP4 SUB DUP2 DUP7 DUP1 EXTCODESIZE ISZERO DUP1 ISZERO PUSH2 0x23AD JUMPI PUSH1 0x0 DUP1 REVERT JUMPDEST POP GAS STATICCALL ISZERO DUP1 ISZERO PUSH2 0x23C1 JUMPI RETURNDATASIZE PUSH1 0x0 DUP1 RETURNDATACOPY RETURNDATASIZE PUSH1 0x0 REVERT JUMPDEST POP POP POP POP PUSH1 0x40 MLOAD RETURNDATASIZE PUSH1 0x1F NOT PUSH1 0x1F DUP3 ADD AND DUP3 ADD DUP1 PUSH1 0x40 MSTORE POP DUP2 ADD SWAP1 PUSH2 0x23E5 SWAP2 SWAP1 PUSH2 0x45B1 JUMP JUMPDEST SWAP1 POP PUSH2 0x23F4 PUSH1 0x20 DUP11 ADD DUP11 PUSH2 0x41CD JUMP JUMPDEST PUSH1 0x8 DUP4 ADD SLOAD PUSH1 0x40 MLOAD PUSH4 0x79212195 PUSH1 0xE1 SHL DUP2 MSTORE PUSH1 0x1 PUSH1 0x1 PUSH1 0xA0 SHL SUB SWAP3 DUP4 AND SWAP3 PUSH4 0xF242432A SWAP3 PUSH2 0x2431 SWAP3 SWAP2 AND SWAP1 ADDRESS SWAP1 PUSH1 0x20 DUP16 ADD CALLDATALOAD SWAP1 DUP8 SWAP1 PUSH1 0x4 ADD PUSH2 0x4701 JUMP JUMPDEST PUSH1 0x0 PUSH1 0x40 MLOAD DUP1 DUP4 SUB DUP2 PUSH1 0x0 DUP8 DUP1 EXTCODESIZE ISZERO DUP1 ISZERO PUSH2 0x244B JUMPI PUSH1 0x0 DUP1 REVERT JUMPDEST POP GAS CALL ISZERO DUP1 ISZERO PUSH2 0x245F JUMPI RETURNDATASIZE PUSH1 0x0 DUP1 RETURNDATACOPY RETURNDATASIZE PUSH1 0x0 REVERT JUMPDEST POP POP POP POP PUSH1 0x5 DUP3 ADD SSTORE PUSH2 0x24EF JUMP JUMPDEST PUSH2 0x247A PUSH1 0x20 DUP10 ADD DUP10 PUSH2 0x41CD JUMP JUMPDEST PUSH1 0x8 DUP3 ADD SLOAD PUSH1 0x40 MLOAD PUSH4 0x5C46A7EF PUSH1 0xE1 SHL DUP2 MSTORE PUSH1 0x1 PUSH1 0x1 PUSH1 0xA0 SHL SUB SWAP3 DUP4 AND SWAP3 PUSH4 0xB88D4FDE SWAP3 PUSH2 0x24B5 SWAP3 SWAP2 AND SWAP1 ADDRESS SWAP1 PUSH1 0x20 DUP15 ADD CALLDATALOAD SWAP1 PUSH1 0x4 ADD PUSH2 0x4739 JUMP JUMPDEST PUSH1 0x0 PUSH1 0x40 MLOAD DUP1 DUP4 SUB DUP2 PUSH1 0x0 DUP8 DUP1 EXTCODESIZE ISZERO DUP1 ISZERO PUSH2 0x24CF JUMPI PUSH1 0x0 DUP1 REVERT JUMPDEST POP GAS CALL ISZERO DUP1 ISZERO PUSH2 0x24E3 JUMPI RETURNDATASIZE PUSH1 0x0 DUP1 RETURNDATACOPY RETURNDATASIZE PUSH1 0x0 REVERT JUMPDEST POP POP PUSH1 0x1 PUSH1 0x5 DUP5 ADD SSTORE POP POP JUMPDEST PUSH1 0x6 DUP2 ADD DUP1 SLOAD PUSH1 0xFF PUSH1 0xA8 SHL NOT AND SWAP1 SSTORE PUSH1 0x8 DUP2 ADD DUP1 SLOAD PUSH1 0x1 PUSH1 0x1 PUSH1 0xA0 SHL SUB NOT AND SWAP1 SSTORE JUMPDEST PUSH2 0x2544 PUSH2 0x2521 PUSH1 0x20 DUP11 ADD DUP11 PUSH2 0x41CD JUMP JUMPDEST DUP10 PUSH1 0x20 ADD CALLDATALOAD DUP11 PUSH1 0x60 ADD CALLDATALOAD DUP12 PUSH1 0x80 ADD CALLDATALOAD DUP13 PUSH1 0xA0 ADD CALLDATALOAD DUP14 PUSH1 0xC0 ADD CALLDATALOAD DUP15 PUSH1 0xE0 ADD CALLDATALOAD PUSH2 0x3839 JUMP JUMPDEST PUSH2 0x2568 PUSH2 0x2554 PUSH1 0x20 DUP11 ADD DUP11 PUSH2 0x41CD JUMP JUMPDEST DUP10 PUSH1 0x20 ADD CALLDATALOAD DUP11 PUSH1 0xE0 ADD CALLDATALOAD DUP10 DUP10 DUP10 DUP10 DUP10 PUSH2 0x3A0E JUMP JUMPDEST PUSH1 0xE0 DUP9 ADD CALLDATALOAD PUSH1 0x5 DUP3 ADD SSTORE PUSH1 0x20 DUP9 ADD DUP1 CALLDATALOAD SWAP1 PUSH2 0x2583 SWAP1 DUP11 PUSH2 0x41CD JUMP JUMPDEST PUSH1 0x1 PUSH1 0x1 PUSH1 0xA0 SHL SUB AND PUSH32 0xE5F84524C5EE18835D0E2B6ECA5CBCE7F5C942B22801E7B61CEDECC066023550 PUSH1 0x40 MLOAD PUSH1 0x40 MLOAD DUP1 SWAP2 SUB SWAP1 LOG3 POP POP POP POP POP POP POP POP JUMP JUMPDEST PUSH1 0x1 PUSH1 0x1 PUSH1 0xA0 SHL SUB AND PUSH1 0x0 SWAP1 DUP2 MSTORE PUSH1 0x2 PUSH1 0x20 MSTORE PUSH1 0x40 SWAP1 KECCAK256 SLOAD SWAP1 JUMP JUMPDEST PUSH1 0xB PUSH1 0x20 MSTORE DUP2 PUSH1 0x0 MSTORE PUSH1 0x40 PUSH1 0x0 KECCAK256 DUP2 DUP2 SLOAD DUP2 LT PUSH2 0x25F9 JUMPI PUSH1 0x0 DUP1 REVERT JUMPDEST PUSH1 0x0 SWAP2 DUP3 MSTORE PUSH1 0x20 SWAP1 SWAP2 KECCAK256 ADD SLOAD PUSH1 0x1 PUSH1 0x1 PUSH1 0xA0 SHL SUB AND SWAP2 POP DUP3 SWAP1 POP JUMP JUMPDEST PUSH1 0xE SLOAD PUSH1 0xFF AND PUSH2 0x2667 JUMPI PUSH1 0x40 MLOAD PUSH3 0x461BCD PUSH1 0xE5 SHL DUP2 MSTORE PUSH1 0x20 PUSH1 0x4 DUP3 ADD MSTORE PUSH1 0x1A PUSH1 0x24 DUP3 ADD MSTORE PUSH32 0x4275793A204F6E6C792063616C6C2066726F6D20636C6F6E6564000000000000 PUSH1 0x44 DUP3 ADD MSTORE PUSH1 0x64 ADD PUSH2 0x734 JUMP JUMPDEST PUSH1 0x0 DUP2 GT PUSH2 0x26AE JUMPI PUSH1 0x40 MLOAD PUSH3 0x461BCD PUSH1 0xE5 SHL DUP2 MSTORE PUSH1 0x20 PUSH1 0x4 DUP3 ADD MSTORE PUSH1 0x14 PUSH1 0x24 DUP3 ADD MSTORE PUSH20 0x416D6F756E74206D757374206E6F74206265203 PUSH1 0x64 SHL PUSH1 0x44 DUP3 ADD MSTORE PUSH1 0x64 ADD PUSH2 0x734 JUMP JUMPDEST PUSH1 0x1 PUSH1 0x1 PUSH1 0xA0 SHL SUB DUP4 AND PUSH1 0x0 SWAP1 DUP2 MSTORE PUSH1 0xA PUSH1 0x20 SWAP1 DUP2 MSTORE PUSH1 0x40 DUP1 DUP4 KECCAK256 DUP6 DUP5 MSTORE SWAP1 SWAP2 MSTORE SWAP1 KECCAK256 PUSH1 0x7 DUP2 ADD SLOAD ISZERO DUP1 ISZERO SWAP1 PUSH2 0x26EF JUMPI POP PUSH1 0x6 DUP2 ADD SLOAD PUSH1 0x1 PUSH1 0xA8 SHL SWAP1 DIV PUSH1 0xFF AND JUMPDEST DUP1 ISZERO PUSH2 0x26FF JUMPI POP DUP2 DUP2 PUSH1 0x5 ADD SLOAD LT ISZERO JUMPDEST PUSH2 0x274B JUMPI PUSH1 0x40 MLOAD PUSH3 0x461BCD PUSH1 0xE5 SHL DUP2 MSTORE PUSH1 0x20 PUSH1 0x4 DUP3 ADD MSTORE PUSH1 0x1C PUSH1 0x24 DUP3 ADD MSTORE PUSH32 0x4E6F7420617661696C61626C65204E465420666F7220627579696E6700000000 PUSH1 0x44 DUP3 ADD MSTORE PUSH1 0x64 ADD PUSH2 0x734 JUMP JUMPDEST DUP1 PUSH1 0x3 ADD SLOAD TIMESTAMP LT ISZERO PUSH2 0x2792 JUMPI PUSH1 0x40 MLOAD PUSH3 0x461BCD PUSH1 0xE5 SHL DUP2 MSTORE PUSH1 0x20 PUSH1 0x4 DUP3 ADD MSTORE PUSH1 0x10 PUSH1 0x24 DUP3 ADD MSTORE PUSH16 0x10D85C99081B9BDD081CDD185C9D1959 PUSH1 0x82 SHL PUSH1 0x44 DUP3 ADD MSTORE PUSH1 0x64 ADD PUSH2 0x734 JUMP JUMPDEST PUSH1 0x4 DUP2 ADD SLOAD ISZERO PUSH2 0x27E1 JUMPI DUP1 PUSH1 0x4 ADD SLOAD TIMESTAMP GT ISZERO PUSH2 0x27E1 JUMPI PUSH1 0x40 MLOAD PUSH3 0x461BCD PUSH1 0xE5 SHL DUP2 MSTORE PUSH1 0x20 PUSH1 0x4 DUP3 ADD MSTORE PUSH1 0xE PUSH1 0x24 DUP3 ADD MSTORE PUSH14 0x21B0B9321034B99022B73232B21 PUSH1 0x95 SHL PUSH1 0x44 DUP3 ADD MSTORE PUSH1 0x64 ADD PUSH2 0x734 JUMP JUMPDEST DUP1 SLOAD PUSH1 0xFF AND PUSH2 0x2845 JUMPI DUP2 PUSH1 0x1 EQ PUSH2 0x2845 JUMPI PUSH1 0x40 MLOAD PUSH3 0x461BCD PUSH1 0xE5 SHL DUP2 MSTORE PUSH1 0x20 PUSH1 0x4 DUP3 ADD MSTORE PUSH1 0x22 PUSH1 0x24 DUP3 ADD MSTORE PUSH32 0x4E4654206973204552433732312C20736F20616D6F756E74206D757374206265 PUSH1 0x44 DUP3 ADD MSTORE PUSH2 0x2031 PUSH1 0xF0 SHL PUSH1 0x64 DUP3 ADD MSTORE PUSH1 0x84 ADD PUSH2 0x734 JUMP JUMPDEST PUSH1 0x0 DUP1 SLOAD PUSH1 0x40 MLOAD PUSH4 0x70A08231 PUSH1 0xE0 SHL DUP2 MSTORE CALLER PUSH1 0x4 DUP3 ADD MSTORE PUSH1 0x1 PUSH1 0x1 PUSH1 0xA0 SHL SUB SWAP1 SWAP2 AND SWAP1 PUSH4 0x70A08231 SWAP1 PUSH1 0x24 ADD PUSH1 0x20 PUSH1 0x40 MLOAD DUP1 DUP4 SUB DUP2 DUP7 DUP1 EXTCODESIZE ISZERO DUP1 ISZERO PUSH2 0x2889 JUMPI PUSH1 0x0 DUP1 REVERT JUMPDEST POP GAS STATICCALL ISZERO DUP1 ISZERO PUSH2 0x289D JUMPI RETURNDATASIZE PUSH1 0x0 DUP1 RETURNDATACOPY RETURNDATASIZE PUSH1 0x0 REVERT JUMPDEST POP POP POP POP PUSH1 0x40 MLOAD RETURNDATASIZE PUSH1 0x1F NOT PUSH1 0x1F DUP3 ADD AND DUP3 ADD DUP1 PUSH1 0x40 MSTORE POP DUP2 ADD SWAP1 PUSH2 0x28C1 SWAP2 SWAP1 PUSH2 0x45B1 JUMP JUMPDEST SWAP1 POP DUP1 DUP3 PUSH1 0x7 ADD SLOAD DUP5 PUSH2 0x28D4 SWAP2 SWAP1 PUSH2 0x48EB JUMP JUMPDEST GT ISZERO PUSH2 0x2922 JUMPI PUSH1 0x40 MLOAD PUSH3 0x461BCD PUSH1 0xE5 SHL DUP2 MSTORE PUSH1 0x20 PUSH1 0x4 DUP3 ADD MSTORE PUSH1 0x1C PUSH1 0x24 DUP3 ADD MSTORE PUSH32 0x4275793A2057616C6C6574206E6F7420656E6F75676820746F6B656E00000000 PUSH1 0x44 DUP3 ADD MSTORE PUSH1 0x64 ADD PUSH2 0x734 JUMP JUMPDEST PUSH1 0x6 DUP3 ADD SLOAD PUSH1 0x1 PUSH1 0x1 PUSH1 0xA0 SHL SUB AND ISZERO DUP1 ISZERO SWAP1 PUSH2 0x2942 JUMPI POP PUSH1 0x0 DUP3 PUSH1 0x2 ADD SLOAD GT JUMPDEST ISZERO PUSH2 0x2AD3 JUMPI PUSH1 0x0 SLOAD PUSH1 0x1 PUSH1 0x1 PUSH1 0xA0 SHL SUB AND PUSH4 0x23B872DD CALLER PUSH2 0x296B PUSH1 0x3 SLOAD PUSH1 0x1 PUSH1 0x1 PUSH1 0xA0 SHL SUB AND SWAP1 JUMP JUMPDEST PUSH1 0x64 DUP7 PUSH1 0x2 ADD SLOAD PUSH1 0x64 PUSH2 0x297E SWAP2 SWAP1 PUSH2 0x490A JUMP JUMPDEST PUSH1 0x7 DUP9 ADD SLOAD PUSH2 0x298D SWAP1 DUP11 PUSH2 0x48EB JUMP JUMPDEST PUSH2 0x2997 SWAP2 SWAP1 PUSH2 0x48EB JUMP JUMPDEST PUSH2 0x29A1 SWAP2 SWAP1 PUSH2 0x48C9 JUMP JUMPDEST PUSH1 0x40 MLOAD DUP5 PUSH4 0xFFFFFFFF AND PUSH1 0xE0 SHL DUP2 MSTORE PUSH1 0x4 ADD PUSH2 0x29BF SWAP4 SWAP3 SWAP2 SWAP1 PUSH2 0x46DD JUMP JUMPDEST PUSH1 0x20 PUSH1 0x40 MLOAD DUP1 DUP4 SUB DUP2 PUSH1 0x0 DUP8 DUP1 EXTCODESIZE ISZERO DUP1 ISZERO PUSH2 0x29D9 JUMPI PUSH1 0x0 DUP1 REVERT JUMPDEST POP GAS CALL ISZERO DUP1 ISZERO PUSH2 0x29ED JUMPI RETURNDATASIZE PUSH1 0x0 DUP1 RETURNDATACOPY RETURNDATASIZE PUSH1 0x0 REVERT JUMPDEST POP POP POP POP PUSH1 0x40 MLOAD RETURNDATASIZE PUSH1 0x1F NOT PUSH1 0x1F DUP3 ADD AND DUP3 ADD DUP1 PUSH1 0x40 MSTORE POP DUP2 ADD SWAP1 PUSH2 0x2A11 SWAP2 SWAP1 PUSH2 0x448B JUMP JUMPDEST POP PUSH1 0x0 SLOAD PUSH1 0x6 DUP4 ADD SLOAD PUSH1 0x2 DUP5 ADD SLOAD PUSH1 0x7 DUP6 ADD SLOAD PUSH1 0x1 PUSH1 0x1 PUSH1 0xA0 SHL SUB SWAP4 DUP5 AND SWAP4 PUSH4 0x23B872DD SWAP4 CALLER SWAP4 SWAP2 AND SWAP2 PUSH1 0x64 SWAP2 SWAP1 PUSH2 0x2A49 SWAP1 DUP11 PUSH2 0x48EB JUMP JUMPDEST PUSH2 0x2A53 SWAP2 SWAP1 PUSH2 0x48EB JUMP JUMPDEST PUSH2 0x2A5D SWAP2 SWAP1 PUSH2 0x48C9 JUMP JUMPDEST PUSH1 0x40 MLOAD DUP5 PUSH4 0xFFFFFFFF AND PUSH1 0xE0 SHL DUP2 MSTORE PUSH1 0x4 ADD PUSH2 0x2A7B SWAP4 SWAP3 SWAP2 SWAP1 PUSH2 0x46DD JUMP JUMPDEST PUSH1 0x20 PUSH1 0x40 MLOAD DUP1 DUP4 SUB DUP2 PUSH1 0x0 DUP8 DUP1 EXTCODESIZE ISZERO DUP1 ISZERO PUSH2 0x2A95 JUMPI PUSH1 0x0 DUP1 REVERT JUMPDEST POP GAS CALL ISZERO DUP1 ISZERO PUSH2 0x2AA9 JUMPI RETURNDATASIZE PUSH1 0x0 DUP1 RETURNDATACOPY RETURNDATASIZE PUSH1 0x0 REVERT JUMPDEST POP POP POP POP PUSH1 0x40 MLOAD RETURNDATASIZE PUSH1 0x1F NOT PUSH1 0x1F DUP3 ADD AND DUP3 ADD DUP1 PUSH1 0x40 MSTORE POP DUP2 ADD SWAP1 PUSH2 0x2ACD SWAP2 SWAP1 PUSH2 0x448B JUMP JUMPDEST POP PUSH2 0x2B78 JUMP JUMPDEST PUSH1 0x0 SLOAD PUSH1 0x1 PUSH1 0x1 PUSH1 0xA0 SHL SUB AND PUSH4 0x23B872DD CALLER PUSH2 0x2AF7 PUSH1 0x3 SLOAD PUSH1 0x1 PUSH1 0x1 PUSH1 0xA0 SHL SUB AND SWAP1 JUMP JUMPDEST PUSH1 0x7 DUP7 ADD SLOAD PUSH2 0x2B06 SWAP1 DUP9 PUSH2 0x48EB JUMP JUMPDEST PUSH1 0x40 MLOAD DUP5 PUSH4 0xFFFFFFFF AND PUSH1 0xE0 SHL DUP2 MSTORE PUSH1 0x4 ADD PUSH2 0x2B24 SWAP4 SWAP3 SWAP2 SWAP1 PUSH2 0x46DD JUMP JUMPDEST PUSH1 0x20 PUSH1 0x40 MLOAD DUP1 DUP4 SUB DUP2 PUSH1 0x0 DUP8 DUP1 EXTCODESIZE ISZERO DUP1 ISZERO PUSH2 0x2B3E JUMPI PUSH1 0x0 DUP1 REVERT JUMPDEST POP GAS CALL ISZERO DUP1 ISZERO PUSH2 0x2B52 JUMPI RETURNDATASIZE PUSH1 0x0 DUP1 RETURNDATACOPY RETURNDATASIZE PUSH1 0x0 REVERT JUMPDEST POP POP POP POP PUSH1 0x40 MLOAD RETURNDATASIZE PUSH1 0x1F NOT PUSH1 0x1F DUP3 ADD AND DUP3 ADD DUP1 PUSH1 0x40 MSTORE POP DUP2 ADD SWAP1 PUSH2 0x2B76 SWAP2 SWAP1 PUSH2 0x448B JUMP JUMPDEST POP JUMPDEST DUP2 SLOAD PUSH1 0xFF AND ISZERO PUSH2 0x2C1E JUMPI PUSH1 0x40 MLOAD PUSH4 0x79212195 PUSH1 0xE1 SHL DUP2 MSTORE PUSH1 0x1 PUSH1 0x1 PUSH1 0xA0 SHL SUB DUP7 AND SWAP1 PUSH4 0xF242432A SWAP1 PUSH2 0x2BB4 SWAP1 ADDRESS SWAP1 CALLER SWAP1 DUP10 SWAP1 DUP10 SWAP1 PUSH1 0x4 ADD PUSH2 0x4701 JUMP JUMPDEST PUSH1 0x0 PUSH1 0x40 MLOAD DUP1 DUP4 SUB DUP2 PUSH1 0x0 DUP8 DUP1 EXTCODESIZE ISZERO DUP1 ISZERO PUSH2 0x2BCE JUMPI PUSH1 0x0 DUP1 REVERT JUMPDEST POP GAS CALL ISZERO DUP1 ISZERO PUSH2 0x2BE2 JUMPI RETURNDATASIZE PUSH1 0x0 DUP1 RETURNDATACOPY RETURNDATASIZE PUSH1 0x0 REVERT JUMPDEST POP POP POP POP DUP3 DUP3 PUSH1 0x5 ADD PUSH1 0x0 DUP3 DUP3 SLOAD PUSH2 0x2BFA SWAP2 SWAP1 PUSH2 0x490A JUMP JUMPDEST SWAP3 POP POP DUP2 SWAP1 SSTORE POP DUP3 PUSH1 0x8 PUSH1 0x0 DUP3 DUP3 SLOAD PUSH2 0x2C13 SWAP2 SWAP1 PUSH2 0x490A JUMP JUMPDEST SWAP1 SWAP2 SSTORE POP PUSH2 0x2CB5 SWAP1 POP JUMP JUMPDEST PUSH1 0x40 MLOAD PUSH4 0x5C46A7EF PUSH1 0xE1 SHL DUP2 MSTORE PUSH1 0x1 PUSH1 0x1 PUSH1 0xA0 SHL SUB DUP7 AND SWAP1 PUSH4 0xB88D4FDE SWAP1 PUSH2 0x2C4E SWAP1 ADDRESS SWAP1 CALLER SWAP1 DUP10 SWAP1 PUSH1 0x4 ADD PUSH2 0x4739 JUMP JUMPDEST PUSH1 0x0 PUSH1 0x40 MLOAD DUP1 DUP4 SUB DUP2 PUSH1 0x0 DUP8 DUP1 EXTCODESIZE ISZERO DUP1 ISZERO PUSH2 0x2C68 JUMPI PUSH1 0x0 DUP1 REVERT JUMPDEST POP GAS CALL ISZERO DUP1 ISZERO PUSH2 0x2C7C JUMPI RETURNDATASIZE PUSH1 0x0 DUP1 RETURNDATACOPY RETURNDATASIZE PUSH1 0x0 REVERT JUMPDEST POP POP POP POP PUSH1 0x1 DUP3 PUSH1 0x5 ADD PUSH1 0x0 DUP3 DUP3 SLOAD PUSH2 0x2C95 SWAP2 SWAP1 PUSH2 0x490A JUMP JUMPDEST SWAP3 POP POP DUP2 SWAP1 SSTORE POP PUSH1 0x1 PUSH1 0x8 PUSH1 0x0 DUP3 DUP3 SLOAD PUSH2 0x2CAF SWAP2 SWAP1 PUSH2 0x490A JUMP JUMPDEST SWAP1 SWAP2 SSTORE POP POP JUMPDEST POP POP POP POP POP JUMP JUMPDEST CALLER DUP1 ISZERO PUSH2 0x2DE5 JUMPI PUSH2 0x2CCC DUP2 PUSH2 0x3333 JUMP JUMPDEST PUSH1 0x1 PUSH1 0x1 PUSH1 0xA0 SHL SUB DUP3 AND PUSH1 0x0 SWAP1 DUP2 MSTORE PUSH1 0x5 PUSH1 0x20 MSTORE PUSH1 0x40 SWAP1 KECCAK256 SLOAD PUSH2 0x2CEF SWAP2 SWAP1 PUSH2 0x48B1 JUMP JUMPDEST PUSH1 0x1 PUSH1 0x1 PUSH1 0xA0 SHL SUB DUP3 AND PUSH1 0x0 SWAP1 DUP2 MSTORE PUSH1 0x5 PUSH1 0x20 SWAP1 DUP2 MSTORE PUSH1 0x40 DUP1 DUP4 KECCAK256 SWAP4 SWAP1 SWAP4 SSTORE PUSH1 0x4 DUP2 MSTORE DUP3 DUP3 KECCAK256 TIMESTAMP SWAP1 SSTORE PUSH1 0x7 SWAP1 MSTORE KECCAK256 SLOAD ISZERO DUP1 ISZERO SWAP1 PUSH2 0x2D4F JUMPI POP PUSH1 0x1 PUSH1 0x1 PUSH1 0xA0 SHL SUB DUP2 AND PUSH1 0x0 SWAP1 DUP2 MSTORE PUSH1 0x7 PUSH1 0x20 SWAP1 DUP2 MSTORE PUSH1 0x40 DUP1 DUP4 KECCAK256 SLOAD PUSH1 0x5 SWAP1 SWAP3 MSTORE SWAP1 SWAP2 KECCAK256 SLOAD LT ISZERO JUMPDEST ISZERO PUSH2 0x2DE5 JUMPI PUSH1 0x1 PUSH1 0x1 PUSH1 0xA0 SHL SUB DUP2 AND PUSH1 0x0 SWAP1 DUP2 MSTORE PUSH1 0x7 PUSH1 0x20 SWAP1 DUP2 MSTORE PUSH1 0x40 DUP1 DUP4 KECCAK256 SLOAD PUSH1 0x5 SWAP1 SWAP3 MSTORE DUP3 KECCAK256 DUP1 SLOAD SWAP2 SWAP3 SWAP1 SWAP2 PUSH2 0x2D88 SWAP1 DUP5 SWAP1 PUSH2 0x490A JUMP JUMPDEST SWAP1 SWAP2 SSTORE POP POP PUSH1 0x1 PUSH1 0x1 PUSH1 0xA0 SHL SUB DUP2 AND PUSH1 0x0 SWAP1 DUP2 MSTORE PUSH1 0x7 PUSH1 0x20 MSTORE PUSH1 0x40 DUP2 KECCAK256 SLOAD PUSH1 0x9 DUP1 SLOAD SWAP2 SWAP3 SWAP1 SWAP2 PUSH2 0x2DB9 SWAP1 DUP5 SWAP1 PUSH2 0x48B1 JUMP JUMPDEST SWAP1 SWAP2 SSTORE POP POP PUSH1 0x1 PUSH1 0x1 PUSH1 0xA0 SHL SUB DUP2 AND PUSH1 0x0 SWAP1 DUP2 MSTORE PUSH1 0x7 PUSH1 0x20 SWAP1 DUP2 MSTORE PUSH1 0x40 DUP1 DUP4 KECCAK256 DUP4 SWAP1 SSTORE PUSH1 0x6 SWAP1 SWAP2 MSTORE DUP2 KECCAK256 SSTORE JUMPDEST PUSH1 0xF SLOAD PUSH2 0x2DF1 CALLER PUSH2 0x25C2 JUMP JUMPDEST PUSH2 0x2DFB SWAP1 DUP5 PUSH2 0x48B1 JUMP JUMPDEST LT ISZERO DUP1 ISZERO PUSH2 0x2E1B JUMPI POP PUSH1 0x0 PUSH2 0x2E0F CALLER PUSH2 0x25C2 JUMP JUMPDEST PUSH2 0x2E19 SWAP1 DUP5 PUSH2 0x48B1 JUMP JUMPDEST GT JUMPDEST PUSH2 0x2E59 JUMPI PUSH1 0x40 MLOAD PUSH3 0x461BCD PUSH1 0xE5 SHL DUP2 MSTORE PUSH1 0x20 PUSH1 0x4 DUP3 ADD MSTORE PUSH1 0xF PUSH1 0x24 DUP3 ADD MSTORE PUSH15 0x151BDBC819995DC819195C1BDCDA5D PUSH1 0x8A SHL PUSH1 0x44 DUP3 ADD MSTORE PUSH1 0x64 ADD PUSH2 0x734 JUMP JUMPDEST PUSH1 0x10 SLOAD PUSH2 0x2E65 CALLER PUSH2 0x25C2 JUMP JUMPDEST PUSH2 0x2E6F SWAP1 DUP5 PUSH2 0x48B1 JUMP JUMPDEST GT ISZERO PUSH2 0x2EB5 JUMPI PUSH1 0x40 MLOAD PUSH3 0x461BCD PUSH1 0xE5 SHL DUP2 MSTORE PUSH1 0x20 PUSH1 0x4 DUP3 ADD MSTORE PUSH1 0x15 PUSH1 0x24 DUP3 ADD MSTORE PUSH21 0x11195C1BDCDA5D081B1A5B5A5D081C995858DA1959 PUSH1 0x5A SHL PUSH1 0x44 DUP3 ADD MSTORE PUSH1 0x64 ADD PUSH2 0x734 JUMP JUMPDEST PUSH2 0x2EBE DUP3 PUSH2 0x3D39 JUMP JUMPDEST PUSH1 0x40 MLOAD DUP3 DUP2 MSTORE CALLER SWAP1 PUSH32 0x9E71BC8EEA02A63969F509818F2DAFB9254532904319F9DBDA79B67BD34A5F3D SWAP1 PUSH1 0x20 ADD PUSH1 0x40 MLOAD DUP1 SWAP2 SUB SWAP1 LOG2 POP POP JUMP JUMPDEST PUSH1 0x0 DUP1 DUP1 DUP1 CALLER DUP2 DUP1 JUMPDEST PUSH1 0x1 PUSH1 0x1 PUSH1 0xA0 SHL SUB DUP10 AND PUSH1 0x0 SWAP1 DUP2 MSTORE PUSH1 0xC PUSH1 0x20 SWAP1 DUP2 MSTORE PUSH1 0x40 DUP1 DUP4 KECCAK256 DUP12 DUP5 MSTORE SWAP1 SWAP2 MSTORE SWAP1 KECCAK256 SLOAD DUP2 LT ISZERO PUSH2 0x2F9A JUMPI PUSH1 0x1 PUSH1 0x1 PUSH1 0xA0 SHL SUB DUP10 AND PUSH1 0x0 SWAP1 DUP2 MSTORE PUSH1 0xC PUSH1 0x20 SWAP1 DUP2 MSTORE PUSH1 0x40 DUP1 DUP4 KECCAK256 DUP12 DUP5 MSTORE SWAP1 SWAP2 MSTORE SWAP1 KECCAK256 DUP1 SLOAD DUP3 SWAP1 DUP2 LT PUSH2 0x2F60 JUMPI PUSH2 0x2F60 PUSH2 0x497E JUMP JUMPDEST PUSH1 0x0 SWAP2 DUP3 MSTORE PUSH1 0x20 SWAP1 SWAP2 KECCAK256 ADD SLOAD PUSH1 0x1 PUSH1 0x1 PUSH1 0xA0 SHL SUB DUP5 DUP2 AND SWAP2 AND EQ ISZERO PUSH2 0x2F88 JUMPI PUSH1 0x1 SWAP2 POP PUSH2 0x2F9A JUMP JUMPDEST DUP1 PUSH2 0x2F92 DUP2 PUSH2 0x494D JUMP JUMPDEST SWAP2 POP POP PUSH2 0x2F00 JUMP JUMPDEST POP DUP1 PUSH2 0x2FE8 JUMPI PUSH1 0x40 MLOAD PUSH3 0x461BCD PUSH1 0xE5 SHL DUP2 MSTORE PUSH1 0x20 PUSH1 0x4 DUP3 ADD MSTORE PUSH1 0x18 PUSH1 0x24 DUP3 ADD MSTORE PUSH32 0x43616C6C2066726F6D206E6F742056414C4944204661726D0000000000000000 PUSH1 0x44 DUP3 ADD MSTORE PUSH1 0x64 ADD PUSH2 0x734 JUMP JUMPDEST PUSH1 0x1 PUSH1 0x1 PUSH1 0xA0 SHL SUB DUP9 AND PUSH1 0x0 SWAP1 DUP2 MSTORE PUSH1 0xA PUSH1 0x20 SWAP1 DUP2 MSTORE PUSH1 0x40 DUP1 DUP4 KECCAK256 DUP11 DUP5 MSTORE SWAP1 SWAP2 MSTORE SWAP1 KECCAK256 PUSH1 0x1 DUP2 ADD SLOAD PUSH2 0x304D JUMPI PUSH1 0x40 MLOAD PUSH3 0x461BCD PUSH1 0xE5 SHL DUP2 MSTORE PUSH1 0x20 PUSH1 0x4 DUP3 ADD MSTORE PUSH1 0xE PUSH1 0x24 DUP3 ADD MSTORE PUSH14 0x10D85C99081B9BDD08199BDD5B99 PUSH1 0x92 SHL PUSH1 0x44 DUP3 ADD MSTORE PUSH1 0x64 ADD PUSH2 0x734 JUMP JUMPDEST PUSH1 0x6 DUP2 ADD SLOAD PUSH1 0x1 PUSH1 0xA8 SHL SWAP1 DIV PUSH1 0xFF AND ISZERO PUSH2 0x30A0 JUMPI PUSH1 0x40 MLOAD PUSH3 0x461BCD PUSH1 0xE5 SHL DUP2 MSTORE PUSH1 0x20 PUSH1 0x4 DUP3 ADD MSTORE PUSH1 0x14 PUSH1 0x24 DUP3 ADD MSTORE PUSH20 0x4361726420697320696E2053686F70204D6F6465 PUSH1 0x60 SHL PUSH1 0x44 DUP3 ADD MSTORE PUSH1 0x64 ADD PUSH2 0x734 JUMP JUMPDEST DUP1 PUSH1 0x3 ADD SLOAD TIMESTAMP LT ISZERO PUSH2 0x30E7 JUMPI PUSH1 0x40 MLOAD PUSH3 0x461BCD PUSH1 0xE5 SHL DUP2 MSTORE PUSH1 0x20 PUSH1 0x4 DUP3 ADD MSTORE PUSH1 0x10 PUSH1 0x24 DUP3 ADD MSTORE PUSH16 0x10D85C99081B9BDD081CDD185C9D1959 PUSH1 0x82 SHL PUSH1 0x44 DUP3 ADD MSTORE PUSH1 0x64 ADD PUSH2 0x734 JUMP JUMPDEST PUSH1 0x4 DUP2 ADD SLOAD ISZERO PUSH2 0x3136 JUMPI DUP1 PUSH1 0x4 ADD SLOAD TIMESTAMP GT ISZERO PUSH2 0x3136 JUMPI PUSH1 0x40 MLOAD PUSH3 0x461BCD PUSH1 0xE5 SHL DUP2 MSTORE PUSH1 0x20 PUSH1 0x4 DUP3 ADD MSTORE PUSH1 0xE PUSH1 0x24 DUP3 ADD MSTORE PUSH14 0x21B0B9321034B99022B73232B21 PUSH1 0x95 SHL PUSH1 0x44 DUP3 ADD MSTORE PUSH1 0x64 ADD PUSH2 0x734 JUMP JUMPDEST PUSH1 0x1 DUP2 PUSH1 0x5 ADD SLOAD LT ISZERO PUSH2 0x3182 JUMPI PUSH1 0x40 MLOAD PUSH3 0x461BCD PUSH1 0xE5 SHL DUP2 MSTORE PUSH1 0x20 PUSH1 0x4 DUP3 ADD MSTORE PUSH1 0x14 PUSH1 0x24 DUP3 ADD MSTORE PUSH20 0x3A3434B99027232A1034B990393AB71037BABA1 PUSH1 0x65 SHL PUSH1 0x44 DUP3 ADD MSTORE PUSH1 0x64 ADD PUSH2 0x734 JUMP JUMPDEST PUSH1 0x1 DUP2 PUSH1 0x5 ADD PUSH1 0x0 DUP3 DUP3 SLOAD PUSH2 0x3197 SWAP2 SWAP1 PUSH2 0x490A JUMP JUMPDEST SWAP1 SWAP2 SSTORE POP POP PUSH1 0x1 DUP2 ADD SLOAD DUP2 SLOAD PUSH1 0x6 SWAP1 SWAP3 ADD SLOAD PUSH1 0x1 PUSH1 0x1 PUSH1 0xA0 SHL SUB SWAP11 DUP12 AND PUSH1 0x0 SWAP1 DUP2 MSTORE PUSH1 0xD PUSH1 0x20 SWAP1 DUP2 MSTORE PUSH1 0x40 DUP1 DUP4 KECCAK256 SWAP13 DUP4 MSTORE SWAP12 DUP2 MSTORE DUP12 DUP3 KECCAK256 SWAP7 SWAP1 SWAP13 AND DUP2 MSTORE SWAP5 SWAP1 SWAP11 MSTORE SWAP8 SWAP1 SWAP3 KECCAK256 SLOAD SWAP7 SWAP9 PUSH1 0xFF SWAP3 DUP4 AND SWAP9 PUSH1 0x1 PUSH1 0xA0 SHL SWAP1 DIV SWAP1 SWAP3 AND SWAP7 SWAP6 POP SWAP1 SWAP4 POP POP POP POP JUMP JUMPDEST PUSH1 0x3 SLOAD PUSH1 0x1 PUSH1 0x1 PUSH1 0xA0 SHL SUB AND CALLER EQ PUSH2 0x3224 JUMPI PUSH1 0x40 MLOAD PUSH3 0x461BCD PUSH1 0xE5 SHL DUP2 MSTORE PUSH1 0x4 ADD PUSH2 0x734 SWAP1 PUSH2 0x487C JUMP JUMPDEST PUSH1 0x3 SLOAD PUSH1 0x1 PUSH1 0x1 PUSH1 0xA0 SHL SUB AND SELFDESTRUCT JUMPDEST PUSH1 0xE SLOAD PUSH2 0x100 SWAP1 DIV PUSH1 0xFF AND ISZERO DUP1 ISZERO PUSH2 0x324D JUMPI POP PUSH1 0xE SLOAD PUSH1 0xFF AND ISZERO JUMPDEST PUSH2 0x32B6 JUMPI PUSH1 0x40 MLOAD PUSH3 0x461BCD PUSH1 0xE5 SHL DUP2 MSTORE PUSH1 0x20 PUSH1 0x4 DUP3 ADD MSTORE PUSH1 0x34 PUSH1 0x24 DUP3 ADD MSTORE PUSH32 0x44616F4C61756E63684661726D206D757374206E6F7420626520636F6E737472 PUSH1 0x44 DUP3 ADD MSTORE PUSH20 0x3AB1BA32B2103CB2BA1037B91031B637B732B217 PUSH1 0x61 SHL PUSH1 0x64 DUP3 ADD MSTORE PUSH1 0x84 ADD PUSH2 0x734 JUMP JUMPDEST PUSH1 0x0 DUP3 GT DUP1 ISZERO PUSH2 0x32C6 JUMPI POP DUP3 DUP3 LT ISZERO JUMPDEST PUSH2 0x32E2 JUMPI PUSH1 0x40 MLOAD PUSH3 0x461BCD PUSH1 0xE5 SHL DUP2 MSTORE PUSH1 0x4 ADD PUSH2 0x734 SWAP1 PUSH2 0x4838 JUMP JUMPDEST PUSH1 0x11 DUP5 SWAP1 SSTORE PUSH1 0xF DUP4 SWAP1 SSTORE PUSH1 0x10 DUP3 SWAP1 SSTORE PUSH1 0x0 DUP1 SLOAD PUSH1 0x1 PUSH1 0x1 PUSH1 0xA0 SHL SUB NOT AND PUSH1 0x1 PUSH1 0x1 PUSH1 0xA0 SHL SUB DUP4 AND OR SWAP1 SSTORE PUSH1 0xE DUP1 SLOAD PUSH3 0x10000 PUSH1 0x1 PUSH1 0xB0 SHL SUB NOT AND CALLER PUSH3 0x10000 MUL OR SWAP1 SSTORE PUSH2 0x332D PUSH2 0x3D91 JUMP JUMPDEST POP POP POP POP JUMP JUMPDEST PUSH1 0x0 DUP1 TIMESTAMP SWAP1 POP PUSH3 0x15180 PUSH1 0x11 SLOAD PUSH2 0x3349 DUP6 PUSH2 0x25C2 JUMP JUMPDEST PUSH1 0x1 PUSH1 0x1 PUSH1 0xA0 SHL SUB DUP7 AND PUSH1 0x0 SWAP1 DUP2 MSTORE PUSH1 0x4 PUSH1 0x20 MSTORE PUSH1 0x40 SWAP1 KECCAK256 SLOAD PUSH2 0x336C SWAP1 DUP6 PUSH2 0x490A JUMP JUMPDEST PUSH2 0x3376 SWAP2 SWAP1 PUSH2 0x48EB JUMP JUMPDEST PUSH2 0x3380 SWAP2 SWAP1 PUSH2 0x48EB JUMP JUMPDEST PUSH2 0x338A SWAP2 SWAP1 PUSH2 0x48C9 JUMP JUMPDEST SWAP4 SWAP3 POP POP POP JUMP JUMPDEST PUSH1 0x3 SLOAD PUSH1 0x1 PUSH1 0x1 PUSH1 0xA0 SHL SUB AND CALLER EQ PUSH2 0x33BB JUMPI PUSH1 0x40 MLOAD PUSH3 0x461BCD PUSH1 0xE5 SHL DUP2 MSTORE PUSH1 0x4 ADD PUSH2 0x734 SWAP1 PUSH2 0x487C JUMP JUMPDEST PUSH1 0x0 SLOAD PUSH1 0x1 PUSH1 0x1 PUSH1 0xA0 SHL SUB DUP6 DUP2 AND SWAP2 AND EQ PUSH2 0x348E JUMPI PUSH1 0x1 SLOAD ISZERO PUSH2 0x3420 JUMPI PUSH1 0x40 MLOAD PUSH3 0x461BCD PUSH1 0xE5 SHL DUP2 MSTORE PUSH1 0x20 PUSH1 0x4 DUP3 ADD MSTORE PUSH1 0x1B PUSH1 0x24 DUP3 ADD MSTORE PUSH32 0x416C7265616479207374616B656420696E206F6C6420746F6B656E0000000000 PUSH1 0x44 DUP3 ADD MSTORE PUSH1 0x64 ADD PUSH2 0x734 JUMP JUMPDEST PUSH1 0x8 SLOAD ISZERO PUSH2 0x3470 JUMPI PUSH1 0x40 MLOAD PUSH3 0x461BCD PUSH1 0xE5 SHL DUP2 MSTORE PUSH1 0x20 PUSH1 0x4 DUP3 ADD MSTORE PUSH1 0x1E PUSH1 0x24 DUP3 ADD MSTORE PUSH32 0x416C7265616479206164646564204E465420696E206F6C6420746F6B656E0000 PUSH1 0x44 DUP3 ADD MSTORE PUSH1 0x64 ADD PUSH2 0x734 JUMP JUMPDEST PUSH1 0x0 DUP1 SLOAD PUSH1 0x1 PUSH1 0x1 PUSH1 0xA0 SHL SUB NOT DUP2 AND PUSH1 0x1 PUSH1 0x1 PUSH1 0xA0 SHL SUB SWAP1 SWAP2 AND OR SWAP1 SSTORE JUMPDEST PUSH1 0x0 DUP2 GT DUP1 ISZERO PUSH2 0x349E JUMPI POP DUP2 DUP2 LT ISZERO JUMPDEST PUSH2 0x34BA JUMPI PUSH1 0x40 MLOAD PUSH3 0x461BCD PUSH1 0xE5 SHL DUP2 MSTORE PUSH1 0x4 ADD PUSH2 0x734 SWAP1 PUSH2 0x4838 JUMP JUMPDEST PUSH1 0x0 DUP4 GT PUSH2 0x3500 JUMPI PUSH1 0x40 MLOAD PUSH3 0x461BCD PUSH1 0xE5 SHL DUP2 MSTORE PUSH1 0x20 PUSH1 0x4 DUP3 ADD MSTORE PUSH1 0x13 PUSH1 0x24 DUP3 ADD MSTORE PUSH19 0x526577617264207261746520746F6F206C6F77 PUSH1 0x68 SHL PUSH1 0x44 DUP3 ADD MSTORE PUSH1 0x64 ADD PUSH2 0x734 JUMP JUMPDEST PUSH1 0xF SWAP2 SWAP1 SWAP2 SSTORE PUSH1 0x10 SSTORE PUSH1 0x11 SSTORE POP JUMP JUMPDEST PUSH1 0x0 PUSH1 0x1 PUSH1 0x1 PUSH1 0xA0 SHL SUB DUP8 AND ADDRESS EQ ISZERO PUSH2 0x3530 JUMPI POP PUSH4 0xF23A6E61 PUSH1 0xE0 SHL PUSH2 0x3534 JUMP JUMPDEST POP PUSH1 0x0 JUMPDEST SWAP7 SWAP6 POP POP POP POP POP POP JUMP JUMPDEST PUSH1 0x3 SLOAD PUSH1 0x1 PUSH1 0x1 PUSH1 0xA0 SHL SUB AND CALLER EQ PUSH2 0x3568 JUMPI PUSH1 0x40 MLOAD PUSH3 0x461BCD PUSH1 0xE5 SHL DUP2 MSTORE PUSH1 0x4 ADD PUSH2 0x734 SWAP1 PUSH2 0x487C JUMP JUMPDEST PUSH1 0x1 PUSH1 0x1 PUSH1 0xA0 SHL SUB DUP2 AND PUSH2 0x35CD JUMPI PUSH1 0x40 MLOAD PUSH3 0x461BCD PUSH1 0xE5 SHL DUP2 MSTORE PUSH1 0x20 PUSH1 0x4 DUP3 ADD MSTORE PUSH1 0x26 PUSH1 0x24 DUP3 ADD MSTORE PUSH32 0x4F776E61626C653A206E6577206F776E657220697320746865207A65726F2061 PUSH1 0x44 DUP3 ADD MSTORE PUSH6 0x646472657373 PUSH1 0xD0 SHL PUSH1 0x64 DUP3 ADD MSTORE PUSH1 0x84 ADD PUSH2 0x734 JUMP JUMPDEST PUSH1 0x3 SLOAD PUSH1 0x40 MLOAD PUSH1 0x1 PUSH1 0x1 PUSH1 0xA0 SHL SUB DUP1 DUP5 AND SWAP3 AND SWAP1 PUSH32 0x8BE0079C531659141344CD1FD0A4F28419497F9722A3DAAFE3B4186F6B6457E0 SWAP1 PUSH1 0x0 SWAP1 LOG3 PUSH1 0x3 DUP1 SLOAD PUSH1 0x1 PUSH1 0x1 PUSH1 0xA0 SHL SUB NOT AND PUSH1 0x1 PUSH1 0x1 PUSH1 0xA0 SHL SUB SWAP3 SWAP1 SWAP3 AND SWAP2 SWAP1 SWAP2 OR SWAP1 SSTORE JUMP JUMPDEST CALLER SWAP1 JUMP JUMPDEST PUSH1 0x1 PUSH1 0x1 PUSH1 0xA0 SHL SUB DUP3 AND PUSH1 0x0 SWAP1 DUP2 MSTORE PUSH1 0xC PUSH1 0x20 SWAP1 DUP2 MSTORE PUSH1 0x40 DUP1 DUP4 KECCAK256 DUP5 DUP5 MSTORE SWAP1 SWAP2 MSTORE SWAP1 KECCAK256 SLOAD ISZERO PUSH2 0x160B JUMPI PUSH1 0x0 JUMPDEST PUSH1 0x1 PUSH1 0x1 PUSH1 0xA0 SHL SUB DUP4 AND PUSH1 0x0 SWAP1 DUP2 MSTORE PUSH1 0xC PUSH1 0x20 SWAP1 DUP2 MSTORE PUSH1 0x40 DUP1 DUP4 KECCAK256 DUP6 DUP5 MSTORE SWAP1 SWAP2 MSTORE SWAP1 KECCAK256 SLOAD DUP2 LT ISZERO PUSH2 0x3760 JUMPI PUSH1 0x1 PUSH1 0x1 PUSH1 0xA0 SHL SUB DUP4 AND PUSH1 0x0 SWAP1 DUP2 MSTORE PUSH1 0xC PUSH1 0x20 SWAP1 DUP2 MSTORE PUSH1 0x40 DUP1 DUP4 KECCAK256 DUP6 DUP5 MSTORE SWAP1 SWAP2 MSTORE DUP2 KECCAK256 DUP1 SLOAD DUP4 SWAP1 DUP2 LT PUSH2 0x36B9 JUMPI PUSH2 0x36B9 PUSH2 0x497E JUMP JUMPDEST PUSH1 0x0 SWAP2 DUP3 MSTORE PUSH1 0x20 DUP1 DUP4 KECCAK256 SWAP1 SWAP2 ADD SLOAD PUSH1 0x1 PUSH1 0x1 PUSH1 0xA0 SHL SUB DUP8 DUP2 AND DUP5 MSTORE PUSH1 0xA DUP4 MSTORE PUSH1 0x40 DUP1 DUP6 KECCAK256 DUP9 DUP7 MSTORE SWAP1 SWAP4 MSTORE DUP3 DUP5 KECCAK256 PUSH1 0x5 ADD SLOAD SWAP3 MLOAD PUSH4 0x48E6CBE1 PUSH1 0xE0 SHL DUP2 MSTORE SWAP2 AND SWAP4 POP DUP4 SWAP3 PUSH4 0x48E6CBE1 SWAP3 PUSH2 0x371A SWAP3 SWAP1 SWAP2 SWAP1 PUSH1 0x4 ADD SWAP2 DUP3 MSTORE PUSH1 0x20 DUP3 ADD MSTORE PUSH1 0x40 ADD SWAP1 JUMP JUMPDEST PUSH1 0x0 PUSH1 0x40 MLOAD DUP1 DUP4 SUB DUP2 PUSH1 0x0 DUP8 DUP1 EXTCODESIZE ISZERO DUP1 ISZERO PUSH2 0x3734 JUMPI PUSH1 0x0 DUP1 REVERT JUMPDEST POP GAS CALL ISZERO DUP1 ISZERO PUSH2 0x3748 JUMPI RETURNDATASIZE PUSH1 0x0 DUP1 RETURNDATACOPY RETURNDATASIZE PUSH1 0x0 REVERT JUMPDEST POP POP POP POP POP DUP1 DUP1 PUSH2 0x3758 SWAP1 PUSH2 0x494D JUMP JUMPDEST SWAP2 POP POP PUSH2 0x3659 JUMP JUMPDEST POP PUSH1 0x1 PUSH1 0x1 PUSH1 0xA0 SHL SUB DUP3 AND PUSH1 0x0 SWAP1 DUP2 MSTORE PUSH1 0xC PUSH1 0x20 SWAP1 DUP2 MSTORE PUSH1 0x40 DUP1 DUP4 KECCAK256 DUP5 DUP5 MSTORE SWAP1 SWAP2 MSTORE DUP2 KECCAK256 PUSH2 0x160B SWAP2 PUSH2 0x40A9 JUMP JUMPDEST DUP1 PUSH1 0x1 SLOAD PUSH2 0x379B SWAP2 SWAP1 PUSH2 0x490A JUMP JUMPDEST PUSH1 0x1 SSTORE CALLER PUSH1 0x0 SWAP1 DUP2 MSTORE PUSH1 0x2 PUSH1 0x20 MSTORE PUSH1 0x40 SWAP1 KECCAK256 SLOAD PUSH2 0x37B9 SWAP1 DUP3 SWAP1 PUSH2 0x490A JUMP JUMPDEST CALLER PUSH1 0x0 DUP2 DUP2 MSTORE PUSH1 0x2 PUSH1 0x20 MSTORE PUSH1 0x40 DUP2 KECCAK256 SWAP3 SWAP1 SWAP3 SSTORE SWAP1 SLOAD PUSH2 0x37E4 SWAP2 PUSH1 0x1 PUSH1 0x1 PUSH1 0xA0 SHL SUB SWAP1 SWAP2 AND SWAP1 DUP4 PUSH2 0x3DD6 JUMP JUMPDEST POP JUMP JUMPDEST PUSH1 0x0 DUP1 DUP3 PUSH1 0x60 SHL SWAP1 POP PUSH1 0x40 MLOAD PUSH20 0x3D602D80600A3D3981F3363D3D373D3D3D363D73 PUSH1 0x60 SHL DUP2 MSTORE DUP2 PUSH1 0x14 DUP3 ADD MSTORE PUSH15 0x5AF43D82803E903D91602B57FD5BF3 PUSH1 0x88 SHL PUSH1 0x28 DUP3 ADD MSTORE PUSH1 0x37 DUP2 PUSH1 0x0 CREATE SWAP5 SWAP4 POP POP POP POP JUMP JUMPDEST PUSH1 0xE SLOAD PUSH1 0xFF AND ISZERO PUSH2 0x385C JUMPI PUSH1 0x40 MLOAD PUSH3 0x461BCD PUSH1 0xE5 SHL DUP2 MSTORE PUSH1 0x4 ADD PUSH2 0x734 SWAP1 PUSH2 0x4801 JUMP JUMPDEST DUP2 ISZERO PUSH2 0x3881 JUMPI DUP3 DUP3 GT PUSH2 0x3881 JUMPI PUSH1 0x40 MLOAD PUSH3 0x461BCD PUSH1 0xE5 SHL DUP2 MSTORE PUSH1 0x4 ADD PUSH2 0x734 SWAP1 PUSH2 0x47BA JUMP JUMPDEST PUSH1 0x64 DUP5 LT PUSH2 0x38D1 JUMPI PUSH1 0x40 MLOAD PUSH3 0x461BCD PUSH1 0xE5 SHL DUP2 MSTORE PUSH1 0x20 PUSH1 0x4 DUP3 ADD MSTORE PUSH1 0x1E PUSH1 0x24 DUP3 ADD MSTORE PUSH32 0x526F79616C6974696573206973204C4152474552207468616E20313030250000 PUSH1 0x44 DUP3 ADD MSTORE PUSH1 0x64 ADD PUSH2 0x734 JUMP JUMPDEST PUSH1 0x1 PUSH1 0x1 PUSH1 0xA0 SHL SUB DUP8 AND PUSH1 0x0 SWAP1 DUP2 MSTORE PUSH1 0xA PUSH1 0x20 SWAP1 DUP2 MSTORE PUSH1 0x40 DUP1 DUP4 KECCAK256 DUP10 DUP5 MSTORE SWAP1 SWAP2 MSTORE SWAP1 KECCAK256 PUSH1 0x1 DUP2 ADD DUP7 SWAP1 SSTORE PUSH1 0x2 DUP2 ADD DUP6 SWAP1 SSTORE PUSH1 0x3 DUP2 ADD DUP5 SWAP1 SSTORE PUSH1 0x4 DUP2 ADD DUP4 SWAP1 SSTORE PUSH1 0x6 DUP2 ADD DUP1 SLOAD PUSH1 0xFF PUSH1 0xA8 SHL NOT AND SWAP1 SSTORE PUSH1 0x5 DUP2 ADD SLOAD DUP3 LT ISZERO PUSH2 0x39A6 JUMPI DUP1 SLOAD PUSH1 0xFF AND ISZERO PUSH2 0x3976 JUMPI DUP8 PUSH1 0x1 PUSH1 0x1 PUSH1 0xA0 SHL SUB AND PUSH4 0xF242432A ADDRESS CALLER DUP11 DUP7 DUP7 PUSH1 0x5 ADD SLOAD PUSH2 0x3957 SWAP2 SWAP1 PUSH2 0x490A JUMP JUMPDEST PUSH1 0x40 MLOAD DUP6 PUSH4 0xFFFFFFFF AND PUSH1 0xE0 SHL DUP2 MSTORE PUSH1 0x4 ADD PUSH2 0x128E SWAP5 SWAP4 SWAP3 SWAP2 SWAP1 PUSH2 0x4701 JUMP JUMPDEST PUSH1 0x40 MLOAD PUSH4 0x5C46A7EF PUSH1 0xE1 SHL DUP2 MSTORE PUSH1 0x1 PUSH1 0x1 PUSH1 0xA0 SHL SUB DUP10 AND SWAP1 PUSH4 0xB88D4FDE SWAP1 PUSH2 0x128E SWAP1 ADDRESS SWAP1 CALLER SWAP1 DUP13 SWAP1 PUSH1 0x4 ADD PUSH2 0x4739 JUMP JUMPDEST DUP1 PUSH1 0x5 ADD SLOAD DUP3 GT ISZERO PUSH2 0x1327 JUMPI DUP1 SLOAD PUSH1 0xFF AND ISZERO PUSH2 0x39DE JUMPI DUP8 PUSH1 0x1 PUSH1 0x1 PUSH1 0xA0 SHL SUB AND PUSH4 0xF242432A CALLER ADDRESS DUP11 DUP6 PUSH1 0x5 ADD SLOAD DUP8 PUSH2 0x3957 SWAP2 SWAP1 PUSH2 0x490A JUMP JUMPDEST PUSH1 0x40 MLOAD PUSH4 0x5C46A7EF PUSH1 0xE1 SHL DUP2 MSTORE PUSH1 0x1 PUSH1 0x1 PUSH1 0xA0 SHL SUB DUP10 AND SWAP1 PUSH4 0xB88D4FDE SWAP1 PUSH2 0x12F4 SWAP1 CALLER SWAP1 ADDRESS SWAP1 DUP13 SWAP1 PUSH1 0x4 ADD PUSH2 0x4739 JUMP JUMPDEST PUSH1 0xE SLOAD PUSH1 0xFF AND ISZERO PUSH2 0x3A31 JUMPI PUSH1 0x40 MLOAD PUSH3 0x461BCD PUSH1 0xE5 SHL DUP2 MSTORE PUSH1 0x4 ADD PUSH2 0x734 SWAP1 PUSH2 0x4801 JUMP JUMPDEST DUP3 ISZERO PUSH2 0x3AA2 JUMPI DUP1 DUP5 EQ PUSH2 0x3AA2 JUMPI PUSH1 0x40 MLOAD PUSH3 0x461BCD PUSH1 0xE5 SHL DUP2 MSTORE PUSH1 0x20 PUSH1 0x4 DUP3 ADD MSTORE PUSH1 0x33 PUSH1 0x24 DUP3 ADD MSTORE PUSH32 0x5374616B654661726D204C656E677468206D75737420657175616C20746F206D PUSH1 0x44 DUP3 ADD MSTORE PUSH19 0xD2DC98DEC6D682DADEEADCE84098CADCCEE8D PUSH1 0x6B SHL PUSH1 0x64 DUP3 ADD MSTORE PUSH1 0x84 ADD PUSH2 0x734 JUMP JUMPDEST PUSH1 0x1 PUSH1 0x1 PUSH1 0xA0 SHL SUB DUP9 AND PUSH1 0x0 SWAP1 DUP2 MSTORE PUSH1 0xA PUSH1 0x20 SWAP1 DUP2 MSTORE PUSH1 0x40 DUP1 DUP4 KECCAK256 DUP11 DUP5 MSTORE SWAP1 SWAP2 MSTORE SWAP1 KECCAK256 PUSH1 0x6 DUP2 ADD DUP1 SLOAD PUSH1 0xFF PUSH1 0xA0 SHL NOT AND PUSH1 0x1 PUSH1 0xA0 SHL DUP7 ISZERO ISZERO MUL OR SWAP1 SSTORE PUSH2 0x3AE8 DUP10 DUP10 PUSH2 0x362D JUMP JUMPDEST PUSH1 0x1 PUSH1 0x1 PUSH1 0xA0 SHL SUB DUP10 AND PUSH1 0x0 SWAP1 DUP2 MSTORE PUSH1 0xC PUSH1 0x20 SWAP1 DUP2 MSTORE PUSH1 0x40 DUP1 DUP4 KECCAK256 DUP12 DUP5 MSTORE SWAP1 SWAP2 MSTORE SWAP1 KECCAK256 PUSH2 0x3B16 SWAP1 DUP8 DUP8 PUSH2 0x40C7 JUMP JUMPDEST POP PUSH1 0x0 JUMPDEST DUP6 DUP2 LT ISZERO PUSH2 0x3D2D JUMPI PUSH1 0x0 DUP8 DUP8 DUP4 DUP2 DUP2 LT PUSH2 0x3B36 JUMPI PUSH2 0x3B36 PUSH2 0x497E JUMP JUMPDEST SWAP1 POP PUSH1 0x20 MUL ADD PUSH1 0x20 DUP2 ADD SWAP1 PUSH2 0x3B4B SWAP2 SWAP1 PUSH2 0x41CD JUMP JUMPDEST DUP4 SLOAD SWAP1 SWAP2 POP PUSH1 0xFF AND ISZERO PUSH2 0x3BBE JUMPI PUSH1 0x40 MLOAD PUSH4 0xA22CB465 PUSH1 0xE0 SHL DUP2 MSTORE PUSH1 0x1 PUSH1 0x1 PUSH1 0xA0 SHL SUB DUP13 AND SWAP1 PUSH4 0xA22CB465 SWAP1 PUSH2 0x3B87 SWAP1 DUP5 SWAP1 PUSH1 0x1 SWAP1 PUSH1 0x4 ADD PUSH2 0x476C JUMP JUMPDEST PUSH1 0x0 PUSH1 0x40 MLOAD DUP1 DUP4 SUB DUP2 PUSH1 0x0 DUP8 DUP1 EXTCODESIZE ISZERO DUP1 ISZERO PUSH2 0x3BA1 JUMPI PUSH1 0x0 DUP1 REVERT JUMPDEST POP GAS CALL ISZERO DUP1 ISZERO PUSH2 0x3BB5 JUMPI RETURNDATASIZE PUSH1 0x0 DUP1 RETURNDATACOPY RETURNDATASIZE PUSH1 0x0 REVERT JUMPDEST POP POP POP POP PUSH2 0x3C20 JUMP JUMPDEST PUSH1 0x40 MLOAD PUSH4 0xA22CB465 PUSH1 0xE0 SHL DUP2 MSTORE PUSH1 0x1 PUSH1 0x1 PUSH1 0xA0 SHL SUB DUP13 AND SWAP1 PUSH4 0xA22CB465 SWAP1 PUSH2 0x3BED SWAP1 DUP5 SWAP1 PUSH1 0x1 SWAP1 PUSH1 0x4 ADD PUSH2 0x476C JUMP JUMPDEST PUSH1 0x0 PUSH1 0x40 MLOAD DUP1 DUP4 SUB DUP2 PUSH1 0x0 DUP8 DUP1 EXTCODESIZE ISZERO DUP1 ISZERO PUSH2 0x3C07 JUMPI PUSH1 0x0 DUP1 REVERT JUMPDEST POP GAS CALL ISZERO DUP1 ISZERO PUSH2 0x3C1B JUMPI RETURNDATASIZE PUSH1 0x0 DUP1 RETURNDATACOPY RETURNDATASIZE PUSH1 0x0 REVERT JUMPDEST POP POP POP POP JUMPDEST PUSH1 0x40 MLOAD PUSH4 0x48E6CBE1 PUSH1 0xE0 SHL DUP2 MSTORE PUSH1 0x0 PUSH1 0x4 DUP3 ADD MSTORE PUSH1 0x24 DUP2 ADD DUP11 SWAP1 MSTORE PUSH1 0x1 PUSH1 0x1 PUSH1 0xA0 SHL SUB DUP3 AND SWAP1 PUSH4 0x48E6CBE1 SWAP1 PUSH1 0x44 ADD PUSH1 0x0 PUSH1 0x40 MLOAD DUP1 DUP4 SUB DUP2 PUSH1 0x0 DUP8 DUP1 EXTCODESIZE ISZERO DUP1 ISZERO PUSH2 0x3C69 JUMPI PUSH1 0x0 DUP1 REVERT JUMPDEST POP GAS CALL ISZERO DUP1 ISZERO PUSH2 0x3C7D JUMPI RETURNDATASIZE PUSH1 0x0 DUP1 RETURNDATACOPY RETURNDATASIZE PUSH1 0x0 REVERT JUMPDEST POP POP POP POP DUP6 ISZERO PUSH2 0x3D1A JUMPI DUP5 DUP5 DUP4 DUP2 DUP2 LT PUSH2 0x3C99 JUMPI PUSH2 0x3C99 PUSH2 0x497E JUMP JUMPDEST SWAP1 POP PUSH1 0x20 MUL ADD CALLDATALOAD PUSH1 0xD PUSH1 0x0 DUP14 PUSH1 0x1 PUSH1 0x1 PUSH1 0xA0 SHL SUB AND PUSH1 0x1 PUSH1 0x1 PUSH1 0xA0 SHL SUB AND DUP2 MSTORE PUSH1 0x20 ADD SWAP1 DUP2 MSTORE PUSH1 0x20 ADD PUSH1 0x0 KECCAK256 PUSH1 0x0 DUP13 DUP2 MSTORE PUSH1 0x20 ADD SWAP1 DUP2 MSTORE PUSH1 0x20 ADD PUSH1 0x0 KECCAK256 PUSH1 0x0 DUP11 DUP11 DUP7 DUP2 DUP2 LT PUSH2 0x3CEA JUMPI PUSH2 0x3CEA PUSH2 0x497E JUMP JUMPDEST SWAP1 POP PUSH1 0x20 MUL ADD PUSH1 0x20 DUP2 ADD SWAP1 PUSH2 0x3CFF SWAP2 SWAP1 PUSH2 0x41CD JUMP JUMPDEST PUSH1 0x1 PUSH1 0x1 PUSH1 0xA0 SHL SUB AND DUP2 MSTORE PUSH1 0x20 DUP2 ADD SWAP2 SWAP1 SWAP2 MSTORE PUSH1 0x40 ADD PUSH1 0x0 KECCAK256 SSTORE JUMPDEST POP DUP1 PUSH2 0x3D25 DUP2 PUSH2 0x494D JUMP JUMPDEST SWAP2 POP POP PUSH2 0x3B1A JUMP JUMPDEST POP POP POP POP POP POP POP POP POP POP JUMP JUMPDEST DUP1 PUSH1 0x1 SLOAD PUSH2 0x3D47 SWAP2 SWAP1 PUSH2 0x48B1 JUMP JUMPDEST PUSH1 0x1 SSTORE CALLER PUSH1 0x0 SWAP1 DUP2 MSTORE PUSH1 0x2 PUSH1 0x20 MSTORE PUSH1 0x40 SWAP1 KECCAK256 SLOAD PUSH2 0x3D65 SWAP1 DUP3 SWAP1 PUSH2 0x48B1 JUMP JUMPDEST CALLER PUSH1 0x0 DUP2 DUP2 MSTORE PUSH1 0x2 PUSH1 0x20 MSTORE PUSH1 0x40 DUP2 KECCAK256 SWAP3 SWAP1 SWAP3 SSTORE SWAP1 SLOAD PUSH2 0x37E4 SWAP2 PUSH1 0x1 PUSH1 0x1 PUSH1 0xA0 SHL SUB SWAP1 SWAP2 AND SWAP1 ADDRESS DUP5 PUSH2 0x3E3E JUMP JUMPDEST PUSH1 0x3 DUP1 SLOAD PUSH1 0x1 PUSH1 0x1 PUSH1 0xA0 SHL SUB NOT AND CALLER SWAP1 DUP2 OR SWAP1 SWAP2 SSTORE PUSH1 0x40 MLOAD DUP2 SWAP1 PUSH1 0x0 SWAP1 PUSH32 0x8BE0079C531659141344CD1FD0A4F28419497F9722A3DAAFE3B4186F6B6457E0 SWAP1 DUP3 SWAP1 LOG3 POP JUMP JUMPDEST PUSH1 0x40 MLOAD PUSH1 0x1 PUSH1 0x1 PUSH1 0xA0 SHL SUB DUP4 AND PUSH1 0x24 DUP3 ADD MSTORE PUSH1 0x44 DUP2 ADD DUP3 SWAP1 MSTORE PUSH2 0x3E39 SWAP1 DUP5 SWAP1 PUSH4 0xA9059CBB PUSH1 0xE0 SHL SWAP1 PUSH1 0x64 ADD JUMPDEST PUSH1 0x40 DUP1 MLOAD PUSH1 0x1F NOT DUP2 DUP5 SUB ADD DUP2 MSTORE SWAP2 SWAP1 MSTORE PUSH1 0x20 DUP2 ADD DUP1 MLOAD PUSH1 0x1 PUSH1 0x1 PUSH1 0xE0 SHL SUB AND PUSH1 0x1 PUSH1 0x1 PUSH1 0xE0 SHL SUB NOT SWAP1 SWAP4 AND SWAP3 SWAP1 SWAP3 OR SWAP1 SWAP2 MSTORE PUSH2 0x3E5F JUMP JUMPDEST POP POP POP JUMP JUMPDEST PUSH2 0x332D DUP5 PUSH4 0x23B872DD PUSH1 0xE0 SHL DUP6 DUP6 DUP6 PUSH1 0x40 MLOAD PUSH1 0x24 ADD PUSH2 0x3E02 SWAP4 SWAP3 SWAP2 SWAP1 PUSH2 0x46DD JUMP JUMPDEST PUSH1 0x0 PUSH2 0x3EB4 DUP3 PUSH1 0x40 MLOAD DUP1 PUSH1 0x40 ADD PUSH1 0x40 MSTORE DUP1 PUSH1 0x20 DUP2 MSTORE PUSH1 0x20 ADD PUSH32 0x5361666545524332303A206C6F772D6C6576656C2063616C6C206661696C6564 DUP2 MSTORE POP DUP6 PUSH1 0x1 PUSH1 0x1 PUSH1 0xA0 SHL SUB AND PUSH2 0x3F31 SWAP1 SWAP3 SWAP2 SWAP1 PUSH4 0xFFFFFFFF AND JUMP JUMPDEST DUP1 MLOAD SWAP1 SWAP2 POP ISZERO PUSH2 0x3E39 JUMPI DUP1 DUP1 PUSH1 0x20 ADD SWAP1 MLOAD DUP2 ADD SWAP1 PUSH2 0x3ED2 SWAP2 SWAP1 PUSH2 0x448B JUMP JUMPDEST PUSH2 0x3E39 JUMPI PUSH1 0x40 MLOAD PUSH3 0x461BCD PUSH1 0xE5 SHL DUP2 MSTORE PUSH1 0x20 PUSH1 0x4 DUP3 ADD MSTORE PUSH1 0x2A PUSH1 0x24 DUP3 ADD MSTORE PUSH32 0x5361666545524332303A204552433230206F7065726174696F6E20646964206E PUSH1 0x44 DUP3 ADD MSTORE PUSH10 0x1BDD081CDD58D8D95959 PUSH1 0xB2 SHL PUSH1 0x64 DUP3 ADD MSTORE PUSH1 0x84 ADD PUSH2 0x734 JUMP JUMPDEST PUSH1 0x60 PUSH2 0x3F40 DUP5 DUP5 PUSH1 0x0 DUP6 PUSH2 0x3F48 JUMP JUMPDEST SWAP5 SWAP4 POP POP POP POP JUMP JUMPDEST PUSH1 0x60 DUP3 SELFBALANCE LT ISZERO PUSH2 0x3FA9 JUMPI PUSH1 0x40 MLOAD PUSH3 0x461BCD PUSH1 0xE5 SHL DUP2 MSTORE PUSH1 0x20 PUSH1 0x4 DUP3 ADD MSTORE PUSH1 0x26 PUSH1 0x24 DUP3 ADD MSTORE PUSH32 0x416464726573733A20696E73756666696369656E742062616C616E636520666F PUSH1 0x44 DUP3 ADD MSTORE PUSH6 0x1C8818D85B1B PUSH1 0xD2 SHL PUSH1 0x64 DUP3 ADD MSTORE PUSH1 0x84 ADD PUSH2 0x734 JUMP JUMPDEST DUP5 EXTCODESIZE PUSH2 0x3FF7 JUMPI PUSH1 0x40 MLOAD PUSH3 0x461BCD PUSH1 0xE5 SHL DUP2 MSTORE PUSH1 0x20 PUSH1 0x4 DUP3 ADD MSTORE PUSH1 0x1D PUSH1 0x24 DUP3 ADD MSTORE PUSH32 0x416464726573733A2063616C6C20746F206E6F6E2D636F6E7472616374000000 PUSH1 0x44 DUP3 ADD MSTORE PUSH1 0x64 ADD PUSH2 0x734 JUMP JUMPDEST PUSH1 0x0 DUP1 DUP7 PUSH1 0x1 PUSH1 0x1 PUSH1 0xA0 SHL SUB AND DUP6 DUP8 PUSH1 0x40 MLOAD PUSH2 0x4013 SWAP2 SWAP1 PUSH2 0x46C1 JUMP JUMPDEST PUSH1 0x0 PUSH1 0x40 MLOAD DUP1 DUP4 SUB DUP2 DUP6 DUP8 GAS CALL SWAP3 POP POP POP RETURNDATASIZE DUP1 PUSH1 0x0 DUP2 EQ PUSH2 0x4050 JUMPI PUSH1 0x40 MLOAD SWAP2 POP PUSH1 0x1F NOT PUSH1 0x3F RETURNDATASIZE ADD AND DUP3 ADD PUSH1 0x40 MSTORE RETURNDATASIZE DUP3 MSTORE RETURNDATASIZE PUSH1 0x0 PUSH1 0x20 DUP5 ADD RETURNDATACOPY PUSH2 0x4055 JUMP JUMPDEST PUSH1 0x60 SWAP2 POP JUMPDEST POP SWAP2 POP SWAP2 POP PUSH2 0x4065 DUP3 DUP3 DUP7 PUSH2 0x4070 JUMP JUMPDEST SWAP8 SWAP7 POP POP POP POP POP POP POP JUMP JUMPDEST PUSH1 0x60 DUP4 ISZERO PUSH2 0x407F JUMPI POP DUP2 PUSH2 0x338A JUMP JUMPDEST DUP3 MLOAD ISZERO PUSH2 0x408F JUMPI DUP3 MLOAD DUP1 DUP5 PUSH1 0x20 ADD REVERT JUMPDEST DUP2 PUSH1 0x40 MLOAD PUSH3 0x461BCD PUSH1 0xE5 SHL DUP2 MSTORE PUSH1 0x4 ADD PUSH2 0x734 SWAP2 SWAP1 PUSH2 0x4787 JUMP JUMPDEST POP DUP1 SLOAD PUSH1 0x0 DUP3 SSTORE SWAP1 PUSH1 0x0 MSTORE PUSH1 0x20 PUSH1 0x0 KECCAK256 SWAP1 DUP2 ADD SWAP1 PUSH2 0x37E4 SWAP2 SWAP1 PUSH2 0x412A JUMP JUMPDEST DUP3 DUP1 SLOAD DUP3 DUP3 SSTORE SWAP1 PUSH1 0x0 MSTORE PUSH1 0x20 PUSH1 0x0 KECCAK256 SWAP1 DUP2 ADD SWAP3 DUP3 ISZERO PUSH2 0x411A JUMPI SWAP2 PUSH1 0x20 MUL DUP3 ADD JUMPDEST DUP3 DUP2 GT ISZERO PUSH2 0x411A JUMPI DUP2 SLOAD PUSH1 0x1 PUSH1 0x1 PUSH1 0xA0 SHL SUB NOT AND PUSH1 0x1 PUSH1 0x1 PUSH1 0xA0 SHL SUB DUP5 CALLDATALOAD AND OR DUP3 SSTORE PUSH1 0x20 SWAP1 SWAP3 ADD SWAP2 PUSH1 0x1 SWAP1 SWAP2 ADD SWAP1 PUSH2 0x40E7 JUMP JUMPDEST POP PUSH2 0x4126 SWAP3 SWAP2 POP PUSH2 0x412A JUMP JUMPDEST POP SWAP1 JUMP JUMPDEST JUMPDEST DUP1 DUP3 GT ISZERO PUSH2 0x4126 JUMPI PUSH1 0x0 DUP2 SSTORE PUSH1 0x1 ADD PUSH2 0x412B JUMP JUMPDEST PUSH1 0x0 DUP1 DUP4 PUSH1 0x1F DUP5 ADD SLT PUSH2 0x4151 JUMPI PUSH1 0x0 DUP1 REVERT JUMPDEST POP DUP2 CALLDATALOAD PUSH8 0xFFFFFFFFFFFFFFFF DUP2 GT ISZERO PUSH2 0x4169 JUMPI PUSH1 0x0 DUP1 REVERT JUMPDEST PUSH1 0x20 DUP4 ADD SWAP2 POP DUP4 PUSH1 0x20 DUP3 PUSH1 0x5 SHL DUP6 ADD ADD GT ISZERO PUSH2 0x4184 JUMPI PUSH1 0x0 DUP1 REVERT JUMPDEST SWAP3 POP SWAP3 SWAP1 POP JUMP JUMPDEST PUSH1 0x0 DUP1 DUP4 PUSH1 0x1F DUP5 ADD SLT PUSH2 0x419D JUMPI PUSH1 0x0 DUP1 REVERT JUMPDEST POP DUP2 CALLDATALOAD PUSH8 0xFFFFFFFFFFFFFFFF DUP2 GT ISZERO PUSH2 0x41B5 JUMPI PUSH1 0x0 DUP1 REVERT JUMPDEST PUSH1 0x20 DUP4 ADD SWAP2 POP DUP4 PUSH1 0x20 DUP3 DUP6 ADD ADD GT ISZERO PUSH2 0x4184 JUMPI PUSH1 0x0 DUP1 REVERT JUMPDEST PUSH1 0x0 PUSH1 0x20 DUP3 DUP5 SUB SLT ISZERO PUSH2 0x41DF JUMPI PUSH1 0x0 DUP1 REVERT JUMPDEST DUP2 CALLDATALOAD PUSH2 0x338A DUP2 PUSH2 0x4994 JUMP JUMPDEST PUSH1 0x0 PUSH1 0x20 DUP3 DUP5 SUB SLT ISZERO PUSH2 0x41FC JUMPI PUSH1 0x0 DUP1 REVERT JUMPDEST DUP2 MLOAD PUSH2 0x338A DUP2 PUSH2 0x4994 JUMP JUMPDEST PUSH1 0x0 DUP1 PUSH1 0x0 DUP1 PUSH1 0x0 PUSH1 0x80 DUP7 DUP9 SUB SLT ISZERO PUSH2 0x421F JUMPI PUSH1 0x0 DUP1 REVERT JUMPDEST DUP6 CALLDATALOAD PUSH2 0x422A DUP2 PUSH2 0x4994 JUMP JUMPDEST SWAP5 POP PUSH1 0x20 DUP7 ADD CALLDATALOAD PUSH2 0x423A DUP2 PUSH2 0x4994 JUMP JUMPDEST SWAP4 POP PUSH1 0x40 DUP7 ADD CALLDATALOAD SWAP3 POP PUSH1 0x60 DUP7 ADD CALLDATALOAD PUSH8 0xFFFFFFFFFFFFFFFF DUP2 GT ISZERO PUSH2 0x425D JUMPI PUSH1 0x0 DUP1 REVERT JUMPDEST PUSH2 0x4269 DUP9 DUP3 DUP10 ADD PUSH2 0x418B JUMP JUMPDEST SWAP7 SWAP10 SWAP6 SWAP9 POP SWAP4 SWAP7 POP SWAP3 SWAP5 SWAP4 SWAP3 POP POP POP JUMP JUMPDEST PUSH1 0x0 DUP1 PUSH1 0x0 DUP1 PUSH1 0x0 DUP1 PUSH1 0xA0 DUP8 DUP10 SUB SLT ISZERO PUSH2 0x4293 JUMPI PUSH1 0x0 DUP1 REVERT JUMPDEST DUP7 CALLDATALOAD PUSH2 0x429E DUP2 PUSH2 0x4994 JUMP JUMPDEST SWAP6 POP PUSH1 0x20 DUP8 ADD CALLDATALOAD PUSH2 0x42AE DUP2 PUSH2 0x4994 JUMP JUMPDEST SWAP5 POP PUSH1 0x40 DUP8 ADD CALLDATALOAD SWAP4 POP PUSH1 0x60 DUP8 ADD CALLDATALOAD SWAP3 POP PUSH1 0x80 DUP8 ADD CALLDATALOAD PUSH8 0xFFFFFFFFFFFFFFFF DUP2 GT ISZERO PUSH2 0x42D8 JUMPI PUSH1 0x0 DUP1 REVERT JUMPDEST PUSH2 0x42E4 DUP10 DUP3 DUP11 ADD PUSH2 0x418B JUMP JUMPDEST SWAP8 SWAP11 SWAP7 SWAP10 POP SWAP5 SWAP8 POP SWAP3 SWAP6 SWAP4 SWAP5 SWAP3 POP POP POP JUMP JUMPDEST PUSH1 0x0 DUP1 PUSH1 0x40 DUP4 DUP6 SUB SLT ISZERO PUSH2 0x4309 JUMPI PUSH1 0x0 DUP1 REVERT JUMPDEST DUP3 CALLDATALOAD PUSH2 0x4314 DUP2 PUSH2 0x4994 JUMP JUMPDEST SWAP5 PUSH1 0x20 SWAP4 SWAP1 SWAP4 ADD CALLDATALOAD SWAP4 POP POP POP JUMP JUMPDEST PUSH1 0x0 DUP1 PUSH1 0x0 PUSH1 0x60 DUP5 DUP7 SUB SLT ISZERO PUSH2 0x4337 JUMPI PUSH1 0x0 DUP1 REVERT JUMPDEST DUP4 CALLDATALOAD PUSH2 0x4342 DUP2 PUSH2 0x4994 JUMP JUMPDEST SWAP3 POP PUSH1 0x20 DUP5 ADD CALLDATALOAD SWAP2 POP PUSH1 0x40 DUP5 ADD CALLDATALOAD PUSH2 0x4359 DUP2 PUSH2 0x4994 JUMP JUMPDEST DUP1 SWAP2 POP POP SWAP3 POP SWAP3 POP SWAP3 JUMP JUMPDEST PUSH1 0x0 DUP1 PUSH1 0x0 DUP1 PUSH1 0x80 DUP6 DUP8 SUB SLT ISZERO PUSH2 0x437A JUMPI PUSH1 0x0 DUP1 REVERT JUMPDEST DUP5 CALLDATALOAD PUSH2 0x4385 DUP2 PUSH2 0x4994 JUMP JUMPDEST SWAP4 POP PUSH1 0x20 DUP6 ADD CALLDATALOAD SWAP3 POP PUSH1 0x40 DUP6 ADD CALLDATALOAD PUSH2 0x439C DUP2 PUSH2 0x49A9 JUMP JUMPDEST SWAP2 POP PUSH1 0x60 DUP6 ADD CALLDATALOAD PUSH2 0x43AC DUP2 PUSH2 0x4994 JUMP JUMPDEST SWAP4 SWAP7 SWAP3 SWAP6 POP SWAP1 SWAP4 POP POP JUMP JUMPDEST PUSH1 0x0 DUP1 PUSH1 0x0 DUP1 PUSH1 0x0 DUP1 PUSH1 0x0 DUP1 PUSH1 0x0 PUSH2 0x120 DUP11 DUP13 SUB SLT ISZERO PUSH2 0x43D6 JUMPI PUSH1 0x0 DUP1 REVERT JUMPDEST DUP10 CALLDATALOAD PUSH2 0x43E1 DUP2 PUSH2 0x4994 JUMP JUMPDEST SWAP9 POP PUSH1 0x20 DUP11 ADD CALLDATALOAD SWAP8 POP PUSH1 0x40 DUP11 ADD CALLDATALOAD PUSH2 0x43F8 DUP2 PUSH2 0x49A9 JUMP JUMPDEST SWAP7 POP PUSH1 0x60 DUP11 ADD CALLDATALOAD SWAP6 POP PUSH1 0x80 DUP11 ADD CALLDATALOAD PUSH2 0x440F DUP2 PUSH2 0x4994 JUMP JUMPDEST SWAP9 SWAP12 SWAP8 SWAP11 POP SWAP6 SWAP9 SWAP5 SWAP8 SWAP7 PUSH1 0xA0 DUP7 ADD CALLDATALOAD SWAP7 POP PUSH1 0xC0 DUP7 ADD CALLDATALOAD SWAP6 PUSH1 0xE0 DUP2 ADD CALLDATALOAD SWAP6 POP PUSH2 0x100 ADD CALLDATALOAD SWAP4 POP SWAP2 POP POP JUMP JUMPDEST PUSH1 0x0 DUP1 PUSH1 0x0 PUSH1 0x60 DUP5 DUP7 SUB SLT ISZERO PUSH2 0x444E JUMPI PUSH1 0x0 DUP1 REVERT JUMPDEST DUP4 CALLDATALOAD PUSH2 0x4459 DUP2 PUSH2 0x4994 JUMP JUMPDEST SWAP6 PUSH1 0x20 DUP6 ADD CALLDATALOAD SWAP6 POP PUSH1 0x40 SWAP1 SWAP5 ADD CALLDATALOAD SWAP4 SWAP3 POP POP POP JUMP JUMPDEST PUSH1 0x0 PUSH1 0x20 DUP3 DUP5 SUB SLT ISZERO PUSH2 0x4480 JUMPI PUSH1 0x0 DUP1 REVERT JUMPDEST DUP2 CALLDATALOAD PUSH2 0x338A DUP2 PUSH2 0x49A9 JUMP JUMPDEST PUSH1 0x0 PUSH1 0x20 DUP3 DUP5 SUB SLT ISZERO PUSH2 0x449D JUMPI PUSH1 0x0 DUP1 REVERT JUMPDEST DUP2 MLOAD PUSH2 0x338A DUP2 PUSH2 0x49A9 JUMP JUMPDEST PUSH1 0x0 DUP1 PUSH1 0x0 DUP1 PUSH1 0x80 DUP6 DUP8 SUB SLT ISZERO PUSH2 0x44BE JUMPI PUSH1 0x0 DUP1 REVERT JUMPDEST DUP5 CALLDATALOAD PUSH2 0x44C9 DUP2 PUSH2 0x4994 JUMP JUMPDEST SWAP7 PUSH1 0x20 DUP7 ADD CALLDATALOAD SWAP7 POP PUSH1 0x40 DUP7 ADD CALLDATALOAD SWAP6 PUSH1 0x60 ADD CALLDATALOAD SWAP5 POP SWAP3 POP POP POP JUMP JUMPDEST PUSH1 0x0 DUP1 PUSH1 0x0 DUP1 PUSH1 0x0 DUP1 PUSH1 0x0 DUP8 DUP10 SUB PUSH2 0x180 DUP2 SLT ISZERO PUSH2 0x4500 JUMPI PUSH1 0x0 DUP1 REVERT JUMPDEST PUSH2 0x100 DUP1 DUP3 SLT ISZERO PUSH2 0x4510 JUMPI PUSH1 0x0 DUP1 REVERT JUMPDEST DUP10 SWAP9 POP DUP9 ADD CALLDATALOAD SWAP1 POP PUSH2 0x4521 DUP2 PUSH2 0x4994 JUMP JUMPDEST SWAP6 POP PUSH2 0x120 DUP9 ADD CALLDATALOAD PUSH8 0xFFFFFFFFFFFFFFFF DUP1 DUP3 GT ISZERO PUSH2 0x453F JUMPI PUSH1 0x0 DUP1 REVERT JUMPDEST PUSH2 0x454B DUP12 DUP4 DUP13 ADD PUSH2 0x413F JUMP JUMPDEST SWAP1 SWAP8 POP SWAP6 POP PUSH2 0x140 DUP11 ADD CALLDATALOAD SWAP2 POP PUSH2 0x4561 DUP3 PUSH2 0x49A9 JUMP JUMPDEST SWAP1 SWAP4 POP PUSH2 0x160 DUP10 ADD CALLDATALOAD SWAP1 DUP1 DUP3 GT ISZERO PUSH2 0x4578 JUMPI PUSH1 0x0 DUP1 REVERT JUMPDEST POP PUSH2 0x4585 DUP11 DUP3 DUP12 ADD PUSH2 0x413F JUMP JUMPDEST SWAP9 SWAP12 SWAP8 SWAP11 POP SWAP6 SWAP9 POP SWAP4 SWAP7 SWAP3 SWAP6 SWAP3 SWAP4 POP POP POP JUMP JUMPDEST PUSH1 0x0 PUSH1 0x20 DUP3 DUP5 SUB SLT ISZERO PUSH2 0x45AA JUMPI PUSH1 0x0 DUP1 REVERT JUMPDEST POP CALLDATALOAD SWAP2 SWAP1 POP JUMP JUMPDEST PUSH1 0x0 PUSH1 0x20 DUP3 DUP5 SUB SLT ISZERO PUSH2 0x45C3 JUMPI PUSH1 0x0 DUP1 REVERT JUMPDEST POP MLOAD SWAP2 SWAP1 POP JUMP JUMPDEST PUSH1 0x0 DUP1 PUSH1 0x0 DUP1 PUSH1 0x80 DUP6 DUP8 SUB SLT ISZERO PUSH2 0x45E0 JUMPI PUSH1 0x0 DUP1 REVERT JUMPDEST DUP5 MLOAD SWAP4 POP PUSH1 0x20 DUP6 ADD MLOAD PUSH2 0x45F2 DUP2 PUSH2 0x49A9 JUMP JUMPDEST PUSH1 0x40 DUP7 ADD MLOAD SWAP1 SWAP4 POP PUSH2 0x4603 DUP2 PUSH2 0x49A9 JUMP JUMPDEST PUSH1 0x60 SWAP6 SWAP1 SWAP6 ADD MLOAD SWAP4 SWAP7 SWAP3 SWAP6 POP POP POP JUMP JUMPDEST PUSH1 0x0 DUP1 PUSH1 0x40 DUP4 DUP6 SUB SLT ISZERO PUSH2 0x4626 JUMPI PUSH1 0x0 DUP1 REVERT JUMPDEST POP POP DUP1 CALLDATALOAD SWAP3 PUSH1 0x20 SWAP1 SWAP2 ADD CALLDATALOAD SWAP2 POP JUMP JUMPDEST PUSH1 0x0 DUP1 PUSH1 0x0 DUP1 PUSH1 0x80 DUP6 DUP8 SUB SLT ISZERO PUSH2 0x464B JUMPI PUSH1 0x0 DUP1 REVERT JUMPDEST DUP5 CALLDATALOAD SWAP4 POP PUSH1 0x20 DUP6 ADD CALLDATALOAD SWAP3 POP PUSH1 0x40 DUP6 ADD CALLDATALOAD SWAP2 POP PUSH1 0x60 DUP6 ADD CALLDATALOAD PUSH2 0x43AC DUP2 PUSH2 0x4994 JUMP JUMPDEST PUSH1 0x0 DUP1 PUSH1 0x0 DUP1 PUSH1 0x0 PUSH1 0xA0 DUP7 DUP9 SUB SLT ISZERO PUSH2 0x4683 JUMPI PUSH1 0x0 DUP1 REVERT JUMPDEST DUP6 CALLDATALOAD SWAP5 POP PUSH1 0x20 DUP7 ADD CALLDATALOAD SWAP4 POP PUSH1 0x40 DUP7 ADD CALLDATALOAD SWAP3 POP PUSH1 0x60 DUP7 ADD CALLDATALOAD PUSH2 0x46A3 DUP2 PUSH2 0x4994 JUMP JUMPDEST SWAP2 POP PUSH1 0x80 DUP7 ADD CALLDATALOAD PUSH2 0x46B3 DUP2 PUSH2 0x4994 JUMP JUMPDEST DUP1 SWAP2 POP POP SWAP3 SWAP6 POP SWAP3 SWAP6 SWAP1 SWAP4 POP JUMP JUMPDEST PUSH1 0x0 DUP3 MLOAD PUSH2 0x46D3 DUP2 DUP5 PUSH1 0x20 DUP8 ADD PUSH2 0x4921 JUMP JUMPDEST SWAP2 SWAP1 SWAP2 ADD SWAP3 SWAP2 POP POP JUMP JUMPDEST PUSH1 0x1 PUSH1 0x1 PUSH1 0xA0 SHL SUB SWAP4 DUP5 AND DUP2 MSTORE SWAP2 SWAP1 SWAP3 AND PUSH1 0x20 DUP3 ADD MSTORE PUSH1 0x40 DUP2 ADD SWAP2 SWAP1 SWAP2 MSTORE PUSH1 0x60 ADD SWAP1 JUMP JUMPDEST PUSH1 0x1 PUSH1 0x1 PUSH1 0xA0 SHL SUB SWAP5 DUP6 AND DUP2 MSTORE SWAP3 SWAP1 SWAP4 AND PUSH1 0x20 DUP4 ADD MSTORE PUSH1 0x40 DUP3 ADD MSTORE PUSH1 0x60 DUP2 ADD SWAP2 SWAP1 SWAP2 MSTORE PUSH1 0xA0 PUSH1 0x80 DUP3 ADD DUP2 SWAP1 MSTORE PUSH1 0x0 SWAP1 DUP3 ADD MSTORE PUSH1 0xC0 ADD SWAP1 JUMP JUMPDEST PUSH1 0x1 PUSH1 0x1 PUSH1 0xA0 SHL SUB SWAP4 DUP5 AND DUP2 MSTORE SWAP2 SWAP1 SWAP3 AND PUSH1 0x20 DUP3 ADD MSTORE PUSH1 0x40 DUP2 ADD SWAP2 SWAP1 SWAP2 MSTORE PUSH1 0x80 PUSH1 0x60 DUP3 ADD DUP2 SWAP1 MSTORE PUSH1 0x0 SWAP1 DUP3 ADD MSTORE PUSH1 0xA0 ADD SWAP1 JUMP JUMPDEST PUSH1 0x1 PUSH1 0x1 PUSH1 0xA0 SHL SUB SWAP3 SWAP1 SWAP3 AND DUP3 MSTORE ISZERO ISZERO PUSH1 0x20 DUP3 ADD MSTORE PUSH1 0x40 ADD SWAP1 JUMP JUMPDEST PUSH1 0x20 DUP2 MSTORE PUSH1 0x0 DUP3 MLOAD DUP1 PUSH1 0x20 DUP5 ADD MSTORE PUSH2 0x47A6 DUP2 PUSH1 0x40 DUP6 ADD PUSH1 0x20 DUP8 ADD PUSH2 0x4921 JUMP JUMPDEST PUSH1 0x1F ADD PUSH1 0x1F NOT AND SWAP2 SWAP1 SWAP2 ADD PUSH1 0x40 ADD SWAP3 SWAP2 POP POP JUMP JUMPDEST PUSH1 0x20 DUP1 DUP3 MSTORE PUSH1 0x27 SWAP1 DUP3 ADD MSTORE PUSH32 0x456E642054696D65206D757374206265206C6172676572207468616E20537461 PUSH1 0x40 DUP3 ADD MSTORE PUSH7 0x72742054696D65 PUSH1 0xC8 SHL PUSH1 0x60 DUP3 ADD MSTORE PUSH1 0x80 ADD SWAP1 JUMP JUMPDEST PUSH1 0x20 DUP1 DUP3 MSTORE PUSH1 0x17 SWAP1 DUP3 ADD MSTORE PUSH32 0x4E6F742063616C6C61626C652066726F6D20636C6F6E65000000000000000000 PUSH1 0x40 DUP3 ADD MSTORE PUSH1 0x60 ADD SWAP1 JUMP JUMPDEST PUSH1 0x20 DUP1 DUP3 MSTORE PUSH1 0x24 SWAP1 DUP3 ADD MSTORE PUSH32 0x50726F626C656D2077697468206D696E20616E64206D6178207374616B652073 PUSH1 0x40 DUP3 ADD MSTORE PUSH4 0x6574757 PUSH1 0xE4 SHL PUSH1 0x60 DUP3 ADD MSTORE PUSH1 0x80 ADD SWAP1 JUMP JUMPDEST PUSH1 0x20 DUP1 DUP3 MSTORE DUP2 DUP2 ADD MSTORE PUSH32 0x4F776E61626C653A2063616C6C6572206973206E6F7420746865206F776E6572 PUSH1 0x40 DUP3 ADD MSTORE PUSH1 0x60 ADD SWAP1 JUMP JUMPDEST PUSH1 0x0 DUP3 NOT DUP3 GT ISZERO PUSH2 0x48C4 JUMPI PUSH2 0x48C4 PUSH2 0x4968 JUMP JUMPDEST POP ADD SWAP1 JUMP JUMPDEST PUSH1 0x0 DUP3 PUSH2 0x48E6 JUMPI PUSH4 0x4E487B71 PUSH1 0xE0 SHL PUSH1 0x0 MSTORE PUSH1 0x12 PUSH1 0x4 MSTORE PUSH1 0x24 PUSH1 0x0 REVERT JUMPDEST POP DIV SWAP1 JUMP JUMPDEST PUSH1 0x0 DUP2 PUSH1 0x0 NOT DIV DUP4 GT DUP3 ISZERO ISZERO AND ISZERO PUSH2 0x4905 JUMPI PUSH2 0x4905 PUSH2 0x4968 JUMP JUMPDEST POP MUL SWAP1 JUMP JUMPDEST PUSH1 0x0 DUP3 DUP3 LT ISZERO PUSH2 0x491C JUMPI PUSH2 0x491C PUSH2 0x4968 JUMP JUMPDEST POP SUB SWAP1 JUMP JUMPDEST PUSH1 0x0 JUMPDEST DUP4 DUP2 LT ISZERO PUSH2 0x493C JUMPI DUP2 DUP2 ADD MLOAD DUP4 DUP3 ADD MSTORE PUSH1 0x20 ADD PUSH2 0x4924 JUMP JUMPDEST DUP4 DUP2 GT ISZERO PUSH2 0x332D JUMPI POP POP PUSH1 0x0 SWAP2 ADD MSTORE JUMP JUMPDEST PUSH1 0x0 PUSH1 0x0 NOT DUP3 EQ ISZERO PUSH2 0x4961 JUMPI PUSH2 0x4961 PUSH2 0x4968 JUMP JUMPDEST POP PUSH1 0x1 ADD SWAP1 JUMP JUMPDEST PUSH4 0x4E487B71 PUSH1 0xE0 SHL PUSH1 0x0 MSTORE PUSH1 0x11 PUSH1 0x4 MSTORE PUSH1 0x24 PUSH1 0x0 REVERT JUMPDEST PUSH4 0x4E487B71 PUSH1 0xE0 SHL PUSH1 0x0 MSTORE PUSH1 0x32 PUSH1 0x4 MSTORE PUSH1 0x24 PUSH1 0x0 REVERT JUMPDEST PUSH1 0x1 PUSH1 0x1 PUSH1 0xA0 SHL SUB DUP2 AND DUP2 EQ PUSH2 0x37E4 JUMPI PUSH1 0x0 DUP1 REVERT JUMPDEST DUP1 ISZERO ISZERO DUP2 EQ PUSH2 0x37E4 JUMPI PUSH1 0x0 DUP1 REVERT INVALID LOG2 PUSH5 0x6970667358 0x22 SLT KECCAK256 SWAP4 0xBC SWAP16 DUP9 PUSH30 0x8E66B01722F6E341E9919B95B2D61CAFF999A4FA5A3960CB636AD464736F PUSH13 0x63430008070033000000000000 "
		},
		"gasEstimates": {
			"creation": {
				"codeDepositCost": "3785000",
				"executionCost": "infinite",
				"totalCost": "infinite"
			},
			"external": {
				"_beforeRedeem(address,uint256)": "infinite",
				"_beforeShopMode(address,uint256,bool,address)": "infinite",
				"addForStake((address,uint256,bool,uint256,uint256,uint256,uint256,uint256),address,address[],bool,uint256[])": "infinite",
				"addShopMode(address,uint256,bool,uint256,address,uint256,uint256,uint256,uint256)": "infinite",
				"buy(address,uint256,uint256)": "infinite",
				"cards(address,uint256)": "19939",
				"constructed()": "2367",
				"consumedPoint()": "2352",
				"debtPoint(address)": "2613",
				"discard()": "32063",
				"earned(address)": "infinite",
				"farms(address,uint256)": "4912",
				"genesisFarm()": "2417",
				"getCurrPoints(address)": "infinite",
				"getFarmsLength(address)": "2588",
				"init(uint256,uint256,uint256,address)": "145417",
				"isCloned()": "2401",
				"lastUpdateTime(address)": "2570",
				"lockedBalance(address)": "2547",
				"maxStake()": "2417",
				"minLockedAmount(address,uint256,address)": "infinite",
				"minStake()": "2329",
				"newFarm(uint256,uint256,uint256,address,address)": "infinite",
				"nftAddedNum()": "2417",
				"onERC1155Received(address,address,uint256,uint256,bytes)": "infinite",
				"onERC721Received(address,address,uint256,bytes)": "infinite",
				"owner()": "2443",
				"points(address)": "2614",
				"redeem(address,uint256)": "infinite",
				"rewardRate()": "2374",
				"setCloned()": "28747",
				"settingFarm(address,uint256,uint256,uint256)": "99585",
				"stake(uint256)": "infinite",
				"stakingBalanceOf(address)": "2578",
				"supply(address,uint256)": "2713",
				"token()": "2469",
				"totalSupply()": "2371",
				"transferOwnership(address)": "30504",
				"updateNftNum2(uint256,uint256)": "infinite",
				"withdraw(uint256)": "infinite"
			},
			"internal": {
				"checkFarmsToAdd(address[] calldata)": "infinite",
				"removeFarming(address,uint256)": "infinite",
				"updateGeneral_stake(address,uint256,uint256,uint256,uint256,uint256,uint256)": "infinite",
				"updateListFarm_stake(address,uint256,uint256,address[] calldata,bool,uint256[] calldata)": "infinite",
				"updateNftNum(uint256,uint256)": "infinite"
			}
		},
		"methodIdentifiers": {
			"_beforeRedeem(address,uint256)": "b4242463",
			"_beforeShopMode(address,uint256,bool,address)": "27c6e65d",
			"addForStake((address,uint256,bool,uint256,uint256,uint256,uint256,uint256),address,address[],bool,uint256[])": "4ba43f82",
			"addShopMode(address,uint256,bool,uint256,address,uint256,uint256,uint256,uint256)": "3606b522",
			"buy(address,uint256,uint256)": "a59ac6dd",
			"cards(address,uint256)": "9fb37393",
			"constructed()": "2a599d94",
			"consumedPoint()": "7639c548",
			"debtPoint(address)": "4b217129",
			"discard()": "bb702c8e",
			"earned(address)": "008cc262",
			"farms(address,uint256)": "909b30f1",
			"genesisFarm()": "015bde89",
			"getCurrPoints(address)": "cf77de92",
			"getFarmsLength(address)": "1569351a",
			"init(uint256,uint256,uint256,address)": "cdd7b1fd",
			"isCloned()": "03bcc72d",
			"lastUpdateTime(address)": "2ce9aead",
			"lockedBalance(address)": "9ae697bf",
			"maxStake()": "ea1b28e0",
			"minLockedAmount(address,uint256,address)": "0da27295",
			"minStake()": "375b3c0a",
			"newFarm(uint256,uint256,uint256,address,address)": "3d33019b",
			"nftAddedNum()": "b19c79da",
			"onERC1155Received(address,address,uint256,uint256,bytes)": "f23a6e61",
			"onERC721Received(address,address,uint256,bytes)": "150b7a02",
			"owner()": "8da5cb5b",
			"points(address)": "358b8166",
			"redeem(address,uint256)": "1e9a6950",
			"rewardRate()": "7b0a47ee",
			"setCloned()": "05f16bb9",
			"settingFarm(address,uint256,uint256,uint256)": "ef0a8f6b",
			"stake(uint256)": "a694fc3a",
			"stakingBalanceOf(address)": "62e3efdd",
			"supply(address,uint256)": "f2b9fdb8",
			"token()": "fc0c546a",
			"totalSupply()": "18160ddd",
			"transferOwnership(address)": "f2fde38b",
			"updateNftNum2(uint256,uint256)": "48e6cbe1",
			"withdraw(uint256)": "2e1a7d4d"
		}
	},
	"abi": [
		{
			"inputs": [
				{
					"internalType": "contract IERC20",
					"name": "_tokenAddress",
					"type": "address"
				}
			],
			"stateMutability": "nonpayable",
			"type": "constructor"
		},
		{
			"anonymous": false,
			"inputs": [
				{
					"indexed": true,
					"internalType": "address",
					"name": "nftContractAddress",
					"type": "address"
				},
				{
					"indexed": true,
					"internalType": "uint256",
					"name": "tokenId",
					"type": "uint256"
				}
			],
			"name": "CardAdded",
			"type": "event"
		},
		{
			"anonymous": false,
			"inputs": [
				{
					"indexed": true,
					"internalType": "address",
					"name": "user",
					"type": "address"
				},
				{
					"indexed": true,
					"internalType": "address",
					"name": "farm",
					"type": "address"
				}
			],
			"name": "FarmCreated",
			"type": "event"
		},
		{
			"anonymous": false,
			"inputs": [
				{
					"indexed": true,
					"internalType": "address",
					"name": "previousOwner",
					"type": "address"
				},
				{
					"indexed": true,
					"internalType": "address",
					"name": "newOwner",
					"type": "address"
				}
			],
			"name": "OwnershipTransferred",
			"type": "event"
		},
		{
			"anonymous": false,
			"inputs": [
				{
					"indexed": true,
					"internalType": "address",
					"name": "user",
					"type": "address"
				},
				{
					"indexed": true,
					"internalType": "address",
					"name": "erc1155",
					"type": "address"
				},
				{
					"indexed": true,
					"internalType": "uint256",
					"name": "id",
					"type": "uint256"
				},
				{
					"indexed": false,
					"internalType": "uint256",
					"name": "amount",
					"type": "uint256"
				}
			],
			"name": "Redeemed",
			"type": "event"
		},
		{
			"anonymous": false,
			"inputs": [
				{
					"indexed": true,
					"internalType": "address",
					"name": "user",
					"type": "address"
				},
				{
					"indexed": false,
					"internalType": "uint256",
					"name": "amount",
					"type": "uint256"
				}
			],
			"name": "Staked",
			"type": "event"
		},
		{
			"anonymous": false,
			"inputs": [
				{
					"indexed": true,
					"internalType": "address",
					"name": "user",
					"type": "address"
				},
				{
					"indexed": false,
					"internalType": "uint256",
					"name": "amount",
					"type": "uint256"
				}
			],
			"name": "Withdrawn",
			"type": "event"
		},
		{
			"inputs": [
				{
					"internalType": "address",
					"name": "_nftContract",
					"type": "address"
				},
				{
					"internalType": "uint256",
					"name": "_id",
					"type": "uint256"
				}
			],
			"name": "_beforeRedeem",
			"outputs": [
				{
					"internalType": "uint256",
					"name": "",
					"type": "uint256"
				},
				{
					"internalType": "bool",
					"name": "",
					"type": "bool"
				},
				{
					"internalType": "bool",
					"name": "",
					"type": "bool"
				},
				{
					"internalType": "uint256",
					"name": "",
					"type": "uint256"
				}
			],
			"stateMutability": "nonpayable",
			"type": "function"
		},
		{
			"inputs": [
				{
					"internalType": "address",
					"name": "_NftContractAddress",
					"type": "address"
				},
				{
					"internalType": "uint256",
					"name": "_tokenId",
					"type": "uint256"
				},
				{
					"internalType": "bool",
					"name": "_trueForERC1155",
					"type": "bool"
				},
				{
					"internalType": "address",
					"name": "_endUser",
					"type": "address"
				}
			],
			"name": "_beforeShopMode",
			"outputs": [],
			"stateMutability": "nonpayable",
			"type": "function"
		},
		{
			"inputs": [
				{
					"components": [
						{
							"internalType": "address",
							"name": "_NftContractAddress",
							"type": "address"
						},
						{
							"internalType": "uint256",
							"name": "_id",
							"type": "uint256"
						},
						{
							"internalType": "bool",
							"name": "_trueForERC1155",
							"type": "bool"
						},
						{
							"internalType": "uint256",
							"name": "_requiredPoints",
							"type": "uint256"
						},
						{
							"internalType": "uint256",
							"name": "_royalities",
							"type": "uint256"
						},
						{
							"internalType": "uint256",
							"name": "_startTime",
							"type": "uint256"
						},
						{
							"internalType": "uint256",
							"name": "_endTime",
							"type": "uint256"
						},
						{
							"internalType": "uint256",
							"name": "_supply",
							"type": "uint256"
						}
					],
					"internalType": "struct DaoLaunchFarm.FrontendCard",
					"name": "f",
					"type": "tuple"
				},
				{
					"internalType": "address",
					"name": "_artist",
					"type": "address"
				},
				{
					"internalType": "address[]",
					"name": "_desfarms",
					"type": "address[]"
				},
				{
					"internalType": "bool",
					"name": "isTokenLockSetting",
					"type": "bool"
				},
				{
					"internalType": "uint256[]",
					"name": "minLockAmount",
					"type": "uint256[]"
				}
			],
			"name": "addForStake",
			"outputs": [],
			"stateMutability": "nonpayable",
			"type": "function"
		},
		{
			"inputs": [
				{
					"internalType": "address",
					"name": "_NftContractAddress",
					"type": "address"
				},
				{
					"internalType": "uint256",
					"name": "_tokenId",
					"type": "uint256"
				},
				{
					"internalType": "bool",
					"name": "_trueForERC1155",
					"type": "bool"
				},
				{
					"internalType": "uint256",
					"name": "_royalitiesPercent",
					"type": "uint256"
				},
				{
					"internalType": "address",
					"name": "_artist",
					"type": "address"
				},
				{
					"internalType": "uint256",
					"name": "_startTime",
					"type": "uint256"
				},
				{
					"internalType": "uint256",
					"name": "_endTime",
					"type": "uint256"
				},
				{
					"internalType": "uint256",
					"name": "_pricePerPiece",
					"type": "uint256"
				},
				{
					"internalType": "uint256",
					"name": "_amount",
					"type": "uint256"
				}
			],
			"name": "addShopMode",
			"outputs": [],
			"stateMutability": "nonpayable",
			"type": "function"
		},
		{
			"inputs": [
				{
					"internalType": "address",
					"name": "_nftContract",
					"type": "address"
				},
				{
					"internalType": "uint256",
					"name": "_id",
					"type": "uint256"
				},
				{
					"internalType": "uint256",
					"name": "_amount",
					"type": "uint256"
				}
			],
			"name": "buy",
			"outputs": [],
			"stateMutability": "nonpayable",
			"type": "function"
		},
		{
			"inputs": [
				{
					"internalType": "address",
					"name": "",
					"type": "address"
				},
				{
					"internalType": "uint256",
					"name": "",
					"type": "uint256"
				}
			],
			"name": "cards",
			"outputs": [
				{
					"internalType": "bool",
					"name": "trueForERC1155",
					"type": "bool"
				},
				{
					"internalType": "uint256",
					"name": "requiredPoints",
					"type": "uint256"
				},
				{
					"internalType": "uint256",
					"name": "royalities",
					"type": "uint256"
				},
				{
					"internalType": "uint256",
					"name": "startTime",
					"type": "uint256"
				},
				{
					"internalType": "uint256",
					"name": "endTime",
					"type": "uint256"
				},
				{
					"internalType": "uint256",
					"name": "supply",
					"type": "uint256"
				},
				{
					"internalType": "address",
					"name": "artist",
					"type": "address"
				},
				{
					"internalType": "bool",
					"name": "isStakingTokenLock",
					"type": "bool"
				},
				{
					"internalType": "bool",
					"name": "trueForShopMode",
					"type": "bool"
				},
				{
					"internalType": "uint256",
					"name": "pricePerPiece",
					"type": "uint256"
				},
				{
					"internalType": "address",
					"name": "shop",
					"type": "address"
				}
			],
			"stateMutability": "view",
			"type": "function"
		},
		{
			"inputs": [],
			"name": "constructed",
			"outputs": [
				{
					"internalType": "bool",
					"name": "",
					"type": "bool"
				}
			],
			"stateMutability": "view",
			"type": "function"
		},
		{
			"inputs": [],
			"name": "consumedPoint",
			"outputs": [
				{
					"internalType": "uint256",
					"name": "",
					"type": "uint256"
				}
			],
			"stateMutability": "view",
			"type": "function"
		},
		{
			"inputs": [
				{
					"internalType": "address",
					"name": "",
					"type": "address"
				}
			],
			"name": "debtPoint",
			"outputs": [
				{
					"internalType": "uint256",
					"name": "",
					"type": "uint256"
				}
			],
			"stateMutability": "view",
			"type": "function"
		},
		{
			"inputs": [],
			"name": "discard",
			"outputs": [],
			"stateMutability": "nonpayable",
			"type": "function"
		},
		{
			"inputs": [
				{
					"internalType": "address",
					"name": "account",
					"type": "address"
				}
			],
			"name": "earned",
			"outputs": [
				{
					"internalType": "uint256",
					"name": "",
					"type": "uint256"
				}
			],
			"stateMutability": "view",
			"type": "function"
		},
		{
			"inputs": [
				{
					"internalType": "address",
					"name": "",
					"type": "address"
				},
				{
					"internalType": "uint256",
					"name": "",
					"type": "uint256"
				}
			],
			"name": "farms",
			"outputs": [
				{
					"internalType": "address",
					"name": "",
					"type": "address"
				}
			],
			"stateMutability": "view",
			"type": "function"
		},
		{
			"inputs": [],
			"name": "genesisFarm",
			"outputs": [
				{
					"internalType": "address",
					"name": "",
					"type": "address"
				}
			],
			"stateMutability": "view",
			"type": "function"
		},
		{
			"inputs": [
				{
					"internalType": "address",
					"name": "stakingAccount",
					"type": "address"
				}
			],
			"name": "getCurrPoints",
			"outputs": [
				{
					"internalType": "uint256",
					"name": "",
					"type": "uint256"
				}
			],
			"stateMutability": "view",
			"type": "function"
		},
		{
			"inputs": [
				{
					"internalType": "address",
					"name": "_address",
					"type": "address"
				}
			],
			"name": "getFarmsLength",
			"outputs": [
				{
					"internalType": "uint256",
					"name": "",
					"type": "uint256"
				}
			],
			"stateMutability": "view",
			"type": "function"
		},
		{
			"inputs": [
				{
					"internalType": "uint256",
					"name": "_rewardRate",
					"type": "uint256"
				},
				{
					"internalType": "uint256",
					"name": "_minStake",
					"type": "uint256"
				},
				{
					"internalType": "uint256",
					"name": "_maxStake",
					"type": "uint256"
				},
				{
					"internalType": "contract IERC20",
					"name": "_tokenAddress",
					"type": "address"
				}
			],
			"name": "init",
			"outputs": [],
			"stateMutability": "nonpayable",
			"type": "function"
		},
		{
			"inputs": [],
			"name": "isCloned",
			"outputs": [
				{
					"internalType": "bool",
					"name": "",
					"type": "bool"
				}
			],
			"stateMutability": "view",
			"type": "function"
		},
		{
			"inputs": [
				{
					"internalType": "address",
					"name": "",
					"type": "address"
				}
			],
			"name": "lastUpdateTime",
			"outputs": [
				{
					"internalType": "uint256",
					"name": "",
					"type": "uint256"
				}
			],
			"stateMutability": "view",
			"type": "function"
		},
		{
			"inputs": [
				{
					"internalType": "address",
					"name": "",
					"type": "address"
				}
			],
			"name": "lockedBalance",
			"outputs": [
				{
					"internalType": "uint256",
					"name": "",
					"type": "uint256"
				}
			],
			"stateMutability": "view",
			"type": "function"
		},
		{
			"inputs": [],
			"name": "maxStake",
			"outputs": [
				{
					"internalType": "uint256",
					"name": "",
					"type": "uint256"
				}
			],
			"stateMutability": "view",
			"type": "function"
		},
		{
			"inputs": [
				{
					"internalType": "address",
					"name": "",
					"type": "address"
				},
				{
					"internalType": "uint256",
					"name": "",
					"type": "uint256"
				},
				{
					"internalType": "address",
					"name": "",
					"type": "address"
				}
			],
			"name": "minLockedAmount",
			"outputs": [
				{
					"internalType": "uint256",
					"name": "",
					"type": "uint256"
				}
			],
			"stateMutability": "view",
			"type": "function"
		},
		{
			"inputs": [],
			"name": "minStake",
			"outputs": [
				{
					"internalType": "uint256",
					"name": "",
					"type": "uint256"
				}
			],
			"stateMutability": "view",
			"type": "function"
		},
		{
			"inputs": [
				{
					"internalType": "uint256",
					"name": "_rewardRate",
					"type": "uint256"
				},
				{
					"internalType": "uint256",
					"name": "_minStake",
					"type": "uint256"
				},
				{
					"internalType": "uint256",
					"name": "_maxStake",
					"type": "uint256"
				},
				{
					"internalType": "contract IERC20",
					"name": "_tokenAddress",
					"type": "address"
				},
				{
					"internalType": "address",
					"name": "newOwner",
					"type": "address"
				}
			],
			"name": "newFarm",
			"outputs": [],
			"stateMutability": "nonpayable",
			"type": "function"
		},
		{
			"inputs": [],
			"name": "nftAddedNum",
			"outputs": [
				{
					"internalType": "uint256",
					"name": "",
					"type": "uint256"
				}
			],
			"stateMutability": "view",
			"type": "function"
		},
		{
			"inputs": [
				{
					"internalType": "address",
					"name": "_operator",
					"type": "address"
				},
				{
					"internalType": "address",
					"name": "_from",
					"type": "address"
				},
				{
					"internalType": "uint256",
					"name": "_id",
					"type": "uint256"
				},
				{
					"internalType": "uint256",
					"name": "_amount",
					"type": "uint256"
				},
				{
					"internalType": "bytes",
					"name": "_data",
					"type": "bytes"
				}
			],
			"name": "onERC1155Received",
			"outputs": [
				{
					"internalType": "bytes4",
					"name": "",
					"type": "bytes4"
				}
			],
			"stateMutability": "nonpayable",
			"type": "function"
		},
		{
			"inputs": [
				{
					"internalType": "address",
					"name": "operator",
					"type": "address"
				},
				{
					"internalType": "address",
					"name": "from",
					"type": "address"
				},
				{
					"internalType": "uint256",
					"name": "tokenId",
					"type": "uint256"
				},
				{
					"internalType": "bytes",
					"name": "data",
					"type": "bytes"
				}
			],
			"name": "onERC721Received",
			"outputs": [
				{
					"internalType": "bytes4",
					"name": "",
					"type": "bytes4"
				}
			],
			"stateMutability": "nonpayable",
			"type": "function"
		},
		{
			"inputs": [],
			"name": "owner",
			"outputs": [
				{
					"internalType": "address",
					"name": "",
					"type": "address"
				}
			],
			"stateMutability": "view",
			"type": "function"
		},
		{
			"inputs": [
				{
					"internalType": "address",
					"name": "",
					"type": "address"
				}
			],
			"name": "points",
			"outputs": [
				{
					"internalType": "uint256",
					"name": "",
					"type": "uint256"
				}
			],
			"stateMutability": "view",
			"type": "function"
		},
		{
			"inputs": [
				{
					"internalType": "address",
					"name": "nftAddress",
					"type": "address"
				},
				{
					"internalType": "uint256",
					"name": "id",
					"type": "uint256"
				}
			],
			"name": "redeem",
			"outputs": [],
			"stateMutability": "nonpayable",
			"type": "function"
		},
		{
			"inputs": [],
			"name": "rewardRate",
			"outputs": [
				{
					"internalType": "uint256",
					"name": "",
					"type": "uint256"
				}
			],
			"stateMutability": "view",
			"type": "function"
		},
		{
			"inputs": [],
			"name": "setCloned",
			"outputs": [],
			"stateMutability": "nonpayable",
			"type": "function"
		},
		{
			"inputs": [
				{
					"internalType": "contract IERC20",
					"name": "_token",
					"type": "address"
				},
				{
					"internalType": "uint256",
					"name": "_rewardRate",
					"type": "uint256"
				},
				{
					"internalType": "uint256",
					"name": "_minStake",
					"type": "uint256"
				},
				{
					"internalType": "uint256",
					"name": "_maxStake",
					"type": "uint256"
				}
			],
			"name": "settingFarm",
			"outputs": [],
			"stateMutability": "nonpayable",
			"type": "function"
		},
		{
			"inputs": [
				{
					"internalType": "uint256",
					"name": "amount",
					"type": "uint256"
				}
			],
			"name": "stake",
			"outputs": [],
			"stateMutability": "nonpayable",
			"type": "function"
		},
		{
			"inputs": [
				{
					"internalType": "address",
					"name": "account",
					"type": "address"
				}
			],
			"name": "stakingBalanceOf",
			"outputs": [
				{
					"internalType": "uint256",
					"name": "",
					"type": "uint256"
				}
			],
			"stateMutability": "view",
			"type": "function"
		},
		{
			"inputs": [
				{
					"internalType": "address",
					"name": "_ercAddress",
					"type": "address"
				},
				{
					"internalType": "uint256",
					"name": "_id",
					"type": "uint256"
				}
			],
			"name": "supply",
			"outputs": [
				{
					"internalType": "uint256",
					"name": "",
					"type": "uint256"
				}
			],
			"stateMutability": "view",
			"type": "function"
		},
		{
			"inputs": [],
			"name": "token",
			"outputs": [
				{
					"internalType": "contract IERC20",
					"name": "",
					"type": "address"
				}
			],
			"stateMutability": "view",
			"type": "function"
		},
		{
			"inputs": [],
			"name": "totalSupply",
			"outputs": [
				{
					"internalType": "uint256",
					"name": "",
					"type": "uint256"
				}
			],
			"stateMutability": "view",
			"type": "function"
		},
		{
			"inputs": [
				{
					"internalType": "address",
					"name": "newOwner",
					"type": "address"
				}
			],
			"name": "transferOwnership",
			"outputs": [],
			"stateMutability": "nonpayable",
			"type": "function"
		},
		{
			"inputs": [
				{
					"internalType": "uint256",
					"name": "oldNum",
					"type": "uint256"
				},
				{
					"internalType": "uint256",
					"name": "newNum",
					"type": "uint256"
				}
			],
			"name": "updateNftNum2",
			"outputs": [],
			"stateMutability": "nonpayable",
			"type": "function"
		},
		{
			"inputs": [
				{
					"internalType": "uint256",
					"name": "amount",
					"type": "uint256"
				}
			],
			"name": "withdraw",
			"outputs": [],
			"stateMutability": "nonpayable",
			"type": "function"
		}
	]
}